{
  "_format": "hh-sol-artifact-1",
  "contractName": "SchoolManagement",
  "sourceName": "contracts/SchoolManagement.sol",
  "abi": [
    {
      "inputs": [],
      "stateMutability": "nonpayable",
      "type": "constructor"
    },
    {
      "anonymous": false,
      "inputs": [
        {
          "indexed": false,
          "internalType": "string",
          "name": "namaMataPelajaran",
          "type": "string"
        }
      ],
      "name": "mataPelajaranAdded",
      "type": "event"
    },
    {
      "anonymous": false,
      "inputs": [
        {
          "indexed": false,
          "internalType": "address",
          "name": "_studentAddress",
          "type": "address"
        },
        {
          "indexed": false,
          "internalType": "string",
          "name": "namaMataPelajaran",
          "type": "string"
        },
        {
          "indexed": false,
          "internalType": "uint256",
          "name": "score",
          "type": "uint256"
        }
      ],
      "name": "scoreAdded",
      "type": "event"
    },
    {
      "anonymous": false,
      "inputs": [
        {
          "indexed": false,
          "internalType": "address",
          "name": "_studentAddress",
          "type": "address"
        },
        {
          "indexed": false,
          "internalType": "string",
          "name": "studentName",
          "type": "string"
        }
      ],
      "name": "studentAdded",
      "type": "event"
    },
    {
      "anonymous": false,
      "inputs": [
        {
          "indexed": false,
          "internalType": "address",
          "name": "_studentAddress",
          "type": "address"
        },
        {
          "indexed": false,
          "internalType": "string",
          "name": "namaMataPelajaran",
          "type": "string"
        }
      ],
      "name": "studentPelajaranAdded",
      "type": "event"
    },
    {
      "anonymous": false,
      "inputs": [
        {
          "indexed": false,
          "internalType": "address",
          "name": "_teacherAddress",
          "type": "address"
        },
        {
          "indexed": false,
          "internalType": "string",
          "name": "teacherName",
          "type": "string"
        }
      ],
      "name": "teacherAdded",
      "type": "event"
    },
    {
      "anonymous": false,
      "inputs": [
        {
          "indexed": false,
          "internalType": "address",
          "name": "_teacherAddress",
          "type": "address"
        },
        {
          "indexed": false,
          "internalType": "string",
          "name": "namaMataPelajaran",
          "type": "string"
        }
      ],
      "name": "teacherPelajaranAdded",
      "type": "event"
    },
    {
      "inputs": [
        {
          "internalType": "string",
          "name": "_name",
          "type": "string"
        },
        {
          "internalType": "address",
          "name": "addr",
          "type": "address"
        }
      ],
      "name": "addMataPelajaran",
      "outputs": [],
      "stateMutability": "nonpayable",
      "type": "function"
    },
    {
      "inputs": [
        {
          "internalType": "uint256",
          "name": "_matapelajaranID",
          "type": "uint256"
        },
        {
          "internalType": "address",
          "name": "addr",
          "type": "address"
        },
        {
          "internalType": "uint256",
          "name": "_score",
          "type": "uint256"
        }
      ],
      "name": "addScore",
      "outputs": [],
      "stateMutability": "nonpayable",
      "type": "function"
    },
    {
      "inputs": [
        {
          "internalType": "address",
          "name": "addr",
          "type": "address"
        },
        {
          "internalType": "string",
          "name": "_name",
          "type": "string"
        }
      ],
      "name": "addStudent",
      "outputs": [],
      "stateMutability": "nonpayable",
      "type": "function"
    },
    {
      "inputs": [
        {
          "internalType": "address",
          "name": "addr",
          "type": "address"
        },
        {
          "internalType": "uint256",
          "name": "_matapelajaranID",
          "type": "uint256"
        }
      ],
      "name": "addStudentPelajaran",
      "outputs": [],
      "stateMutability": "nonpayable",
      "type": "function"
    },
    {
      "inputs": [
        {
          "internalType": "address",
          "name": "addr",
          "type": "address"
        },
        {
          "internalType": "string",
          "name": "_name",
          "type": "string"
        }
      ],
      "name": "addTeacher",
      "outputs": [],
      "stateMutability": "nonpayable",
      "type": "function"
    },
    {
      "inputs": [],
      "name": "admin",
      "outputs": [
        {
          "internalType": "address",
          "name": "",
          "type": "address"
        }
      ],
      "stateMutability": "view",
      "type": "function"
    },
    {
      "inputs": [
        {
          "internalType": "address",
          "name": "addr",
          "type": "address"
        }
      ],
      "name": "checkTeachers",
      "outputs": [
        {
          "internalType": "bool",
          "name": "",
          "type": "bool"
        }
      ],
      "stateMutability": "view",
      "type": "function"
    },
    {
      "inputs": [
        {
          "internalType": "address",
          "name": "addr",
          "type": "address"
        }
      ],
      "name": "getAdmin",
      "outputs": [
        {
          "internalType": "bool",
          "name": "",
          "type": "bool"
        }
      ],
      "stateMutability": "view",
      "type": "function"
    },
    {
      "inputs": [
        {
          "internalType": "uint256",
          "name": "_matapelajaranID",
          "type": "uint256"
        }
      ],
      "name": "getMataPelajaranStudents",
      "outputs": [
        {
          "internalType": "address[]",
          "name": "",
          "type": "address[]"
        }
      ],
      "stateMutability": "view",
      "type": "function"
    },
    {
      "inputs": [
        {
          "internalType": "address",
          "name": "addr",
          "type": "address"
        }
      ],
      "name": "getStudent",
      "outputs": [
        {
          "internalType": "bool",
          "name": "",
          "type": "bool"
        }
      ],
      "stateMutability": "view",
      "type": "function"
    },
    {
      "inputs": [
        {
          "internalType": "address",
          "name": "addr",
          "type": "address"
        }
      ],
      "name": "getStudentData",
      "outputs": [
        {
          "components": [
            {
              "internalType": "string",
              "name": "name",
              "type": "string"
            }
          ],
          "internalType": "struct SchoolManagement.Student",
          "name": "student",
          "type": "tuple"
        }
      ],
      "stateMutability": "view",
      "type": "function"
    },
    {
      "inputs": [
        {
          "internalType": "address",
          "name": "addr",
          "type": "address"
        }
      ],
      "name": "getStudentMataPelajarans",
      "outputs": [
        {
          "internalType": "uint256[]",
          "name": "",
          "type": "uint256[]"
        }
      ],
      "stateMutability": "view",
      "type": "function"
    },
    {
      "inputs": [
        {
          "internalType": "uint256",
          "name": "_matapelajaranID",
          "type": "uint256"
        },
        {
          "internalType": "address",
          "name": "addr",
          "type": "address"
        }
      ],
      "name": "getStudentScore",
      "outputs": [
        {
          "internalType": "uint256",
          "name": "",
          "type": "uint256"
        }
      ],
      "stateMutability": "view",
      "type": "function"
    },
    {
      "inputs": [
        {
          "internalType": "address",
          "name": "addr",
          "type": "address"
        }
      ],
      "name": "getTeacher",
      "outputs": [
        {
          "internalType": "bool",
          "name": "",
          "type": "bool"
        }
      ],
      "stateMutability": "view",
      "type": "function"
    },
    {
      "inputs": [
        {
          "internalType": "address",
          "name": "",
          "type": "address"
        }
      ],
      "name": "listAdmin",
      "outputs": [
        {
          "internalType": "bool",
          "name": "",
          "type": "bool"
        }
      ],
      "stateMutability": "view",
      "type": "function"
    },
    {
      "inputs": [
        {
          "internalType": "address",
          "name": "",
          "type": "address"
        }
      ],
      "name": "listStudent",
      "outputs": [
        {
          "internalType": "bool",
          "name": "",
          "type": "bool"
        }
      ],
      "stateMutability": "view",
      "type": "function"
    },
    {
      "inputs": [
        {
          "internalType": "address",
          "name": "",
          "type": "address"
        }
      ],
      "name": "listTeacher",
      "outputs": [
        {
          "internalType": "bool",
          "name": "",
          "type": "bool"
        }
      ],
      "stateMutability": "view",
      "type": "function"
    },
    {
      "inputs": [],
      "name": "mataPelajaranCounter",
      "outputs": [
        {
          "internalType": "uint256",
          "name": "",
          "type": "uint256"
        }
      ],
      "stateMutability": "view",
      "type": "function"
    },
    {
      "inputs": [
        {
          "internalType": "uint256",
          "name": "",
          "type": "uint256"
        }
      ],
      "name": "matapelajarans",
      "outputs": [
        {
          "internalType": "string",
          "name": "name",
          "type": "string"
        },
        {
          "internalType": "address",
          "name": "teacherAddress",
          "type": "address"
        }
      ],
      "stateMutability": "view",
      "type": "function"
    },
    {
      "inputs": [],
      "name": "studentCounter",
      "outputs": [
        {
          "internalType": "uint256",
          "name": "",
          "type": "uint256"
        }
      ],
      "stateMutability": "view",
      "type": "function"
    },
    {
      "inputs": [
        {
          "internalType": "address",
          "name": "",
          "type": "address"
        }
      ],
      "name": "students",
      "outputs": [
        {
          "internalType": "string",
          "name": "name",
          "type": "string"
        }
      ],
      "stateMutability": "view",
      "type": "function"
    },
    {
      "inputs": [],
      "name": "teacherCounter",
      "outputs": [
        {
          "internalType": "uint256",
          "name": "",
          "type": "uint256"
        }
      ],
      "stateMutability": "view",
      "type": "function"
    },
    {
      "inputs": [
        {
          "internalType": "address",
          "name": "",
          "type": "address"
        }
      ],
      "name": "teachers",
      "outputs": [
        {
          "internalType": "string",
          "name": "name",
          "type": "string"
        }
      ],
      "stateMutability": "view",
      "type": "function"
    }
  ],
  "bytecode": "0x608060405234801561001057600080fd5b50336000806101000a81548173ffffffffffffffffffffffffffffffffffffffff021916908373ffffffffffffffffffffffffffffffffffffffff1602179055506001600460003373ffffffffffffffffffffffffffffffffffffffff1673ffffffffffffffffffffffffffffffffffffffff16815260200190815260200160002060006101000a81548160ff021916908315150217905550612def806100b86000396000f3fe608060405234801561001057600080fd5b506004361061014d5760003560e01c80638f5b9b2e116100c3578063d5bb305d1161007c578063d5bb305d1461040d578063e3596cac1461042b578063f0a47f7814610449578063f851a44014610479578063fb4326fa14610497578063ffda656f146104c75761014d565b80638f5b9b2e146103155780639cf08cad14610331578063a6c807a914610361578063a9dafbe914610391578063aa128c49146103c1578063cfb33395146103dd5761014d565b806367c5ea851161011557806367c5ea851461022e5780636b7b44d71461024a5780637194c5b31461027a578063797201e5146102985780637df674e5146102c85780637fcd6369146102f95761014d565b80631d769b32146101525780633f898323146101825780634bc4fe8a146101b25780635e8b8091146101e257806364efb22b146101fe575b600080fd5b61016c60048036038101906101679190611ea1565b6104f7565b6040516101799190611f96565b60405180910390f35b61019c60048036038101906101979190611ea1565b6106f9565b6040516101a99190612072565b60405180910390f35b6101cc60048036038101906101c79190611ea1565b61083c565b6040516101d991906120af565b60405180910390f35b6101fc60048036038101906101f791906121ff565b61099b565b005b61021860048036038101906102139190611ea1565b610c32565b60405161022591906120af565b60405180910390f35b61024860048036038101906102439190612287565b610c88565b005b610264600480360381019061025f9190611ea1565b610f1b565b60405161027191906120af565b60405180910390f35b610282610f71565b60405161028f91906122e9565b60405180910390f35b6102b260048036038101906102ad9190611ea1565b610f77565b6040516102bf91906120af565b60405180910390f35b6102e260048036038101906102dd9190612304565b610f97565b6040516102f092919061238a565b60405180910390f35b610313600480360381019061030e91906123ba565b611063565b005b61032f600480360381019061032a91906121ff565b611312565b005b61034b60048036038101906103469190611ea1565b611549565b60405161035891906120af565b60405180910390f35b61037b60048036038101906103769190611ea1565b611569565b60405161038891906123fa565b60405180910390f35b6103ab60048036038101906103a6919061241c565b61160f565b6040516103b891906122e9565b60405180910390f35b6103db60048036038101906103d6919061245c565b61185e565b005b6103f760048036038101906103f29190611ea1565b611a0c565b60405161040491906120af565b60405180910390f35b610415611a2c565b60405161042291906122e9565b60405180910390f35b610433611a32565b60405161044091906122e9565b60405180910390f35b610463600480360381019061045e9190611ea1565b611a38565b60405161047091906123fa565b60405180910390f35b610481611ade565b60405161048e91906124b8565b60405180910390f35b6104b160048036038101906104ac9190611ea1565b611b02565b6040516104be91906120af565b60405180910390f35b6104e160048036038101906104dc9190612304565b611b58565b6040516104ee9190612591565b60405180910390f35b6060600060095467ffffffffffffffff811115610517576105166120d4565b5b6040519080825280602002602001820160405280156105455781602001602082028036833780820191505090505b5090506000805b60095481101561064d5760005b600360008381526020019081526020016000206002018054905081101561063f578573ffffffffffffffffffffffffffffffffffffffff166003600084815260200190815260200160002060020182815481106105b9576105b86125b3565b5b9060005260206000200160009054906101000a900473ffffffffffffffffffffffffffffffffffffffff1673ffffffffffffffffffffffffffffffffffffffff16036106325781848481518110610613576106126125b3565b5b602002602001018181525050828061062a90612611565b93505061063f565b8080600101915050610559565b50808060010191505061054c565b5060008167ffffffffffffffff81111561066a576106696120d4565b5b6040519080825280602002602001820160405280156106985781602001602082028036833780820191505090505b50905060005b828110156106ed578381815181106106b9576106b86125b3565b5b60200260200101518282815181106106d4576106d36125b3565b5b602002602001018181525050808060010191505061069e565b50809350505050919050565b610701611e12565b600660008373ffffffffffffffffffffffffffffffffffffffff1673ffffffffffffffffffffffffffffffffffffffff16815260200190815260200160002060009054906101000a900460ff161561083657600260008373ffffffffffffffffffffffffffffffffffffffff1673ffffffffffffffffffffffffffffffffffffffff1681526020019081526020016000206040518060200160405290816000820180546107ad90612688565b80601f01602080910402602001604051908101604052809291908181526020018280546107d990612688565b80156108265780601f106107fb57610100808354040283529160200191610826565b820191906000526020600020905b81548152906001019060200180831161080957829003601f168201915b5050505050815250509050610837565b5b919050565b60006109476040518060400160405280600e81526020017f54656163686572204e616d653a20000000000000000000000000000000000000815250600160008573ffffffffffffffffffffffffffffffffffffffff1673ffffffffffffffffffffffffffffffffffffffff16815260200190815260200160002060000180546108c490612688565b80601f01602080910402602001604051908101604052809291908181526020018280546108f090612688565b801561093d5780601f106109125761010080835404028352916020019161093d565b820191906000526020600020905b81548152906001019060200180831161092057829003601f168201915b5050505050611d30565b600560008373ffffffffffffffffffffffffffffffffffffffff1673ffffffffffffffffffffffffffffffffffffffff16815260200190815260200160002060009054906101000a900460ff169050919050565b8160001515600660008373ffffffffffffffffffffffffffffffffffffffff1673ffffffffffffffffffffffffffffffffffffffff16815260200190815260200160002060009054906101000a900460ff16151514610a2f576040517f08c379a0000000000000000000000000000000000000000000000000000000008152600401610a269061272b565b60405180910390fd5b60011515600560003373ffffffffffffffffffffffffffffffffffffffff1673ffffffffffffffffffffffffffffffffffffffff16815260200190815260200160002060009054906101000a900460ff1615151480610ade575060011515600460003373ffffffffffffffffffffffffffffffffffffffff1673ffffffffffffffffffffffffffffffffffffffff16815260200190815260200160002060009054906101000a900460ff161515145b610b1d576040517f08c379a0000000000000000000000000000000000000000000000000000000008152600401610b1490612797565b60405180910390fd5b604051806020016040528083815250600260008573ffffffffffffffffffffffffffffffffffffffff1673ffffffffffffffffffffffffffffffffffffffff1681526020019081526020016000206000820151816000019081610b809190612963565b509050506001600660008573ffffffffffffffffffffffffffffffffffffffff1673ffffffffffffffffffffffffffffffffffffffff16815260200190815260200160002060006101000a81548160ff02191690831515021790555060086000815480929190610bef90612611565b91905055507f94a56de67dd66b06691e0bd81e5b57fbf02e3ce04576def9d15b6371a0109fd28383604051610c25929190612a35565b60405180910390a1505050565b6000600460008373ffffffffffffffffffffffffffffffffffffffff1673ffffffffffffffffffffffffffffffffffffffff16815260200190815260200160002060009054906101000a900460ff169050919050565b60011515600560003373ffffffffffffffffffffffffffffffffffffffff1673ffffffffffffffffffffffffffffffffffffffff16815260200190815260200160002060009054906101000a900460ff1615151480610d37575060011515600460003373ffffffffffffffffffffffffffffffffffffffff1673ffffffffffffffffffffffffffffffffffffffff16815260200190815260200160002060009054906101000a900460ff161515145b610d76576040517f08c379a0000000000000000000000000000000000000000000000000000000008152600401610d6d90612797565b60405180910390fd5b6003600084815260200190815260200160002060010160009054906101000a900473ffffffffffffffffffffffffffffffffffffffff1673ffffffffffffffffffffffffffffffffffffffff163373ffffffffffffffffffffffffffffffffffffffff161480610e2f5750600460003373ffffffffffffffffffffffffffffffffffffffff1673ffffffffffffffffffffffffffffffffffffffff16815260200190815260200160002060009054906101000a900460ff165b610e6e576040517f08c379a0000000000000000000000000000000000000000000000000000000008152600401610e6590612ab1565b60405180910390fd5b806003600085815260200190815260200160002060030160008473ffffffffffffffffffffffffffffffffffffffff1673ffffffffffffffffffffffffffffffffffffffff168152602001908152602001600020819055507f6dca3a3f0ad0084aa45ac903a74dad8451bc742f036de0182ef554a6a636fdf0826003600086815260200190815260200160002060000183604051610f0e93929190612b55565b60405180910390a1505050565b6000600660008373ffffffffffffffffffffffffffffffffffffffff1673ffffffffffffffffffffffffffffffffffffffff16815260200190815260200160002060009054906101000a900460ff169050919050565b60075481565b60056020528060005260406000206000915054906101000a900460ff1681565b6003602052806000526040600020600091509050806000018054610fba90612688565b80601f0160208091040260200160405190810160405280929190818152602001828054610fe690612688565b80156110335780601f1061100857610100808354040283529160200191611033565b820191906000526020600020905b81548152906001019060200180831161101657829003601f168201915b5050505050908060010160009054906101000a900473ffffffffffffffffffffffffffffffffffffffff16905082565b60011515600560003373ffffffffffffffffffffffffffffffffffffffff1673ffffffffffffffffffffffffffffffffffffffff16815260200190815260200160002060009054906101000a900460ff1615151480611112575060011515600460003373ffffffffffffffffffffffffffffffffffffffff1673ffffffffffffffffffffffffffffffffffffffff16815260200190815260200160002060009054906101000a900460ff161515145b611151576040517f08c379a000000000000000000000000000000000000000000000000000000000815260040161114890612797565b60405180910390fd5b6003600082815260200190815260200160002060010160009054906101000a900473ffffffffffffffffffffffffffffffffffffffff1673ffffffffffffffffffffffffffffffffffffffff163373ffffffffffffffffffffffffffffffffffffffff16148061120a5750600460003373ffffffffffffffffffffffffffffffffffffffff1673ffffffffffffffffffffffffffffffffffffffff16815260200190815260200160002060009054906101000a900460ff165b611249576040517f08c379a000000000000000000000000000000000000000000000000000000000815260040161124090612ab1565b60405180910390fd5b60036000828152602001908152602001600020600201829080600181540180825580915050600190039060005260206000200160009091909190916101000a81548173ffffffffffffffffffffffffffffffffffffffff021916908373ffffffffffffffffffffffffffffffffffffffff1602179055507fe113aa050b8da447370c66aff62902eaadacd312e63b1ea81fdfc08fb08978488260036000848152602001908152602001600020600001604051611306929190612b93565b60405180910390a15050565b8160001515600560008373ffffffffffffffffffffffffffffffffffffffff1673ffffffffffffffffffffffffffffffffffffffff16815260200190815260200160002060009054906101000a900460ff161515146113a6576040517f08c379a000000000000000000000000000000000000000000000000000000000815260040161139d90612c35565b60405180910390fd5b60008054906101000a900473ffffffffffffffffffffffffffffffffffffffff1673ffffffffffffffffffffffffffffffffffffffff163373ffffffffffffffffffffffffffffffffffffffff1614611434576040517f08c379a000000000000000000000000000000000000000000000000000000000815260040161142b90612cc7565b60405180910390fd5b604051806020016040528083815250600160008573ffffffffffffffffffffffffffffffffffffffff1673ffffffffffffffffffffffffffffffffffffffff16815260200190815260200160002060008201518160000190816114979190612963565b509050506001600560008573ffffffffffffffffffffffffffffffffffffffff1673ffffffffffffffffffffffffffffffffffffffff16815260200190815260200160002060006101000a81548160ff0219169083151502179055506007600081548092919061150690612611565b91905055507f6996ba1536de57e4c72a268600ac97e3feae59f326494fce7dc56c6c6de959e3838360405161153c929190612a35565b60405180910390a1505050565b60046020528060005260406000206000915054906101000a900460ff1681565b600260205280600052604060002060009150905080600001805461158c90612688565b80601f01602080910402602001604051908101604052809291908181526020018280546115b890612688565b80156116055780601f106115da57610100808354040283529160200191611605565b820191906000526020600020905b8154815290600101906020018083116115e857829003601f168201915b5050505050905081565b6000826009548110611656576040517f08c379a000000000000000000000000000000000000000000000000000000000815260040161164d90612d33565b60405180910390fd5b8260001515600660008373ffffffffffffffffffffffffffffffffffffffff1673ffffffffffffffffffffffffffffffffffffffff16815260200190815260200160002060009054906101000a900460ff161515146116ea576040517f08c379a00000000000000000000000000000000000000000000000000000000081526004016116e19061272b565b60405180910390fd5b8373ffffffffffffffffffffffffffffffffffffffff163373ffffffffffffffffffffffffffffffffffffffff16148061176d5750600460003373ffffffffffffffffffffffffffffffffffffffff1673ffffffffffffffffffffffffffffffffffffffff16815260200190815260200160002060009054906101000a900460ff165b806117c15750600560003373ffffffffffffffffffffffffffffffffffffffff1673ffffffffffffffffffffffffffffffffffffffff16815260200190815260200160002060009054906101000a900460ff165b611800576040517f08c379a00000000000000000000000000000000000000000000000000000000081526004016117f790612ab1565b60405180910390fd5b6003600086815260200190815260200160002060030160008573ffffffffffffffffffffffffffffffffffffffff1673ffffffffffffffffffffffffffffffffffffffff168152602001908152602001600020549250505092915050565b60008054906101000a900473ffffffffffffffffffffffffffffffffffffffff1673ffffffffffffffffffffffffffffffffffffffff163373ffffffffffffffffffffffffffffffffffffffff16146118ec576040517f08c379a00000000000000000000000000000000000000000000000000000000081526004016118e390612cc7565b60405180910390fd5b8160036000600954815260200190815260200160002060000190816119119190612963565b508060036000600954815260200190815260200160002060010160006101000a81548173ffffffffffffffffffffffffffffffffffffffff021916908373ffffffffffffffffffffffffffffffffffffffff1602179055506009600081548092919061197c90612611565b91905055507f7646b8ac4e7fd0edb8c8c7f98d7a8e6b40c5c3ee848aebf0628fa72e08e61efa826040516119b091906123fa565b60405180910390a17f666e55c8ba70beeafdf0c10f6d389a4fec2ce0f62e4e15f6b29ce3c114c12d1e81600360006009548152602001908152602001600020600001604051611a00929190612b93565b60405180910390a15050565b60066020528060005260406000206000915054906101000a900460ff1681565b60095481565b60085481565b6001602052806000526040600020600091509050806000018054611a5b90612688565b80601f0160208091040260200160405190810160405280929190818152602001828054611a8790612688565b8015611ad45780601f10611aa957610100808354040283529160200191611ad4565b820191906000526020600020905b815481529060010190602001808311611ab757829003601f168201915b5050505050905081565b60008054906101000a900473ffffffffffffffffffffffffffffffffffffffff1681565b6000600560008373ffffffffffffffffffffffffffffffffffffffff1673ffffffffffffffffffffffffffffffffffffffff16815260200190815260200160002060009054906101000a900460ff169050919050565b6060816009548110611b9f576040517f08c379a0000000000000000000000000000000000000000000000000000000008152600401611b9690612d33565b60405180910390fd5b60011515600560003373ffffffffffffffffffffffffffffffffffffffff1673ffffffffffffffffffffffffffffffffffffffff16815260200190815260200160002060009054906101000a900460ff1615151480611c4e575060011515600460003373ffffffffffffffffffffffffffffffffffffffff1673ffffffffffffffffffffffffffffffffffffffff16815260200190815260200160002060009054906101000a900460ff161515145b611c8d576040517f08c379a0000000000000000000000000000000000000000000000000000000008152600401611c8490612797565b60405180910390fd5b60036000848152602001908152602001600020600201805480602002602001604051908101604052809291908181526020018280548015611d2357602002820191906000526020600020905b8160009054906101000a900473ffffffffffffffffffffffffffffffffffffffff1673ffffffffffffffffffffffffffffffffffffffff1681526020019060010190808311611cd9575b5050505050915050919050565b611dc88282604051602401611d46929190612d53565b6040516020818303038152906040527f4b5c4277000000000000000000000000000000000000000000000000000000007bffffffffffffffffffffffffffffffffffffffffffffffffffffffff19166020820180517bffffffffffffffffffffffffffffffffffffffffffffffffffffffff8381831617835250505050611dcc565b5050565b611de381611ddb611de6611e07565b63ffffffff16565b50565b60006a636f6e736f6c652e6c6f679050600080835160208501845afa505050565b611e25819050919050565b6040518060200160405280606081525090565b611e2d612d8a565b565b6000604051905090565b600080fd5b600080fd5b600073ffffffffffffffffffffffffffffffffffffffff82169050919050565b6000611e6e82611e43565b9050919050565b611e7e81611e63565b8114611e8957600080fd5b50565b600081359050611e9b81611e75565b92915050565b600060208284031215611eb757611eb6611e39565b5b6000611ec584828501611e8c565b91505092915050565b600081519050919050565b600082825260208201905092915050565b6000819050602082019050919050565b6000819050919050565b611f0d81611efa565b82525050565b6000611f1f8383611f04565b60208301905092915050565b6000602082019050919050565b6000611f4382611ece565b611f4d8185611ed9565b9350611f5883611eea565b8060005b83811015611f89578151611f708882611f13565b9750611f7b83611f2b565b925050600181019050611f5c565b5085935050505092915050565b60006020820190508181036000830152611fb08184611f38565b905092915050565b600081519050919050565b600082825260208201905092915050565b60005b83811015611ff2578082015181840152602081019050611fd7565b60008484015250505050565b6000601f19601f8301169050919050565b600061201a82611fb8565b6120248185611fc3565b9350612034818560208601611fd4565b61203d81611ffe565b840191505092915050565b60006020830160008301518482036000860152612065828261200f565b9150508091505092915050565b6000602082019050818103600083015261208c8184612048565b905092915050565b60008115159050919050565b6120a981612094565b82525050565b60006020820190506120c460008301846120a0565b92915050565b600080fd5b600080fd5b7f4e487b7100000000000000000000000000000000000000000000000000000000600052604160045260246000fd5b61210c82611ffe565b810181811067ffffffffffffffff8211171561212b5761212a6120d4565b5b80604052505050565b600061213e611e2f565b905061214a8282612103565b919050565b600067ffffffffffffffff82111561216a576121696120d4565b5b61217382611ffe565b9050602081019050919050565b82818337600083830152505050565b60006121a261219d8461214f565b612134565b9050828152602081018484840111156121be576121bd6120cf565b5b6121c9848285612180565b509392505050565b600082601f8301126121e6576121e56120ca565b5b81356121f684826020860161218f565b91505092915050565b6000806040838503121561221657612215611e39565b5b600061222485828601611e8c565b925050602083013567ffffffffffffffff81111561224557612244611e3e565b5b612251858286016121d1565b9150509250929050565b61226481611efa565b811461226f57600080fd5b50565b6000813590506122818161225b565b92915050565b6000806000606084860312156122a05761229f611e39565b5b60006122ae86828701612272565b93505060206122bf86828701611e8c565b92505060406122d086828701612272565b9150509250925092565b6122e381611efa565b82525050565b60006020820190506122fe60008301846122da565b92915050565b60006020828403121561231a57612319611e39565b5b600061232884828501612272565b91505092915050565b600082825260208201905092915050565b600061234d82611fb8565b6123578185612331565b9350612367818560208601611fd4565b61237081611ffe565b840191505092915050565b61238481611e63565b82525050565b600060408201905081810360008301526123a48185612342565b90506123b3602083018461237b565b9392505050565b600080604083850312156123d1576123d0611e39565b5b60006123df85828601611e8c565b92505060206123f085828601612272565b9150509250929050565b600060208201905081810360008301526124148184612342565b905092915050565b6000806040838503121561243357612432611e39565b5b600061244185828601612272565b925050602061245285828601611e8c565b9150509250929050565b6000806040838503121561247357612472611e39565b5b600083013567ffffffffffffffff81111561249157612490611e3e565b5b61249d858286016121d1565b92505060206124ae85828601611e8c565b9150509250929050565b60006020820190506124cd600083018461237b565b92915050565b600081519050919050565b600082825260208201905092915050565b6000819050602082019050919050565b61250881611e63565b82525050565b600061251a83836124ff565b60208301905092915050565b6000602082019050919050565b600061253e826124d3565b61254881856124de565b9350612553836124ef565b8060005b8381101561258457815161256b888261250e565b975061257683612526565b925050600181019050612557565b5085935050505092915050565b600060208201905081810360008301526125ab8184612533565b905092915050565b7f4e487b7100000000000000000000000000000000000000000000000000000000600052603260045260246000fd5b7f4e487b7100000000000000000000000000000000000000000000000000000000600052601160045260246000fd5b600061261c82611efa565b91507fffffffffffffffffffffffffffffffffffffffffffffffffffffffffffffffff820361264e5761264d6125e2565b5b600182019050919050565b7f4e487b7100000000000000000000000000000000000000000000000000000000600052602260045260246000fd5b600060028204905060018216806126a057607f821691505b6020821081036126b3576126b2612659565b5b50919050565b7f73747564656e74206164647265737320616c726561647920726567697374657260008201527f6564000000000000000000000000000000000000000000000000000000000000602082015250565b6000612715602283612331565b9150612720826126b9565b604082019050919050565b6000602082019050818103600083015261274481612708565b9050919050565b7f41646472657373206973206e6f7420612074656163686572202f2061646d696e600082015250565b6000612781602083612331565b915061278c8261274b565b602082019050919050565b600060208201905081810360008301526127b081612774565b9050919050565b60008190508160005260206000209050919050565b60006020601f8301049050919050565b600082821b905092915050565b6000600883026128197fffffffffffffffffffffffffffffffffffffffffffffffffffffffffffffffff826127dc565b61282386836127dc565b95508019841693508086168417925050509392505050565b6000819050919050565b600061286061285b61285684611efa565b61283b565b611efa565b9050919050565b6000819050919050565b61287a83612845565b61288e61288682612867565b8484546127e9565b825550505050565b600090565b6128a3612896565b6128ae818484612871565b505050565b5b818110156128d2576128c760008261289b565b6001810190506128b4565b5050565b601f821115612917576128e8816127b7565b6128f1846127cc565b81016020851015612900578190505b61291461290c856127cc565b8301826128b3565b50505b505050565b600082821c905092915050565b600061293a6000198460080261291c565b1980831691505092915050565b60006129538383612929565b9150826002028217905092915050565b61296c82611fb8565b67ffffffffffffffff811115612985576129846120d4565b5b61298f8254612688565b61299a8282856128d6565b600060209050601f8311600181146129cd57600084156129bb578287015190505b6129c58582612947565b865550612a2d565b601f1984166129db866127b7565b60005b82811015612a03578489015182556001820191506020850194506020810190506129de565b86831015612a205784890151612a1c601f891682612929565b8355505b6001600288020188555050505b505050505050565b6000604082019050612a4a600083018561237b565b8181036020830152612a5c8184612342565b90509392505050565b7f41646472657373206973206e6f7420617574686f72697a656400000000000000600082015250565b6000612a9b601983612331565b9150612aa682612a65565b602082019050919050565b60006020820190508181036000830152612aca81612a8e565b9050919050565b60008154612ade81612688565b612ae88186612331565b94506001821660008114612b035760018114612b1957612b4c565b60ff198316865281151560200286019350612b4c565b612b22856127b7565b60005b83811015612b4457815481890152600182019150602081019050612b25565b808801955050505b50505092915050565b6000606082019050612b6a600083018661237b565b8181036020830152612b7c8185612ad1565b9050612b8b60408301846122da565b949350505050565b6000604082019050612ba8600083018561237b565b8181036020830152612bba8184612ad1565b90509392505050565b7f74656163686572206164647265737320616c726561647920726567697374657260008201527f6564000000000000000000000000000000000000000000000000000000000000602082015250565b6000612c1f602283612331565b9150612c2a82612bc3565b604082019050919050565b60006020820190508181036000830152612c4e81612c12565b9050919050565b7f4f6e6c792061646d696e2063616e2063616c6c20746869732066756e6374696f60008201527f6e00000000000000000000000000000000000000000000000000000000000000602082015250565b6000612cb1602183612331565b9150612cbc82612c55565b604082019050919050565b60006020820190508181036000830152612ce081612ca4565b9050919050565b7f6d6174612070656c616a6172616e20646f6573206e6f74206578697374000000600082015250565b6000612d1d601d83612331565b9150612d2882612ce7565b602082019050919050565b60006020820190508181036000830152612d4c81612d10565b9050919050565b60006040820190508181036000830152612d6d8185612342565b90508181036020830152612d818184612342565b90509392505050565b7f4e487b7100000000000000000000000000000000000000000000000000000000600052605160045260246000fdfea26469706673582212202eeb99a60350b15ae9cd685321ae265d8e5f128b2d5cb24ca57c2ab1b98dd4b864736f6c63430008180033",
  "linkReferences": {},
  "deployedLinkReferences": {}
}