{
  "_format": "hh-sol-artifact-1",
  "contractName": "SchoolManagement",
  "sourceName": "contracts/SchoolManagement.sol",
  "abi": [
    {
      "inputs": [],
      "stateMutability": "nonpayable",
      "type": "constructor"
    },
    {
      "anonymous": false,
      "inputs": [
        {
          "indexed": false,
          "internalType": "string",
          "name": "namaMataPelajaran",
          "type": "string"
        }
      ],
      "name": "mataPelajaranAdded",
      "type": "event"
    },
    {
      "anonymous": false,
      "inputs": [
        {
          "indexed": false,
          "internalType": "address",
          "name": "_studentAddress",
          "type": "address"
        },
        {
          "indexed": false,
          "internalType": "string",
          "name": "namaMataPelajaran",
          "type": "string"
        },
        {
          "indexed": false,
          "internalType": "uint256",
          "name": "score",
          "type": "uint256"
        }
      ],
      "name": "scoreAdded",
      "type": "event"
    },
    {
      "anonymous": false,
      "inputs": [
        {
          "indexed": false,
          "internalType": "address",
          "name": "_studentAddress",
          "type": "address"
        },
        {
          "indexed": false,
          "internalType": "string",
          "name": "studentName",
          "type": "string"
        }
      ],
      "name": "studentAdded",
      "type": "event"
    },
    {
      "anonymous": false,
      "inputs": [
        {
          "indexed": false,
          "internalType": "address",
          "name": "_studentAddress",
          "type": "address"
        },
        {
          "indexed": false,
          "internalType": "string",
          "name": "namaMataPelajaran",
          "type": "string"
        }
      ],
      "name": "studentPelajaranAdded",
      "type": "event"
    },
    {
      "anonymous": false,
      "inputs": [
        {
          "indexed": false,
          "internalType": "address",
          "name": "_teacherAddress",
          "type": "address"
        },
        {
          "indexed": false,
          "internalType": "string",
          "name": "teacherName",
          "type": "string"
        }
      ],
      "name": "teacherAdded",
      "type": "event"
    },
    {
      "anonymous": false,
      "inputs": [
        {
          "indexed": false,
          "internalType": "address",
          "name": "_teacherAddress",
          "type": "address"
        },
        {
          "indexed": false,
          "internalType": "string",
          "name": "namaMataPelajaran",
          "type": "string"
        }
      ],
      "name": "teacherPelajaranAdded",
      "type": "event"
    },
    {
      "inputs": [
        {
          "internalType": "string",
          "name": "_name",
          "type": "string"
        },
        {
          "internalType": "address",
          "name": "addr",
          "type": "address"
        }
      ],
      "name": "addMataPelajaran",
      "outputs": [],
      "stateMutability": "nonpayable",
      "type": "function"
    },
    {
      "inputs": [
        {
          "internalType": "uint256",
          "name": "_matapelajaranID",
          "type": "uint256"
        },
        {
          "internalType": "address",
          "name": "addr",
          "type": "address"
        },
        {
          "internalType": "uint256",
          "name": "_score",
          "type": "uint256"
        }
      ],
      "name": "addScore",
      "outputs": [],
      "stateMutability": "nonpayable",
      "type": "function"
    },
    {
      "inputs": [
        {
          "internalType": "address",
          "name": "addr",
          "type": "address"
        },
        {
          "internalType": "string",
          "name": "_name",
          "type": "string"
        }
      ],
      "name": "addStudent",
      "outputs": [],
      "stateMutability": "nonpayable",
      "type": "function"
    },
    {
      "inputs": [
        {
          "internalType": "address",
          "name": "addr",
          "type": "address"
        },
        {
          "internalType": "uint256",
          "name": "_matapelajaranID",
          "type": "uint256"
        }
      ],
      "name": "addStudentPelajaran",
      "outputs": [],
      "stateMutability": "nonpayable",
      "type": "function"
    },
    {
      "inputs": [
        {
          "internalType": "address",
          "name": "addr",
          "type": "address"
        },
        {
          "internalType": "string",
          "name": "_name",
          "type": "string"
        }
      ],
      "name": "addTeacher",
      "outputs": [],
      "stateMutability": "nonpayable",
      "type": "function"
    },
    {
      "inputs": [],
      "name": "admin",
      "outputs": [
        {
          "internalType": "address",
          "name": "",
          "type": "address"
        }
      ],
      "stateMutability": "view",
      "type": "function"
    },
    {
      "inputs": [
        {
          "internalType": "address",
          "name": "addr",
          "type": "address"
        }
      ],
      "name": "checkTeachers",
      "outputs": [
        {
          "internalType": "bool",
          "name": "",
          "type": "bool"
        }
      ],
      "stateMutability": "view",
      "type": "function"
    },
    {
      "inputs": [
        {
          "internalType": "uint256",
          "name": "_matapelajaranID",
          "type": "uint256"
        }
      ],
      "name": "getMataPelajaranStudents",
      "outputs": [
        {
          "internalType": "address[]",
          "name": "",
          "type": "address[]"
        }
      ],
      "stateMutability": "view",
      "type": "function"
    },
    {
      "inputs": [
        {
          "internalType": "uint256",
          "name": "_matapelajaranID",
          "type": "uint256"
        },
        {
          "internalType": "address",
          "name": "addr",
          "type": "address"
        }
      ],
      "name": "getStudentScore",
      "outputs": [
        {
          "internalType": "uint256",
          "name": "",
          "type": "uint256"
        }
      ],
      "stateMutability": "view",
      "type": "function"
    },
    {
      "inputs": [
        {
          "internalType": "address",
          "name": "",
          "type": "address"
        }
      ],
      "name": "listAdmin",
      "outputs": [
        {
          "internalType": "bool",
          "name": "",
          "type": "bool"
        }
      ],
      "stateMutability": "view",
      "type": "function"
    },
    {
      "inputs": [
        {
          "internalType": "address",
          "name": "",
          "type": "address"
        }
      ],
      "name": "listStudent",
      "outputs": [
        {
          "internalType": "bool",
          "name": "",
          "type": "bool"
        }
      ],
      "stateMutability": "view",
      "type": "function"
    },
    {
      "inputs": [
        {
          "internalType": "address",
          "name": "",
          "type": "address"
        }
      ],
      "name": "listTeacher",
      "outputs": [
        {
          "internalType": "bool",
          "name": "",
          "type": "bool"
        }
      ],
      "stateMutability": "view",
      "type": "function"
    },
    {
      "inputs": [],
      "name": "mataPelajaranCounter",
      "outputs": [
        {
          "internalType": "uint256",
          "name": "",
          "type": "uint256"
        }
      ],
      "stateMutability": "view",
      "type": "function"
    },
    {
      "inputs": [
        {
          "internalType": "uint256",
          "name": "",
          "type": "uint256"
        }
      ],
      "name": "matapelajarans",
      "outputs": [
        {
          "internalType": "string",
          "name": "name",
          "type": "string"
        },
        {
          "internalType": "address",
          "name": "teacherAddress",
          "type": "address"
        }
      ],
      "stateMutability": "view",
      "type": "function"
    },
    {
      "inputs": [],
      "name": "studentCounter",
      "outputs": [
        {
          "internalType": "uint256",
          "name": "",
          "type": "uint256"
        }
      ],
      "stateMutability": "view",
      "type": "function"
    },
    {
      "inputs": [
        {
          "internalType": "address",
          "name": "",
          "type": "address"
        }
      ],
      "name": "students",
      "outputs": [
        {
          "internalType": "string",
          "name": "name",
          "type": "string"
        }
      ],
      "stateMutability": "view",
      "type": "function"
    },
    {
      "inputs": [],
      "name": "teacherCounter",
      "outputs": [
        {
          "internalType": "uint256",
          "name": "",
          "type": "uint256"
        }
      ],
      "stateMutability": "view",
      "type": "function"
    },
    {
      "inputs": [
        {
          "internalType": "address",
          "name": "",
          "type": "address"
        }
      ],
      "name": "teachers",
      "outputs": [
        {
          "internalType": "string",
          "name": "name",
          "type": "string"
        }
      ],
      "stateMutability": "view",
      "type": "function"
    }
  ],
  "bytecode": "0x608060405234801561001057600080fd5b50336000806101000a81548173ffffffffffffffffffffffffffffffffffffffff021916908373ffffffffffffffffffffffffffffffffffffffff1602179055506001600460003373ffffffffffffffffffffffffffffffffffffffff1673ffffffffffffffffffffffffffffffffffffffff16815260200190815260200160002060006101000a81548160ff021916908315150217905550612735806100b86000396000f3fe608060405234801561001057600080fd5b50600436106101165760003560e01c8063a6c807a9116100a2578063d5bb305d11610071578063d5bb305d14610316578063e3596cac14610334578063f0a47f7814610352578063f851a44014610382578063ffda656f146103a057610116565b8063a6c807a91461026a578063a9dafbe91461029a578063aa128c49146102ca578063cfb33395146102e657610116565b8063797201e5116100e9578063797201e5146101a15780637df674e5146101d15780637fcd6369146102025780638f5b9b2e1461021e5780639cf08cad1461023a57610116565b80634bc4fe8a1461011b5780635e8b80911461014b57806367c5ea85146101675780637194c5b314610183575b600080fd5b61013560048036038101906101309190611920565b6103d0565b6040516101429190611968565b60405180910390f35b61016560048036038101906101609190611ac9565b61052f565b005b610181600480360381019061017c9190611b5b565b6107c6565b005b61018b610a59565b6040516101989190611bbd565b60405180910390f35b6101bb60048036038101906101b69190611920565b610a5f565b6040516101c89190611968565b60405180910390f35b6101eb60048036038101906101e69190611bd8565b610a7f565b6040516101f9929190611c93565b60405180910390f35b61021c60048036038101906102179190611cc3565b610b4b565b005b61023860048036038101906102339190611ac9565b610dfa565b005b610254600480360381019061024f9190611920565b611031565b6040516102619190611968565b60405180910390f35b610284600480360381019061027f9190611920565b611051565b6040516102919190611d03565b60405180910390f35b6102b460048036038101906102af9190611d25565b6110f7565b6040516102c19190611bbd565b60405180910390f35b6102e460048036038101906102df9190611d65565b611346565b005b61030060048036038101906102fb9190611920565b6114f4565b60405161030d9190611968565b60405180910390f35b61031e611514565b60405161032b9190611bbd565b60405180910390f35b61033c61151a565b6040516103499190611bbd565b60405180910390f35b61036c60048036038101906103679190611920565b611520565b6040516103799190611d03565b60405180910390f35b61038a6115c6565b6040516103979190611dc1565b60405180910390f35b6103ba60048036038101906103b59190611bd8565b6115ea565b6040516103c79190611e9a565b60405180910390f35b60006104db6040518060400160405280600e81526020017f54656163686572204e616d653a20000000000000000000000000000000000000815250600160008573ffffffffffffffffffffffffffffffffffffffff1673ffffffffffffffffffffffffffffffffffffffff168152602001908152602001600020600001805461045890611eeb565b80601f016020809104026020016040519081016040528092919081815260200182805461048490611eeb565b80156104d15780601f106104a6576101008083540402835291602001916104d1565b820191906000526020600020905b8154815290600101906020018083116104b457829003601f168201915b50505050506117c2565b600560008373ffffffffffffffffffffffffffffffffffffffff1673ffffffffffffffffffffffffffffffffffffffff16815260200190815260200160002060009054906101000a900460ff169050919050565b8160001515600660008373ffffffffffffffffffffffffffffffffffffffff1673ffffffffffffffffffffffffffffffffffffffff16815260200190815260200160002060009054906101000a900460ff161515146105c3576040517f08c379a00000000000000000000000000000000000000000000000000000000081526004016105ba90611f8e565b60405180910390fd5b60011515600560003373ffffffffffffffffffffffffffffffffffffffff1673ffffffffffffffffffffffffffffffffffffffff16815260200190815260200160002060009054906101000a900460ff1615151480610672575060011515600460003373ffffffffffffffffffffffffffffffffffffffff1673ffffffffffffffffffffffffffffffffffffffff16815260200190815260200160002060009054906101000a900460ff161515145b6106b1576040517f08c379a00000000000000000000000000000000000000000000000000000000081526004016106a890611ffa565b60405180910390fd5b604051806020016040528083815250600260008573ffffffffffffffffffffffffffffffffffffffff1673ffffffffffffffffffffffffffffffffffffffff168152602001908152602001600020600082015181600001908161071491906121c6565b509050506001600660008573ffffffffffffffffffffffffffffffffffffffff1673ffffffffffffffffffffffffffffffffffffffff16815260200190815260200160002060006101000a81548160ff02191690831515021790555060086000815480929190610783906122c7565b91905055507f94a56de67dd66b06691e0bd81e5b57fbf02e3ce04576def9d15b6371a0109fd283836040516107b992919061230f565b60405180910390a1505050565b60011515600560003373ffffffffffffffffffffffffffffffffffffffff1673ffffffffffffffffffffffffffffffffffffffff16815260200190815260200160002060009054906101000a900460ff1615151480610875575060011515600460003373ffffffffffffffffffffffffffffffffffffffff1673ffffffffffffffffffffffffffffffffffffffff16815260200190815260200160002060009054906101000a900460ff161515145b6108b4576040517f08c379a00000000000000000000000000000000000000000000000000000000081526004016108ab90611ffa565b60405180910390fd5b6003600084815260200190815260200160002060010160009054906101000a900473ffffffffffffffffffffffffffffffffffffffff1673ffffffffffffffffffffffffffffffffffffffff163373ffffffffffffffffffffffffffffffffffffffff16148061096d5750600460003373ffffffffffffffffffffffffffffffffffffffff1673ffffffffffffffffffffffffffffffffffffffff16815260200190815260200160002060009054906101000a900460ff165b6109ac576040517f08c379a00000000000000000000000000000000000000000000000000000000081526004016109a39061238b565b60405180910390fd5b806003600085815260200190815260200160002060030160008473ffffffffffffffffffffffffffffffffffffffff1673ffffffffffffffffffffffffffffffffffffffff168152602001908152602001600020819055507f6dca3a3f0ad0084aa45ac903a74dad8451bc742f036de0182ef554a6a636fdf0826003600086815260200190815260200160002060000183604051610a4c9392919061242f565b60405180910390a1505050565b60075481565b60056020528060005260406000206000915054906101000a900460ff1681565b6003602052806000526040600020600091509050806000018054610aa290611eeb565b80601f0160208091040260200160405190810160405280929190818152602001828054610ace90611eeb565b8015610b1b5780601f10610af057610100808354040283529160200191610b1b565b820191906000526020600020905b815481529060010190602001808311610afe57829003601f168201915b5050505050908060010160009054906101000a900473ffffffffffffffffffffffffffffffffffffffff16905082565b60011515600560003373ffffffffffffffffffffffffffffffffffffffff1673ffffffffffffffffffffffffffffffffffffffff16815260200190815260200160002060009054906101000a900460ff1615151480610bfa575060011515600460003373ffffffffffffffffffffffffffffffffffffffff1673ffffffffffffffffffffffffffffffffffffffff16815260200190815260200160002060009054906101000a900460ff161515145b610c39576040517f08c379a0000000000000000000000000000000000000000000000000000000008152600401610c3090611ffa565b60405180910390fd5b6003600082815260200190815260200160002060010160009054906101000a900473ffffffffffffffffffffffffffffffffffffffff1673ffffffffffffffffffffffffffffffffffffffff163373ffffffffffffffffffffffffffffffffffffffff161480610cf25750600460003373ffffffffffffffffffffffffffffffffffffffff1673ffffffffffffffffffffffffffffffffffffffff16815260200190815260200160002060009054906101000a900460ff165b610d31576040517f08c379a0000000000000000000000000000000000000000000000000000000008152600401610d289061238b565b60405180910390fd5b60036000828152602001908152602001600020600201829080600181540180825580915050600190039060005260206000200160009091909190916101000a81548173ffffffffffffffffffffffffffffffffffffffff021916908373ffffffffffffffffffffffffffffffffffffffff1602179055507fe113aa050b8da447370c66aff62902eaadacd312e63b1ea81fdfc08fb08978488260036000848152602001908152602001600020600001604051610dee92919061246d565b60405180910390a15050565b8160001515600560008373ffffffffffffffffffffffffffffffffffffffff1673ffffffffffffffffffffffffffffffffffffffff16815260200190815260200160002060009054906101000a900460ff16151514610e8e576040517f08c379a0000000000000000000000000000000000000000000000000000000008152600401610e859061250f565b60405180910390fd5b60008054906101000a900473ffffffffffffffffffffffffffffffffffffffff1673ffffffffffffffffffffffffffffffffffffffff163373ffffffffffffffffffffffffffffffffffffffff1614610f1c576040517f08c379a0000000000000000000000000000000000000000000000000000000008152600401610f13906125a1565b60405180910390fd5b604051806020016040528083815250600160008573ffffffffffffffffffffffffffffffffffffffff1673ffffffffffffffffffffffffffffffffffffffff1681526020019081526020016000206000820151816000019081610f7f91906121c6565b509050506001600560008573ffffffffffffffffffffffffffffffffffffffff1673ffffffffffffffffffffffffffffffffffffffff16815260200190815260200160002060006101000a81548160ff02191690831515021790555060076000815480929190610fee906122c7565b91905055507f6996ba1536de57e4c72a268600ac97e3feae59f326494fce7dc56c6c6de959e3838360405161102492919061230f565b60405180910390a1505050565b60046020528060005260406000206000915054906101000a900460ff1681565b600260205280600052604060002060009150905080600001805461107490611eeb565b80601f01602080910402602001604051908101604052809291908181526020018280546110a090611eeb565b80156110ed5780601f106110c2576101008083540402835291602001916110ed565b820191906000526020600020905b8154815290600101906020018083116110d057829003601f168201915b5050505050905081565b600082600954811061113e576040517f08c379a00000000000000000000000000000000000000000000000000000000081526004016111359061260d565b60405180910390fd5b8260011515600660008373ffffffffffffffffffffffffffffffffffffffff1673ffffffffffffffffffffffffffffffffffffffff16815260200190815260200160002060009054906101000a900460ff161515146111d2576040517f08c379a00000000000000000000000000000000000000000000000000000000081526004016111c990612679565b60405180910390fd5b8373ffffffffffffffffffffffffffffffffffffffff163373ffffffffffffffffffffffffffffffffffffffff1614806112555750600460003373ffffffffffffffffffffffffffffffffffffffff1673ffffffffffffffffffffffffffffffffffffffff16815260200190815260200160002060009054906101000a900460ff165b806112a95750600560003373ffffffffffffffffffffffffffffffffffffffff1673ffffffffffffffffffffffffffffffffffffffff16815260200190815260200160002060009054906101000a900460ff165b6112e8576040517f08c379a00000000000000000000000000000000000000000000000000000000081526004016112df9061238b565b60405180910390fd5b6003600086815260200190815260200160002060030160008573ffffffffffffffffffffffffffffffffffffffff1673ffffffffffffffffffffffffffffffffffffffff168152602001908152602001600020549250505092915050565b60008054906101000a900473ffffffffffffffffffffffffffffffffffffffff1673ffffffffffffffffffffffffffffffffffffffff163373ffffffffffffffffffffffffffffffffffffffff16146113d4576040517f08c379a00000000000000000000000000000000000000000000000000000000081526004016113cb906125a1565b60405180910390fd5b8160036000600954815260200190815260200160002060000190816113f991906121c6565b508060036000600954815260200190815260200160002060010160006101000a81548173ffffffffffffffffffffffffffffffffffffffff021916908373ffffffffffffffffffffffffffffffffffffffff16021790555060096000815480929190611464906122c7565b91905055507f7646b8ac4e7fd0edb8c8c7f98d7a8e6b40c5c3ee848aebf0628fa72e08e61efa826040516114989190611d03565b60405180910390a17f666e55c8ba70beeafdf0c10f6d389a4fec2ce0f62e4e15f6b29ce3c114c12d1e816003600060095481526020019081526020016000206000016040516114e892919061246d565b60405180910390a15050565b60066020528060005260406000206000915054906101000a900460ff1681565b60095481565b60085481565b600160205280600052604060002060009150905080600001805461154390611eeb565b80601f016020809104026020016040519081016040528092919081815260200182805461156f90611eeb565b80156115bc5780601f10611591576101008083540402835291602001916115bc565b820191906000526020600020905b81548152906001019060200180831161159f57829003601f168201915b5050505050905081565b60008054906101000a900473ffffffffffffffffffffffffffffffffffffffff1681565b6060816009548110611631576040517f08c379a00000000000000000000000000000000000000000000000000000000081526004016116289061260d565b60405180910390fd5b60011515600560003373ffffffffffffffffffffffffffffffffffffffff1673ffffffffffffffffffffffffffffffffffffffff16815260200190815260200160002060009054906101000a900460ff16151514806116e0575060011515600460003373ffffffffffffffffffffffffffffffffffffffff1673ffffffffffffffffffffffffffffffffffffffff16815260200190815260200160002060009054906101000a900460ff161515145b61171f576040517f08c379a000000000000000000000000000000000000000000000000000000000815260040161171690611ffa565b60405180910390fd5b600360008481526020019081526020016000206002018054806020026020016040519081016040528092919081815260200182805480156117b557602002820191906000526020600020905b8160009054906101000a900473ffffffffffffffffffffffffffffffffffffffff1673ffffffffffffffffffffffffffffffffffffffff168152602001906001019080831161176b575b5050505050915050919050565b61185a82826040516024016117d8929190612699565b6040516020818303038152906040527f4b5c4277000000000000000000000000000000000000000000000000000000007bffffffffffffffffffffffffffffffffffffffffffffffffffffffff19166020820180517bffffffffffffffffffffffffffffffffffffffffffffffffffffffff838183161783525050505061185e565b5050565b6118758161186d611878611899565b63ffffffff16565b50565b60006a636f6e736f6c652e6c6f679050600080835160208501845afa505050565b6118a4819050919050565b6118ac6126d0565b565b6000604051905090565b600080fd5b600080fd5b600073ffffffffffffffffffffffffffffffffffffffff82169050919050565b60006118ed826118c2565b9050919050565b6118fd816118e2565b811461190857600080fd5b50565b60008135905061191a816118f4565b92915050565b600060208284031215611936576119356118b8565b5b60006119448482850161190b565b91505092915050565b60008115159050919050565b6119628161194d565b82525050565b600060208201905061197d6000830184611959565b92915050565b600080fd5b600080fd5b6000601f19601f8301169050919050565b7f4e487b7100000000000000000000000000000000000000000000000000000000600052604160045260246000fd5b6119d68261198d565b810181811067ffffffffffffffff821117156119f5576119f461199e565b5b80604052505050565b6000611a086118ae565b9050611a1482826119cd565b919050565b600067ffffffffffffffff821115611a3457611a3361199e565b5b611a3d8261198d565b9050602081019050919050565b82818337600083830152505050565b6000611a6c611a6784611a19565b6119fe565b905082815260208101848484011115611a8857611a87611988565b5b611a93848285611a4a565b509392505050565b600082601f830112611ab057611aaf611983565b5b8135611ac0848260208601611a59565b91505092915050565b60008060408385031215611ae057611adf6118b8565b5b6000611aee8582860161190b565b925050602083013567ffffffffffffffff811115611b0f57611b0e6118bd565b5b611b1b85828601611a9b565b9150509250929050565b6000819050919050565b611b3881611b25565b8114611b4357600080fd5b50565b600081359050611b5581611b2f565b92915050565b600080600060608486031215611b7457611b736118b8565b5b6000611b8286828701611b46565b9350506020611b938682870161190b565b9250506040611ba486828701611b46565b9150509250925092565b611bb781611b25565b82525050565b6000602082019050611bd26000830184611bae565b92915050565b600060208284031215611bee57611bed6118b8565b5b6000611bfc84828501611b46565b91505092915050565b600081519050919050565b600082825260208201905092915050565b60005b83811015611c3f578082015181840152602081019050611c24565b60008484015250505050565b6000611c5682611c05565b611c608185611c10565b9350611c70818560208601611c21565b611c798161198d565b840191505092915050565b611c8d816118e2565b82525050565b60006040820190508181036000830152611cad8185611c4b565b9050611cbc6020830184611c84565b9392505050565b60008060408385031215611cda57611cd96118b8565b5b6000611ce88582860161190b565b9250506020611cf985828601611b46565b9150509250929050565b60006020820190508181036000830152611d1d8184611c4b565b905092915050565b60008060408385031215611d3c57611d3b6118b8565b5b6000611d4a85828601611b46565b9250506020611d5b8582860161190b565b9150509250929050565b60008060408385031215611d7c57611d7b6118b8565b5b600083013567ffffffffffffffff811115611d9a57611d996118bd565b5b611da685828601611a9b565b9250506020611db78582860161190b565b9150509250929050565b6000602082019050611dd66000830184611c84565b92915050565b600081519050919050565b600082825260208201905092915050565b6000819050602082019050919050565b611e11816118e2565b82525050565b6000611e238383611e08565b60208301905092915050565b6000602082019050919050565b6000611e4782611ddc565b611e518185611de7565b9350611e5c83611df8565b8060005b83811015611e8d578151611e748882611e17565b9750611e7f83611e2f565b925050600181019050611e60565b5085935050505092915050565b60006020820190508181036000830152611eb48184611e3c565b905092915050565b7f4e487b7100000000000000000000000000000000000000000000000000000000600052602260045260246000fd5b60006002820490506001821680611f0357607f821691505b602082108103611f1657611f15611ebc565b5b50919050565b7f73747564656e74206164647265737320616c726561647920726567697374657260008201527f6564000000000000000000000000000000000000000000000000000000000000602082015250565b6000611f78602283611c10565b9150611f8382611f1c565b604082019050919050565b60006020820190508181036000830152611fa781611f6b565b9050919050565b7f41646472657373206973206e6f7420612074656163686572202f2061646d696e600082015250565b6000611fe4602083611c10565b9150611fef82611fae565b602082019050919050565b6000602082019050818103600083015261201381611fd7565b9050919050565b60008190508160005260206000209050919050565b60006020601f8301049050919050565b600082821b905092915050565b60006008830261207c7fffffffffffffffffffffffffffffffffffffffffffffffffffffffffffffffff8261203f565b612086868361203f565b95508019841693508086168417925050509392505050565b6000819050919050565b60006120c36120be6120b984611b25565b61209e565b611b25565b9050919050565b6000819050919050565b6120dd836120a8565b6120f16120e9826120ca565b84845461204c565b825550505050565b600090565b6121066120f9565b6121118184846120d4565b505050565b5b818110156121355761212a6000826120fe565b600181019050612117565b5050565b601f82111561217a5761214b8161201a565b6121548461202f565b81016020851015612163578190505b61217761216f8561202f565b830182612116565b50505b505050565b600082821c905092915050565b600061219d6000198460080261217f565b1980831691505092915050565b60006121b6838361218c565b9150826002028217905092915050565b6121cf82611c05565b67ffffffffffffffff8111156121e8576121e761199e565b5b6121f28254611eeb565b6121fd828285612139565b600060209050601f831160018114612230576000841561221e578287015190505b61222885826121aa565b865550612290565b601f19841661223e8661201a565b60005b8281101561226657848901518255600182019150602085019450602081019050612241565b86831015612283578489015161227f601f89168261218c565b8355505b6001600288020188555050505b505050505050565b7f4e487b7100000000000000000000000000000000000000000000000000000000600052601160045260246000fd5b60006122d282611b25565b91507fffffffffffffffffffffffffffffffffffffffffffffffffffffffffffffffff820361230457612303612298565b5b600182019050919050565b60006040820190506123246000830185611c84565b81810360208301526123368184611c4b565b90509392505050565b7f41646472657373206973206e6f7420617574686f72697a656400000000000000600082015250565b6000612375601983611c10565b91506123808261233f565b602082019050919050565b600060208201905081810360008301526123a481612368565b9050919050565b600081546123b881611eeb565b6123c28186611c10565b945060018216600081146123dd57600181146123f357612426565b60ff198316865281151560200286019350612426565b6123fc8561201a565b60005b8381101561241e578154818901526001820191506020810190506123ff565b808801955050505b50505092915050565b60006060820190506124446000830186611c84565b818103602083015261245681856123ab565b90506124656040830184611bae565b949350505050565b60006040820190506124826000830185611c84565b818103602083015261249481846123ab565b90509392505050565b7f74656163686572206164647265737320616c726561647920726567697374657260008201527f6564000000000000000000000000000000000000000000000000000000000000602082015250565b60006124f9602283611c10565b91506125048261249d565b604082019050919050565b60006020820190508181036000830152612528816124ec565b9050919050565b7f4f6e6c792061646d696e2063616e2063616c6c20746869732066756e6374696f60008201527f6e00000000000000000000000000000000000000000000000000000000000000602082015250565b600061258b602183611c10565b91506125968261252f565b604082019050919050565b600060208201905081810360008301526125ba8161257e565b9050919050565b7f6d6174612070656c616a6172616e20646f6573206e6f74206578697374000000600082015250565b60006125f7601d83611c10565b9150612602826125c1565b602082019050919050565b60006020820190508181036000830152612626816125ea565b9050919050565b7f73747564656e7420646f6573206e6f7420657869737400000000000000000000600082015250565b6000612663601683611c10565b915061266e8261262d565b602082019050919050565b6000602082019050818103600083015261269281612656565b9050919050565b600060408201905081810360008301526126b38185611c4b565b905081810360208301526126c78184611c4b565b90509392505050565b7f4e487b7100000000000000000000000000000000000000000000000000000000600052605160045260246000fdfea26469706673582212203be70dfb1fd13b73f7a7dc04161ab32c58d5cc3859ef319e87c529b5e587a3f864736f6c63430008180033",
  "linkReferences": {},
  "deployedLinkReferences": {}
}