{
  "_format": "hh-sol-artifact-1",
  "contractName": "SchoolManagement",
  "sourceName": "contracts/SchoolManagement.sol",
  "abi": [
    {
      "inputs": [],
      "stateMutability": "nonpayable",
      "type": "constructor"
    },
    {
      "anonymous": false,
      "inputs": [
        {
          "indexed": false,
          "internalType": "string",
          "name": "namaMataPelajaran",
          "type": "string"
        }
      ],
      "name": "mataPelajaranAdded",
      "type": "event"
    },
    {
      "anonymous": false,
      "inputs": [
        {
          "indexed": false,
          "internalType": "address",
          "name": "_studentAddress",
          "type": "address"
        },
        {
          "indexed": false,
          "internalType": "string",
          "name": "namaMataPelajaran",
          "type": "string"
        },
        {
          "indexed": false,
          "internalType": "uint256",
          "name": "score",
          "type": "uint256"
        }
      ],
      "name": "scoreAdded",
      "type": "event"
    },
    {
      "anonymous": false,
      "inputs": [
        {
          "indexed": false,
          "internalType": "address",
          "name": "_studentAddress",
          "type": "address"
        },
        {
          "indexed": false,
          "internalType": "string",
          "name": "studentName",
          "type": "string"
        }
      ],
      "name": "studentAdded",
      "type": "event"
    },
    {
      "anonymous": false,
      "inputs": [
        {
          "indexed": false,
          "internalType": "address",
          "name": "_studentAddress",
          "type": "address"
        },
        {
          "indexed": false,
          "internalType": "string",
          "name": "namaMataPelajaran",
          "type": "string"
        }
      ],
      "name": "studentPelajaranAdded",
      "type": "event"
    },
    {
      "anonymous": false,
      "inputs": [
        {
          "indexed": false,
          "internalType": "address",
          "name": "_teacherAddress",
          "type": "address"
        },
        {
          "indexed": false,
          "internalType": "string",
          "name": "teacherName",
          "type": "string"
        }
      ],
      "name": "teacherAdded",
      "type": "event"
    },
    {
      "anonymous": false,
      "inputs": [
        {
          "indexed": false,
          "internalType": "address",
          "name": "_teacherAddress",
          "type": "address"
        },
        {
          "indexed": false,
          "internalType": "string",
          "name": "namaMataPelajaran",
          "type": "string"
        }
      ],
      "name": "teacherPelajaranAdded",
      "type": "event"
    },
    {
      "inputs": [
        {
          "internalType": "string",
          "name": "_name",
          "type": "string"
        }
      ],
      "name": "addMataPelajaran",
      "outputs": [],
      "stateMutability": "nonpayable",
      "type": "function"
    },
    {
      "inputs": [
        {
          "internalType": "uint256",
          "name": "_matapelajaranID",
          "type": "uint256"
        },
        {
          "internalType": "address",
          "name": "addr",
          "type": "address"
        },
        {
          "internalType": "uint256",
          "name": "_score",
          "type": "uint256"
        }
      ],
      "name": "addScore",
      "outputs": [],
      "stateMutability": "nonpayable",
      "type": "function"
    },
    {
      "inputs": [
        {
          "internalType": "address",
          "name": "addr",
          "type": "address"
        },
        {
          "internalType": "string",
          "name": "_name",
          "type": "string"
        }
      ],
      "name": "addStudent",
      "outputs": [],
      "stateMutability": "nonpayable",
      "type": "function"
    },
    {
      "inputs": [
        {
          "internalType": "address",
          "name": "addr",
          "type": "address"
        },
        {
          "internalType": "uint256",
          "name": "_matapelajaranID",
          "type": "uint256"
        }
      ],
      "name": "addStudentPelajaran",
      "outputs": [],
      "stateMutability": "nonpayable",
      "type": "function"
    },
    {
      "inputs": [
        {
          "internalType": "address",
          "name": "addr",
          "type": "address"
        },
        {
          "internalType": "string",
          "name": "_name",
          "type": "string"
        }
      ],
      "name": "addTeacher",
      "outputs": [],
      "stateMutability": "nonpayable",
      "type": "function"
    },
    {
      "inputs": [
        {
          "internalType": "address",
          "name": "addr",
          "type": "address"
        },
        {
          "internalType": "uint256",
          "name": "_matapelajaranID",
          "type": "uint256"
        }
      ],
      "name": "addTeacherPelajaran",
      "outputs": [],
      "stateMutability": "nonpayable",
      "type": "function"
    },
    {
      "inputs": [],
      "name": "admin",
      "outputs": [
        {
          "internalType": "address",
          "name": "",
          "type": "address"
        }
      ],
      "stateMutability": "view",
      "type": "function"
    },
    {
      "inputs": [
        {
          "internalType": "uint256",
          "name": "_matapelajaranID",
          "type": "uint256"
        }
      ],
      "name": "getMataPelajaranStudents",
      "outputs": [
        {
          "internalType": "address[]",
          "name": "",
          "type": "address[]"
        }
      ],
      "stateMutability": "view",
      "type": "function"
    },
    {
      "inputs": [
        {
          "internalType": "uint256",
          "name": "_matapelajaranID",
          "type": "uint256"
        },
        {
          "internalType": "address",
          "name": "addr",
          "type": "address"
        }
      ],
      "name": "getStudentScore",
      "outputs": [
        {
          "internalType": "uint256",
          "name": "",
          "type": "uint256"
        }
      ],
      "stateMutability": "view",
      "type": "function"
    },
    {
      "inputs": [
        {
          "internalType": "address",
          "name": "",
          "type": "address"
        }
      ],
      "name": "listAdmin",
      "outputs": [
        {
          "internalType": "bool",
          "name": "",
          "type": "bool"
        }
      ],
      "stateMutability": "view",
      "type": "function"
    },
    {
      "inputs": [
        {
          "internalType": "address",
          "name": "",
          "type": "address"
        }
      ],
      "name": "listStudent",
      "outputs": [
        {
          "internalType": "bool",
          "name": "",
          "type": "bool"
        }
      ],
      "stateMutability": "view",
      "type": "function"
    },
    {
      "inputs": [
        {
          "internalType": "address",
          "name": "",
          "type": "address"
        }
      ],
      "name": "listTeacher",
      "outputs": [
        {
          "internalType": "bool",
          "name": "",
          "type": "bool"
        }
      ],
      "stateMutability": "view",
      "type": "function"
    },
    {
      "inputs": [],
      "name": "mataPelajaranCounter",
      "outputs": [
        {
          "internalType": "uint256",
          "name": "",
          "type": "uint256"
        }
      ],
      "stateMutability": "view",
      "type": "function"
    },
    {
      "inputs": [
        {
          "internalType": "uint256",
          "name": "",
          "type": "uint256"
        }
      ],
      "name": "matapelajarans",
      "outputs": [
        {
          "internalType": "string",
          "name": "name",
          "type": "string"
        },
        {
          "internalType": "address",
          "name": "teacherAddress",
          "type": "address"
        }
      ],
      "stateMutability": "view",
      "type": "function"
    },
    {
      "inputs": [],
      "name": "studentCounter",
      "outputs": [
        {
          "internalType": "uint256",
          "name": "",
          "type": "uint256"
        }
      ],
      "stateMutability": "view",
      "type": "function"
    },
    {
      "inputs": [
        {
          "internalType": "address",
          "name": "",
          "type": "address"
        }
      ],
      "name": "students",
      "outputs": [
        {
          "internalType": "string",
          "name": "name",
          "type": "string"
        }
      ],
      "stateMutability": "view",
      "type": "function"
    },
    {
      "inputs": [],
      "name": "teacherCounter",
      "outputs": [
        {
          "internalType": "uint256",
          "name": "",
          "type": "uint256"
        }
      ],
      "stateMutability": "view",
      "type": "function"
    },
    {
      "inputs": [
        {
          "internalType": "address",
          "name": "",
          "type": "address"
        }
      ],
      "name": "teachers",
      "outputs": [
        {
          "internalType": "string",
          "name": "name",
          "type": "string"
        }
      ],
      "stateMutability": "view",
      "type": "function"
    }
  ],
  "bytecode": "0x608060405234801561001057600080fd5b50336000806101000a81548173ffffffffffffffffffffffffffffffffffffffff021916908373ffffffffffffffffffffffffffffffffffffffff1602179055506001600460003373ffffffffffffffffffffffffffffffffffffffff1673ffffffffffffffffffffffffffffffffffffffff16815260200190815260200160002060006101000a81548160ff02191690831515021790555061245c806100b86000396000f3fe608060405234801561001057600080fd5b50600436106101165760003560e01c8063a6c807a9116100a2578063d5bb305d11610071578063d5bb305d14610302578063e3596cac14610320578063f0a47f781461033e578063f851a4401461036e578063ffda656f1461038c57610116565b8063a6c807a914610256578063a9dafbe914610286578063bfc21cb8146102b6578063cfb33395146102d257610116565b8063797201e5116100e9578063797201e51461018d5780637df674e5146101bd5780637fcd6369146101ee5780638f5b9b2e1461020a5780639cf08cad1461022657610116565b80634ae564d51461011b5780635e8b80911461013757806367c5ea85146101535780637194c5b31461016f575b600080fd5b610135600480360381019061013091906116f6565b6103bc565b005b610151600480360381019061014c919061187c565b6104f1565b005b61016d600480360381019061016891906118d8565b610788565b005b610177610a1b565b604051610184919061193a565b60405180910390f35b6101a760048036038101906101a29190611955565b610a21565b6040516101b4919061199d565b60405180910390f35b6101d760048036038101906101d291906119b8565b610a41565b6040516101e5929190611a73565b60405180910390f35b610208600480360381019061020391906116f6565b610b0d565b005b610224600480360381019061021f919061187c565b610dbc565b005b610240600480360381019061023b9190611955565b610ff3565b60405161024d919061199d565b60405180910390f35b610270600480360381019061026b9190611955565b611013565b60405161027d9190611aa3565b60405180910390f35b6102a0600480360381019061029b9190611ac5565b6110b9565b6040516102ad919061193a565b60405180910390f35b6102d060048036038101906102cb9190611b05565b611308565b005b6102ec60048036038101906102e79190611955565b611380565b6040516102f9919061199d565b60405180910390f35b61030a6113a0565b604051610317919061193a565b60405180910390f35b6103286113a6565b604051610335919061193a565b60405180910390f35b61035860048036038101906103539190611955565b6113ac565b6040516103659190611aa3565b60405180910390f35b610376611452565b6040516103839190611b4e565b60405180910390f35b6103a660048036038101906103a191906119b8565b611476565b6040516103b39190611c27565b60405180910390f35b60008054906101000a900473ffffffffffffffffffffffffffffffffffffffff1673ffffffffffffffffffffffffffffffffffffffff163373ffffffffffffffffffffffffffffffffffffffff161461044a576040517f08c379a000000000000000000000000000000000000000000000000000000000815260040161044190611cbb565b60405180910390fd5b816003600083815260200190815260200160002060010160006101000a81548173ffffffffffffffffffffffffffffffffffffffff021916908373ffffffffffffffffffffffffffffffffffffffff1602179055507f666e55c8ba70beeafdf0c10f6d389a4fec2ce0f62e4e15f6b29ce3c114c12d1e82600360008481526020019081526020016000206000016040516104e5929190611dd4565b60405180910390a15050565b8160001515600660008373ffffffffffffffffffffffffffffffffffffffff1673ffffffffffffffffffffffffffffffffffffffff16815260200190815260200160002060009054906101000a900460ff16151514610585576040517f08c379a000000000000000000000000000000000000000000000000000000000815260040161057c90611e76565b60405180910390fd5b60011515600560003373ffffffffffffffffffffffffffffffffffffffff1673ffffffffffffffffffffffffffffffffffffffff16815260200190815260200160002060009054906101000a900460ff1615151480610634575060011515600460003373ffffffffffffffffffffffffffffffffffffffff1673ffffffffffffffffffffffffffffffffffffffff16815260200190815260200160002060009054906101000a900460ff161515145b610673576040517f08c379a000000000000000000000000000000000000000000000000000000000815260040161066a90611ee2565b60405180910390fd5b604051806020016040528083815250600260008573ffffffffffffffffffffffffffffffffffffffff1673ffffffffffffffffffffffffffffffffffffffff16815260200190815260200160002060008201518160000190816106d69190612099565b509050506001600660008573ffffffffffffffffffffffffffffffffffffffff1673ffffffffffffffffffffffffffffffffffffffff16815260200190815260200160002060006101000a81548160ff021916908315150217905550600860008154809291906107459061219a565b91905055507f94a56de67dd66b06691e0bd81e5b57fbf02e3ce04576def9d15b6371a0109fd2838360405161077b9291906121e2565b60405180910390a1505050565b60011515600560003373ffffffffffffffffffffffffffffffffffffffff1673ffffffffffffffffffffffffffffffffffffffff16815260200190815260200160002060009054906101000a900460ff1615151480610837575060011515600460003373ffffffffffffffffffffffffffffffffffffffff1673ffffffffffffffffffffffffffffffffffffffff16815260200190815260200160002060009054906101000a900460ff161515145b610876576040517f08c379a000000000000000000000000000000000000000000000000000000000815260040161086d90611ee2565b60405180910390fd5b6003600084815260200190815260200160002060010160009054906101000a900473ffffffffffffffffffffffffffffffffffffffff1673ffffffffffffffffffffffffffffffffffffffff163373ffffffffffffffffffffffffffffffffffffffff16148061092f5750600460003373ffffffffffffffffffffffffffffffffffffffff1673ffffffffffffffffffffffffffffffffffffffff16815260200190815260200160002060009054906101000a900460ff165b61096e576040517f08c379a00000000000000000000000000000000000000000000000000000000081526004016109659061225e565b60405180910390fd5b806003600085815260200190815260200160002060030160008473ffffffffffffffffffffffffffffffffffffffff1673ffffffffffffffffffffffffffffffffffffffff168152602001908152602001600020819055507f6dca3a3f0ad0084aa45ac903a74dad8451bc742f036de0182ef554a6a636fdf0826003600086815260200190815260200160002060000183604051610a0e9392919061227e565b60405180910390a1505050565b60075481565b60056020528060005260406000206000915054906101000a900460ff1681565b6003602052806000526040600020600091509050806000018054610a6490611d0a565b80601f0160208091040260200160405190810160405280929190818152602001828054610a9090611d0a565b8015610add5780601f10610ab257610100808354040283529160200191610add565b820191906000526020600020905b815481529060010190602001808311610ac057829003601f168201915b5050505050908060010160009054906101000a900473ffffffffffffffffffffffffffffffffffffffff16905082565b60011515600560003373ffffffffffffffffffffffffffffffffffffffff1673ffffffffffffffffffffffffffffffffffffffff16815260200190815260200160002060009054906101000a900460ff1615151480610bbc575060011515600460003373ffffffffffffffffffffffffffffffffffffffff1673ffffffffffffffffffffffffffffffffffffffff16815260200190815260200160002060009054906101000a900460ff161515145b610bfb576040517f08c379a0000000000000000000000000000000000000000000000000000000008152600401610bf290611ee2565b60405180910390fd5b6003600082815260200190815260200160002060010160009054906101000a900473ffffffffffffffffffffffffffffffffffffffff1673ffffffffffffffffffffffffffffffffffffffff163373ffffffffffffffffffffffffffffffffffffffff161480610cb45750600460003373ffffffffffffffffffffffffffffffffffffffff1673ffffffffffffffffffffffffffffffffffffffff16815260200190815260200160002060009054906101000a900460ff165b610cf3576040517f08c379a0000000000000000000000000000000000000000000000000000000008152600401610cea9061225e565b60405180910390fd5b60036000828152602001908152602001600020600201829080600181540180825580915050600190039060005260206000200160009091909190916101000a81548173ffffffffffffffffffffffffffffffffffffffff021916908373ffffffffffffffffffffffffffffffffffffffff1602179055507fe113aa050b8da447370c66aff62902eaadacd312e63b1ea81fdfc08fb08978488260036000848152602001908152602001600020600001604051610db0929190611dd4565b60405180910390a15050565b8160001515600560008373ffffffffffffffffffffffffffffffffffffffff1673ffffffffffffffffffffffffffffffffffffffff16815260200190815260200160002060009054906101000a900460ff16151514610e50576040517f08c379a0000000000000000000000000000000000000000000000000000000008152600401610e479061232e565b60405180910390fd5b60008054906101000a900473ffffffffffffffffffffffffffffffffffffffff1673ffffffffffffffffffffffffffffffffffffffff163373ffffffffffffffffffffffffffffffffffffffff1614610ede576040517f08c379a0000000000000000000000000000000000000000000000000000000008152600401610ed590611cbb565b60405180910390fd5b604051806020016040528083815250600160008573ffffffffffffffffffffffffffffffffffffffff1673ffffffffffffffffffffffffffffffffffffffff1681526020019081526020016000206000820151816000019081610f419190612099565b509050506001600560008573ffffffffffffffffffffffffffffffffffffffff1673ffffffffffffffffffffffffffffffffffffffff16815260200190815260200160002060006101000a81548160ff02191690831515021790555060076000815480929190610fb09061219a565b91905055507f6996ba1536de57e4c72a268600ac97e3feae59f326494fce7dc56c6c6de959e38383604051610fe69291906121e2565b60405180910390a1505050565b60046020528060005260406000206000915054906101000a900460ff1681565b600260205280600052604060002060009150905080600001805461103690611d0a565b80601f016020809104026020016040519081016040528092919081815260200182805461106290611d0a565b80156110af5780601f10611084576101008083540402835291602001916110af565b820191906000526020600020905b81548152906001019060200180831161109257829003601f168201915b5050505050905081565b6000826009548110611100576040517f08c379a00000000000000000000000000000000000000000000000000000000081526004016110f79061239a565b60405180910390fd5b8260011515600660008373ffffffffffffffffffffffffffffffffffffffff1673ffffffffffffffffffffffffffffffffffffffff16815260200190815260200160002060009054906101000a900460ff16151514611194576040517f08c379a000000000000000000000000000000000000000000000000000000000815260040161118b90612406565b60405180910390fd5b8373ffffffffffffffffffffffffffffffffffffffff163373ffffffffffffffffffffffffffffffffffffffff1614806112175750600460003373ffffffffffffffffffffffffffffffffffffffff1673ffffffffffffffffffffffffffffffffffffffff16815260200190815260200160002060009054906101000a900460ff165b8061126b5750600560003373ffffffffffffffffffffffffffffffffffffffff1673ffffffffffffffffffffffffffffffffffffffff16815260200190815260200160002060009054906101000a900460ff165b6112aa576040517f08c379a00000000000000000000000000000000000000000000000000000000081526004016112a19061225e565b60405180910390fd5b6003600086815260200190815260200160002060030160008573ffffffffffffffffffffffffffffffffffffffff1673ffffffffffffffffffffffffffffffffffffffff168152602001908152602001600020549250505092915050565b80600360006009548152602001908152602001600020600001908161132d9190612099565b50600960008154809291906113419061219a565b91905055507f7646b8ac4e7fd0edb8c8c7f98d7a8e6b40c5c3ee848aebf0628fa72e08e61efa816040516113759190611aa3565b60405180910390a150565b60066020528060005260406000206000915054906101000a900460ff1681565b60095481565b60085481565b60016020528060005260406000206000915090508060000180546113cf90611d0a565b80601f01602080910402602001604051908101604052809291908181526020018280546113fb90611d0a565b80156114485780601f1061141d57610100808354040283529160200191611448565b820191906000526020600020905b81548152906001019060200180831161142b57829003601f168201915b5050505050905081565b60008054906101000a900473ffffffffffffffffffffffffffffffffffffffff1681565b60608160095481106114bd576040517f08c379a00000000000000000000000000000000000000000000000000000000081526004016114b49061239a565b60405180910390fd5b60011515600560003373ffffffffffffffffffffffffffffffffffffffff1673ffffffffffffffffffffffffffffffffffffffff16815260200190815260200160002060009054906101000a900460ff161515148061156c575060011515600460003373ffffffffffffffffffffffffffffffffffffffff1673ffffffffffffffffffffffffffffffffffffffff16815260200190815260200160002060009054906101000a900460ff161515145b6115ab576040517f08c379a00000000000000000000000000000000000000000000000000000000081526004016115a290611ee2565b60405180910390fd5b6003600084815260200190815260200160002060020180548060200260200160405190810160405280929190818152602001828054801561164157602002820191906000526020600020905b8160009054906101000a900473ffffffffffffffffffffffffffffffffffffffff1673ffffffffffffffffffffffffffffffffffffffff16815260200190600101908083116115f7575b5050505050915050919050565b6000604051905090565b600080fd5b600080fd5b600073ffffffffffffffffffffffffffffffffffffffff82169050919050565b600061168d82611662565b9050919050565b61169d81611682565b81146116a857600080fd5b50565b6000813590506116ba81611694565b92915050565b6000819050919050565b6116d3816116c0565b81146116de57600080fd5b50565b6000813590506116f0816116ca565b92915050565b6000806040838503121561170d5761170c611658565b5b600061171b858286016116ab565b925050602061172c858286016116e1565b9150509250929050565b600080fd5b600080fd5b6000601f19601f8301169050919050565b7f4e487b7100000000000000000000000000000000000000000000000000000000600052604160045260246000fd5b61178982611740565b810181811067ffffffffffffffff821117156117a8576117a7611751565b5b80604052505050565b60006117bb61164e565b90506117c78282611780565b919050565b600067ffffffffffffffff8211156117e7576117e6611751565b5b6117f082611740565b9050602081019050919050565b82818337600083830152505050565b600061181f61181a846117cc565b6117b1565b90508281526020810184848401111561183b5761183a61173b565b5b6118468482856117fd565b509392505050565b600082601f83011261186357611862611736565b5b813561187384826020860161180c565b91505092915050565b6000806040838503121561189357611892611658565b5b60006118a1858286016116ab565b925050602083013567ffffffffffffffff8111156118c2576118c161165d565b5b6118ce8582860161184e565b9150509250929050565b6000806000606084860312156118f1576118f0611658565b5b60006118ff868287016116e1565b9350506020611910868287016116ab565b9250506040611921868287016116e1565b9150509250925092565b611934816116c0565b82525050565b600060208201905061194f600083018461192b565b92915050565b60006020828403121561196b5761196a611658565b5b6000611979848285016116ab565b91505092915050565b60008115159050919050565b61199781611982565b82525050565b60006020820190506119b2600083018461198e565b92915050565b6000602082840312156119ce576119cd611658565b5b60006119dc848285016116e1565b91505092915050565b600081519050919050565b600082825260208201905092915050565b60005b83811015611a1f578082015181840152602081019050611a04565b60008484015250505050565b6000611a36826119e5565b611a4081856119f0565b9350611a50818560208601611a01565b611a5981611740565b840191505092915050565b611a6d81611682565b82525050565b60006040820190508181036000830152611a8d8185611a2b565b9050611a9c6020830184611a64565b9392505050565b60006020820190508181036000830152611abd8184611a2b565b905092915050565b60008060408385031215611adc57611adb611658565b5b6000611aea858286016116e1565b9250506020611afb858286016116ab565b9150509250929050565b600060208284031215611b1b57611b1a611658565b5b600082013567ffffffffffffffff811115611b3957611b3861165d565b5b611b458482850161184e565b91505092915050565b6000602082019050611b636000830184611a64565b92915050565b600081519050919050565b600082825260208201905092915050565b6000819050602082019050919050565b611b9e81611682565b82525050565b6000611bb08383611b95565b60208301905092915050565b6000602082019050919050565b6000611bd482611b69565b611bde8185611b74565b9350611be983611b85565b8060005b83811015611c1a578151611c018882611ba4565b9750611c0c83611bbc565b925050600181019050611bed565b5085935050505092915050565b60006020820190508181036000830152611c418184611bc9565b905092915050565b7f4f6e6c792061646d696e2063616e2063616c6c20746869732066756e6374696f60008201527f6e00000000000000000000000000000000000000000000000000000000000000602082015250565b6000611ca56021836119f0565b9150611cb082611c49565b604082019050919050565b60006020820190508181036000830152611cd481611c98565b9050919050565b7f4e487b7100000000000000000000000000000000000000000000000000000000600052602260045260246000fd5b60006002820490506001821680611d2257607f821691505b602082108103611d3557611d34611cdb565b5b50919050565b60008190508160005260206000209050919050565b60008154611d5d81611d0a565b611d6781866119f0565b94506001821660008114611d825760018114611d9857611dcb565b60ff198316865281151560200286019350611dcb565b611da185611d3b565b60005b83811015611dc357815481890152600182019150602081019050611da4565b808801955050505b50505092915050565b6000604082019050611de96000830185611a64565b8181036020830152611dfb8184611d50565b90509392505050565b7f73747564656e74206164647265737320616c726561647920726567697374657260008201527f6564000000000000000000000000000000000000000000000000000000000000602082015250565b6000611e606022836119f0565b9150611e6b82611e04565b604082019050919050565b60006020820190508181036000830152611e8f81611e53565b9050919050565b7f41646472657373206973206e6f7420612074656163686572202f2061646d696e600082015250565b6000611ecc6020836119f0565b9150611ed782611e96565b602082019050919050565b60006020820190508181036000830152611efb81611ebf565b9050919050565b60006020601f8301049050919050565b600082821b905092915050565b600060088302611f4f7fffffffffffffffffffffffffffffffffffffffffffffffffffffffffffffffff82611f12565b611f598683611f12565b95508019841693508086168417925050509392505050565b6000819050919050565b6000611f96611f91611f8c846116c0565b611f71565b6116c0565b9050919050565b6000819050919050565b611fb083611f7b565b611fc4611fbc82611f9d565b848454611f1f565b825550505050565b600090565b611fd9611fcc565b611fe4818484611fa7565b505050565b5b8181101561200857611ffd600082611fd1565b600181019050611fea565b5050565b601f82111561204d5761201e81611d3b565b61202784611f02565b81016020851015612036578190505b61204a61204285611f02565b830182611fe9565b50505b505050565b600082821c905092915050565b600061207060001984600802612052565b1980831691505092915050565b6000612089838361205f565b9150826002028217905092915050565b6120a2826119e5565b67ffffffffffffffff8111156120bb576120ba611751565b5b6120c58254611d0a565b6120d082828561200c565b600060209050601f83116001811461210357600084156120f1578287015190505b6120fb858261207d565b865550612163565b601f19841661211186611d3b565b60005b8281101561213957848901518255600182019150602085019450602081019050612114565b868310156121565784890151612152601f89168261205f565b8355505b6001600288020188555050505b505050505050565b7f4e487b7100000000000000000000000000000000000000000000000000000000600052601160045260246000fd5b60006121a5826116c0565b91507fffffffffffffffffffffffffffffffffffffffffffffffffffffffffffffffff82036121d7576121d661216b565b5b600182019050919050565b60006040820190506121f76000830185611a64565b81810360208301526122098184611a2b565b90509392505050565b7f41646472657373206973206e6f7420617574686f72697a656400000000000000600082015250565b60006122486019836119f0565b915061225382612212565b602082019050919050565b600060208201905081810360008301526122778161223b565b9050919050565b60006060820190506122936000830186611a64565b81810360208301526122a58185611d50565b90506122b4604083018461192b565b949350505050565b7f74656163686572206164647265737320616c726561647920726567697374657260008201527f6564000000000000000000000000000000000000000000000000000000000000602082015250565b60006123186022836119f0565b9150612323826122bc565b604082019050919050565b600060208201905081810360008301526123478161230b565b9050919050565b7f6d6174612070656c616a6172616e20646f6573206e6f74206578697374000000600082015250565b6000612384601d836119f0565b915061238f8261234e565b602082019050919050565b600060208201905081810360008301526123b381612377565b9050919050565b7f73747564656e7420646f6573206e6f7420657869737400000000000000000000600082015250565b60006123f06016836119f0565b91506123fb826123ba565b602082019050919050565b6000602082019050818103600083015261241f816123e3565b905091905056fea26469706673582212200c0caf74a95d52d7a50b1b01d6719f91a87994e3361d27bc3570b82bf427048b64736f6c63430008180033",
  "linkReferences": {},
  "deployedLinkReferences": {}
}