{
  "_format": "hh-sol-artifact-1",
  "contractName": "SchoolManagement",
  "sourceName": "contracts/SchoolManagement.sol",
  "abi": [
    {
      "inputs": [],
      "stateMutability": "nonpayable",
      "type": "constructor"
    },
    {
      "anonymous": false,
      "inputs": [
        {
          "indexed": false,
          "internalType": "string",
          "name": "namaMataPelajaran",
          "type": "string"
        }
      ],
      "name": "mataPelajaranAdded",
      "type": "event"
    },
    {
      "anonymous": false,
      "inputs": [
        {
          "indexed": false,
          "internalType": "address",
          "name": "_studentAddress",
          "type": "address"
        },
        {
          "indexed": false,
          "internalType": "string",
          "name": "namaMataPelajaran",
          "type": "string"
        },
        {
          "indexed": false,
          "internalType": "uint256",
          "name": "score",
          "type": "uint256"
        }
      ],
      "name": "scoreAdded",
      "type": "event"
    },
    {
      "anonymous": false,
      "inputs": [
        {
          "indexed": false,
          "internalType": "address",
          "name": "_studentAddress",
          "type": "address"
        },
        {
          "indexed": false,
          "internalType": "string",
          "name": "studentName",
          "type": "string"
        }
      ],
      "name": "studentAdded",
      "type": "event"
    },
    {
      "anonymous": false,
      "inputs": [
        {
          "indexed": false,
          "internalType": "address",
          "name": "_studentAddress",
          "type": "address"
        },
        {
          "indexed": false,
          "internalType": "string",
          "name": "namaMataPelajaran",
          "type": "string"
        }
      ],
      "name": "studentPelajaranAdded",
      "type": "event"
    },
    {
      "anonymous": false,
      "inputs": [
        {
          "indexed": false,
          "internalType": "address",
          "name": "_teacherAddress",
          "type": "address"
        },
        {
          "indexed": false,
          "internalType": "string",
          "name": "teacherName",
          "type": "string"
        }
      ],
      "name": "teacherAdded",
      "type": "event"
    },
    {
      "anonymous": false,
      "inputs": [
        {
          "indexed": false,
          "internalType": "address",
          "name": "_teacherAddress",
          "type": "address"
        },
        {
          "indexed": false,
          "internalType": "string",
          "name": "namaMataPelajaran",
          "type": "string"
        }
      ],
      "name": "teacherPelajaranAdded",
      "type": "event"
    },
    {
      "inputs": [
        {
          "internalType": "string",
          "name": "_name",
          "type": "string"
        },
        {
          "internalType": "address",
          "name": "addr",
          "type": "address"
        }
      ],
      "name": "addMataPelajaran",
      "outputs": [],
      "stateMutability": "nonpayable",
      "type": "function"
    },
    {
      "inputs": [
        {
          "internalType": "uint256",
          "name": "_matapelajaranID",
          "type": "uint256"
        },
        {
          "internalType": "address",
          "name": "addr",
          "type": "address"
        },
        {
          "internalType": "uint256",
          "name": "_score",
          "type": "uint256"
        }
      ],
      "name": "addScore",
      "outputs": [],
      "stateMutability": "nonpayable",
      "type": "function"
    },
    {
      "inputs": [
        {
          "internalType": "address",
          "name": "addr",
          "type": "address"
        },
        {
          "internalType": "string",
          "name": "_name",
          "type": "string"
        }
      ],
      "name": "addStudent",
      "outputs": [],
      "stateMutability": "nonpayable",
      "type": "function"
    },
    {
      "inputs": [
        {
          "internalType": "address",
          "name": "addr",
          "type": "address"
        },
        {
          "internalType": "uint256",
          "name": "_matapelajaranID",
          "type": "uint256"
        }
      ],
      "name": "addStudentPelajaran",
      "outputs": [],
      "stateMutability": "nonpayable",
      "type": "function"
    },
    {
      "inputs": [
        {
          "internalType": "address",
          "name": "addr",
          "type": "address"
        },
        {
          "internalType": "string",
          "name": "_name",
          "type": "string"
        }
      ],
      "name": "addTeacher",
      "outputs": [],
      "stateMutability": "nonpayable",
      "type": "function"
    },
    {
      "inputs": [],
      "name": "admin",
      "outputs": [
        {
          "internalType": "address",
          "name": "",
          "type": "address"
        }
      ],
      "stateMutability": "view",
      "type": "function"
    },
    {
      "inputs": [
        {
          "internalType": "address",
          "name": "addr",
          "type": "address"
        }
      ],
      "name": "checkTeachers",
      "outputs": [
        {
          "internalType": "bool",
          "name": "",
          "type": "bool"
        }
      ],
      "stateMutability": "view",
      "type": "function"
    },
    {
      "inputs": [
        {
          "internalType": "uint256",
          "name": "_matapelajaranID",
          "type": "uint256"
        }
      ],
      "name": "getMataPelajaranStudents",
      "outputs": [
        {
          "internalType": "address[]",
          "name": "",
          "type": "address[]"
        }
      ],
      "stateMutability": "view",
      "type": "function"
    },
    {
      "inputs": [
        {
          "internalType": "address",
          "name": "addr",
          "type": "address"
        }
      ],
      "name": "getStudent",
      "outputs": [
        {
          "internalType": "bool",
          "name": "",
          "type": "bool"
        }
      ],
      "stateMutability": "view",
      "type": "function"
    },
    {
      "inputs": [
        {
          "internalType": "uint256",
          "name": "_matapelajaranID",
          "type": "uint256"
        }
      ],
      "name": "getStudentMataPelajarans",
      "outputs": [
        {
          "internalType": "address[]",
          "name": "",
          "type": "address[]"
        }
      ],
      "stateMutability": "view",
      "type": "function"
    },
    {
      "inputs": [
        {
          "internalType": "uint256",
          "name": "_matapelajaranID",
          "type": "uint256"
        },
        {
          "internalType": "address",
          "name": "addr",
          "type": "address"
        }
      ],
      "name": "getStudentScore",
      "outputs": [
        {
          "internalType": "uint256",
          "name": "",
          "type": "uint256"
        }
      ],
      "stateMutability": "view",
      "type": "function"
    },
    {
      "inputs": [
        {
          "internalType": "address",
          "name": "addr",
          "type": "address"
        }
      ],
      "name": "getTeacher",
      "outputs": [
        {
          "internalType": "bool",
          "name": "",
          "type": "bool"
        }
      ],
      "stateMutability": "view",
      "type": "function"
    },
    {
      "inputs": [
        {
          "internalType": "address",
          "name": "",
          "type": "address"
        }
      ],
      "name": "listAdmin",
      "outputs": [
        {
          "internalType": "bool",
          "name": "",
          "type": "bool"
        }
      ],
      "stateMutability": "view",
      "type": "function"
    },
    {
      "inputs": [
        {
          "internalType": "address",
          "name": "",
          "type": "address"
        }
      ],
      "name": "listStudent",
      "outputs": [
        {
          "internalType": "bool",
          "name": "",
          "type": "bool"
        }
      ],
      "stateMutability": "view",
      "type": "function"
    },
    {
      "inputs": [
        {
          "internalType": "address",
          "name": "",
          "type": "address"
        }
      ],
      "name": "listTeacher",
      "outputs": [
        {
          "internalType": "bool",
          "name": "",
          "type": "bool"
        }
      ],
      "stateMutability": "view",
      "type": "function"
    },
    {
      "inputs": [],
      "name": "mataPelajaranCounter",
      "outputs": [
        {
          "internalType": "uint256",
          "name": "",
          "type": "uint256"
        }
      ],
      "stateMutability": "view",
      "type": "function"
    },
    {
      "inputs": [
        {
          "internalType": "uint256",
          "name": "",
          "type": "uint256"
        }
      ],
      "name": "matapelajarans",
      "outputs": [
        {
          "internalType": "string",
          "name": "name",
          "type": "string"
        },
        {
          "internalType": "address",
          "name": "teacherAddress",
          "type": "address"
        }
      ],
      "stateMutability": "view",
      "type": "function"
    },
    {
      "inputs": [],
      "name": "studentCounter",
      "outputs": [
        {
          "internalType": "uint256",
          "name": "",
          "type": "uint256"
        }
      ],
      "stateMutability": "view",
      "type": "function"
    },
    {
      "inputs": [
        {
          "internalType": "address",
          "name": "",
          "type": "address"
        }
      ],
      "name": "students",
      "outputs": [
        {
          "internalType": "string",
          "name": "name",
          "type": "string"
        }
      ],
      "stateMutability": "view",
      "type": "function"
    },
    {
      "inputs": [],
      "name": "teacherCounter",
      "outputs": [
        {
          "internalType": "uint256",
          "name": "",
          "type": "uint256"
        }
      ],
      "stateMutability": "view",
      "type": "function"
    },
    {
      "inputs": [
        {
          "internalType": "address",
          "name": "",
          "type": "address"
        }
      ],
      "name": "teachers",
      "outputs": [
        {
          "internalType": "string",
          "name": "name",
          "type": "string"
        }
      ],
      "stateMutability": "view",
      "type": "function"
    }
  ],
  "bytecode": "0x608060405234801561001057600080fd5b50336000806101000a81548173ffffffffffffffffffffffffffffffffffffffff021916908373ffffffffffffffffffffffffffffffffffffffff1602179055506001600460003373ffffffffffffffffffffffffffffffffffffffff1673ffffffffffffffffffffffffffffffffffffffff16815260200190815260200160002060006101000a81548160ff021916908315150217905550612a2c806100b86000396000f3fe608060405234801561001057600080fd5b50600436106101375760003560e01c80639cf08cad116100b8578063d5bb305d1161007c578063d5bb305d14610397578063e3596cac146103b5578063f0a47f78146103d3578063f851a44014610403578063fb4326fa14610421578063ffda656f1461045157610137565b80639cf08cad146102bb578063a6c807a9146102eb578063a9dafbe91461031b578063aa128c491461034b578063cfb333951461036757610137565b80637194c5b3116100ff5780637194c5b314610204578063797201e5146102225780637df674e5146102525780637fcd6369146102835780638f5b9b2e1461029f57610137565b80634bc4fe8a1461013c5780635e8b80911461016c57806367c5ea85146101885780636b7b44d7146101a45780636ff50e56146101d4575b600080fd5b61015660048036038101906101519190611c83565b610481565b6040516101639190611ccb565b60405180910390f35b61018660048036038101906101819190611e2c565b6105e0565b005b6101a2600480360381019061019d9190611ebe565b610877565b005b6101be60048036038101906101b99190611c83565b610b0a565b6040516101cb9190611ccb565b60405180910390f35b6101ee60048036038101906101e99190611f11565b610b77565b6040516101fb9190611ffc565b60405180910390f35b61020c610d4f565b604051610219919061202d565b60405180910390f35b61023c60048036038101906102379190611c83565b610d55565b6040516102499190611ccb565b60405180910390f35b61026c60048036038101906102679190611f11565b610d75565b60405161027a9291906120d6565b60405180910390f35b61029d60048036038101906102989190612106565b610e41565b005b6102b960048036038101906102b49190611e2c565b6110f0565b005b6102d560048036038101906102d09190611c83565b611327565b6040516102e29190611ccb565b60405180910390f35b61030560048036038101906103009190611c83565b611347565b6040516103129190612146565b60405180910390f35b61033560048036038101906103309190612168565b6113ed565b604051610342919061202d565b60405180910390f35b610365600480360381019061036091906121a8565b61163c565b005b610381600480360381019061037c9190611c83565b6117ea565b60405161038e9190611ccb565b60405180910390f35b61039f61180a565b6040516103ac919061202d565b60405180910390f35b6103bd611810565b6040516103ca919061202d565b60405180910390f35b6103ed60048036038101906103e89190611c83565b611816565b6040516103fa9190612146565b60405180910390f35b61040b6118bc565b6040516104189190612204565b60405180910390f35b61043b60048036038101906104369190611c83565b6118e0565b6040516104489190611ccb565b60405180910390f35b61046b60048036038101906104669190611f11565b61194d565b6040516104789190611ffc565b60405180910390f35b600061058c6040518060400160405280600e81526020017f54656163686572204e616d653a20000000000000000000000000000000000000815250600160008573ffffffffffffffffffffffffffffffffffffffff1673ffffffffffffffffffffffffffffffffffffffff16815260200190815260200160002060000180546105099061224e565b80601f01602080910402602001604051908101604052809291908181526020018280546105359061224e565b80156105825780601f1061055757610100808354040283529160200191610582565b820191906000526020600020905b81548152906001019060200180831161056557829003601f168201915b5050505050611b25565b600560008373ffffffffffffffffffffffffffffffffffffffff1673ffffffffffffffffffffffffffffffffffffffff16815260200190815260200160002060009054906101000a900460ff169050919050565b8160001515600660008373ffffffffffffffffffffffffffffffffffffffff1673ffffffffffffffffffffffffffffffffffffffff16815260200190815260200160002060009054906101000a900460ff16151514610674576040517f08c379a000000000000000000000000000000000000000000000000000000000815260040161066b906122f1565b60405180910390fd5b60011515600560003373ffffffffffffffffffffffffffffffffffffffff1673ffffffffffffffffffffffffffffffffffffffff16815260200190815260200160002060009054906101000a900460ff1615151480610723575060011515600460003373ffffffffffffffffffffffffffffffffffffffff1673ffffffffffffffffffffffffffffffffffffffff16815260200190815260200160002060009054906101000a900460ff161515145b610762576040517f08c379a00000000000000000000000000000000000000000000000000000000081526004016107599061235d565b60405180910390fd5b604051806020016040528083815250600260008573ffffffffffffffffffffffffffffffffffffffff1673ffffffffffffffffffffffffffffffffffffffff16815260200190815260200160002060008201518160000190816107c59190612529565b509050506001600660008573ffffffffffffffffffffffffffffffffffffffff1673ffffffffffffffffffffffffffffffffffffffff16815260200190815260200160002060006101000a81548160ff021916908315150217905550600860008154809291906108349061262a565b91905055507f94a56de67dd66b06691e0bd81e5b57fbf02e3ce04576def9d15b6371a0109fd2838360405161086a929190612672565b60405180910390a1505050565b60011515600560003373ffffffffffffffffffffffffffffffffffffffff1673ffffffffffffffffffffffffffffffffffffffff16815260200190815260200160002060009054906101000a900460ff1615151480610926575060011515600460003373ffffffffffffffffffffffffffffffffffffffff1673ffffffffffffffffffffffffffffffffffffffff16815260200190815260200160002060009054906101000a900460ff161515145b610965576040517f08c379a000000000000000000000000000000000000000000000000000000000815260040161095c9061235d565b60405180910390fd5b6003600084815260200190815260200160002060010160009054906101000a900473ffffffffffffffffffffffffffffffffffffffff1673ffffffffffffffffffffffffffffffffffffffff163373ffffffffffffffffffffffffffffffffffffffff161480610a1e5750600460003373ffffffffffffffffffffffffffffffffffffffff1673ffffffffffffffffffffffffffffffffffffffff16815260200190815260200160002060009054906101000a900460ff165b610a5d576040517f08c379a0000000000000000000000000000000000000000000000000000000008152600401610a54906126ee565b60405180910390fd5b806003600085815260200190815260200160002060030160008473ffffffffffffffffffffffffffffffffffffffff1673ffffffffffffffffffffffffffffffffffffffff168152602001908152602001600020819055507f6dca3a3f0ad0084aa45ac903a74dad8451bc742f036de0182ef554a6a636fdf0826003600086815260200190815260200160002060000183604051610afd93929190612792565b60405180910390a1505050565b600060011515600660008473ffffffffffffffffffffffffffffffffffffffff1673ffffffffffffffffffffffffffffffffffffffff16815260200190815260200160002060009054906101000a900460ff16151503610b6d5760019050610b72565b600090505b919050565b6060816009548110610bbe576040517f08c379a0000000000000000000000000000000000000000000000000000000008152600401610bb59061281c565b60405180910390fd5b60011515600560003373ffffffffffffffffffffffffffffffffffffffff1673ffffffffffffffffffffffffffffffffffffffff16815260200190815260200160002060009054906101000a900460ff1615151480610c6d575060011515600460003373ffffffffffffffffffffffffffffffffffffffff1673ffffffffffffffffffffffffffffffffffffffff16815260200190815260200160002060009054906101000a900460ff161515145b610cac576040517f08c379a0000000000000000000000000000000000000000000000000000000008152600401610ca39061235d565b60405180910390fd5b60036000848152602001908152602001600020600201805480602002602001604051908101604052809291908181526020018280548015610d4257602002820191906000526020600020905b8160009054906101000a900473ffffffffffffffffffffffffffffffffffffffff1673ffffffffffffffffffffffffffffffffffffffff1681526020019060010190808311610cf8575b5050505050915050919050565b60075481565b60056020528060005260406000206000915054906101000a900460ff1681565b6003602052806000526040600020600091509050806000018054610d989061224e565b80601f0160208091040260200160405190810160405280929190818152602001828054610dc49061224e565b8015610e115780601f10610de657610100808354040283529160200191610e11565b820191906000526020600020905b815481529060010190602001808311610df457829003601f168201915b5050505050908060010160009054906101000a900473ffffffffffffffffffffffffffffffffffffffff16905082565b60011515600560003373ffffffffffffffffffffffffffffffffffffffff1673ffffffffffffffffffffffffffffffffffffffff16815260200190815260200160002060009054906101000a900460ff1615151480610ef0575060011515600460003373ffffffffffffffffffffffffffffffffffffffff1673ffffffffffffffffffffffffffffffffffffffff16815260200190815260200160002060009054906101000a900460ff161515145b610f2f576040517f08c379a0000000000000000000000000000000000000000000000000000000008152600401610f269061235d565b60405180910390fd5b6003600082815260200190815260200160002060010160009054906101000a900473ffffffffffffffffffffffffffffffffffffffff1673ffffffffffffffffffffffffffffffffffffffff163373ffffffffffffffffffffffffffffffffffffffff161480610fe85750600460003373ffffffffffffffffffffffffffffffffffffffff1673ffffffffffffffffffffffffffffffffffffffff16815260200190815260200160002060009054906101000a900460ff165b611027576040517f08c379a000000000000000000000000000000000000000000000000000000000815260040161101e906126ee565b60405180910390fd5b60036000828152602001908152602001600020600201829080600181540180825580915050600190039060005260206000200160009091909190916101000a81548173ffffffffffffffffffffffffffffffffffffffff021916908373ffffffffffffffffffffffffffffffffffffffff1602179055507fe113aa050b8da447370c66aff62902eaadacd312e63b1ea81fdfc08fb089784882600360008481526020019081526020016000206000016040516110e492919061283c565b60405180910390a15050565b8160001515600560008373ffffffffffffffffffffffffffffffffffffffff1673ffffffffffffffffffffffffffffffffffffffff16815260200190815260200160002060009054906101000a900460ff16151514611184576040517f08c379a000000000000000000000000000000000000000000000000000000000815260040161117b906128de565b60405180910390fd5b60008054906101000a900473ffffffffffffffffffffffffffffffffffffffff1673ffffffffffffffffffffffffffffffffffffffff163373ffffffffffffffffffffffffffffffffffffffff1614611212576040517f08c379a000000000000000000000000000000000000000000000000000000000815260040161120990612970565b60405180910390fd5b604051806020016040528083815250600160008573ffffffffffffffffffffffffffffffffffffffff1673ffffffffffffffffffffffffffffffffffffffff16815260200190815260200160002060008201518160000190816112759190612529565b509050506001600560008573ffffffffffffffffffffffffffffffffffffffff1673ffffffffffffffffffffffffffffffffffffffff16815260200190815260200160002060006101000a81548160ff021916908315150217905550600760008154809291906112e49061262a565b91905055507f6996ba1536de57e4c72a268600ac97e3feae59f326494fce7dc56c6c6de959e3838360405161131a929190612672565b60405180910390a1505050565b60046020528060005260406000206000915054906101000a900460ff1681565b600260205280600052604060002060009150905080600001805461136a9061224e565b80601f01602080910402602001604051908101604052809291908181526020018280546113969061224e565b80156113e35780601f106113b8576101008083540402835291602001916113e3565b820191906000526020600020905b8154815290600101906020018083116113c657829003601f168201915b5050505050905081565b6000826009548110611434576040517f08c379a000000000000000000000000000000000000000000000000000000000815260040161142b9061281c565b60405180910390fd5b8260001515600660008373ffffffffffffffffffffffffffffffffffffffff1673ffffffffffffffffffffffffffffffffffffffff16815260200190815260200160002060009054906101000a900460ff161515146114c8576040517f08c379a00000000000000000000000000000000000000000000000000000000081526004016114bf906122f1565b60405180910390fd5b8373ffffffffffffffffffffffffffffffffffffffff163373ffffffffffffffffffffffffffffffffffffffff16148061154b5750600460003373ffffffffffffffffffffffffffffffffffffffff1673ffffffffffffffffffffffffffffffffffffffff16815260200190815260200160002060009054906101000a900460ff165b8061159f5750600560003373ffffffffffffffffffffffffffffffffffffffff1673ffffffffffffffffffffffffffffffffffffffff16815260200190815260200160002060009054906101000a900460ff165b6115de576040517f08c379a00000000000000000000000000000000000000000000000000000000081526004016115d5906126ee565b60405180910390fd5b6003600086815260200190815260200160002060030160008573ffffffffffffffffffffffffffffffffffffffff1673ffffffffffffffffffffffffffffffffffffffff168152602001908152602001600020549250505092915050565b60008054906101000a900473ffffffffffffffffffffffffffffffffffffffff1673ffffffffffffffffffffffffffffffffffffffff163373ffffffffffffffffffffffffffffffffffffffff16146116ca576040517f08c379a00000000000000000000000000000000000000000000000000000000081526004016116c190612970565b60405180910390fd5b8160036000600954815260200190815260200160002060000190816116ef9190612529565b508060036000600954815260200190815260200160002060010160006101000a81548173ffffffffffffffffffffffffffffffffffffffff021916908373ffffffffffffffffffffffffffffffffffffffff1602179055506009600081548092919061175a9061262a565b91905055507f7646b8ac4e7fd0edb8c8c7f98d7a8e6b40c5c3ee848aebf0628fa72e08e61efa8260405161178e9190612146565b60405180910390a17f666e55c8ba70beeafdf0c10f6d389a4fec2ce0f62e4e15f6b29ce3c114c12d1e816003600060095481526020019081526020016000206000016040516117de92919061283c565b60405180910390a15050565b60066020528060005260406000206000915054906101000a900460ff1681565b60095481565b60085481565b60016020528060005260406000206000915090508060000180546118399061224e565b80601f01602080910402602001604051908101604052809291908181526020018280546118659061224e565b80156118b25780601f10611887576101008083540402835291602001916118b2565b820191906000526020600020905b81548152906001019060200180831161189557829003601f168201915b5050505050905081565b60008054906101000a900473ffffffffffffffffffffffffffffffffffffffff1681565b600060011515600560008473ffffffffffffffffffffffffffffffffffffffff1673ffffffffffffffffffffffffffffffffffffffff16815260200190815260200160002060009054906101000a900460ff161515036119435760019050611948565b600090505b919050565b6060816009548110611994576040517f08c379a000000000000000000000000000000000000000000000000000000000815260040161198b9061281c565b60405180910390fd5b60011515600560003373ffffffffffffffffffffffffffffffffffffffff1673ffffffffffffffffffffffffffffffffffffffff16815260200190815260200160002060009054906101000a900460ff1615151480611a43575060011515600460003373ffffffffffffffffffffffffffffffffffffffff1673ffffffffffffffffffffffffffffffffffffffff16815260200190815260200160002060009054906101000a900460ff161515145b611a82576040517f08c379a0000000000000000000000000000000000000000000000000000000008152600401611a799061235d565b60405180910390fd5b60036000848152602001908152602001600020600201805480602002602001604051908101604052809291908181526020018280548015611b1857602002820191906000526020600020905b8160009054906101000a900473ffffffffffffffffffffffffffffffffffffffff1673ffffffffffffffffffffffffffffffffffffffff1681526020019060010190808311611ace575b5050505050915050919050565b611bbd8282604051602401611b3b929190612990565b6040516020818303038152906040527f4b5c4277000000000000000000000000000000000000000000000000000000007bffffffffffffffffffffffffffffffffffffffffffffffffffffffff19166020820180517bffffffffffffffffffffffffffffffffffffffffffffffffffffffff8381831617835250505050611bc1565b5050565b611bd881611bd0611bdb611bfc565b63ffffffff16565b50565b60006a636f6e736f6c652e6c6f679050600080835160208501845afa505050565b611c07819050919050565b611c0f6129c7565b565b6000604051905090565b600080fd5b600080fd5b600073ffffffffffffffffffffffffffffffffffffffff82169050919050565b6000611c5082611c25565b9050919050565b611c6081611c45565b8114611c6b57600080fd5b50565b600081359050611c7d81611c57565b92915050565b600060208284031215611c9957611c98611c1b565b5b6000611ca784828501611c6e565b91505092915050565b60008115159050919050565b611cc581611cb0565b82525050565b6000602082019050611ce06000830184611cbc565b92915050565b600080fd5b600080fd5b6000601f19601f8301169050919050565b7f4e487b7100000000000000000000000000000000000000000000000000000000600052604160045260246000fd5b611d3982611cf0565b810181811067ffffffffffffffff82111715611d5857611d57611d01565b5b80604052505050565b6000611d6b611c11565b9050611d778282611d30565b919050565b600067ffffffffffffffff821115611d9757611d96611d01565b5b611da082611cf0565b9050602081019050919050565b82818337600083830152505050565b6000611dcf611dca84611d7c565b611d61565b905082815260208101848484011115611deb57611dea611ceb565b5b611df6848285611dad565b509392505050565b600082601f830112611e1357611e12611ce6565b5b8135611e23848260208601611dbc565b91505092915050565b60008060408385031215611e4357611e42611c1b565b5b6000611e5185828601611c6e565b925050602083013567ffffffffffffffff811115611e7257611e71611c20565b5b611e7e85828601611dfe565b9150509250929050565b6000819050919050565b611e9b81611e88565b8114611ea657600080fd5b50565b600081359050611eb881611e92565b92915050565b600080600060608486031215611ed757611ed6611c1b565b5b6000611ee586828701611ea9565b9350506020611ef686828701611c6e565b9250506040611f0786828701611ea9565b9150509250925092565b600060208284031215611f2757611f26611c1b565b5b6000611f3584828501611ea9565b91505092915050565b600081519050919050565b600082825260208201905092915050565b6000819050602082019050919050565b611f7381611c45565b82525050565b6000611f858383611f6a565b60208301905092915050565b6000602082019050919050565b6000611fa982611f3e565b611fb38185611f49565b9350611fbe83611f5a565b8060005b83811015611fef578151611fd68882611f79565b9750611fe183611f91565b925050600181019050611fc2565b5085935050505092915050565b600060208201905081810360008301526120168184611f9e565b905092915050565b61202781611e88565b82525050565b6000602082019050612042600083018461201e565b92915050565b600081519050919050565b600082825260208201905092915050565b60005b83811015612082578082015181840152602081019050612067565b60008484015250505050565b600061209982612048565b6120a38185612053565b93506120b3818560208601612064565b6120bc81611cf0565b840191505092915050565b6120d081611c45565b82525050565b600060408201905081810360008301526120f0818561208e565b90506120ff60208301846120c7565b9392505050565b6000806040838503121561211d5761211c611c1b565b5b600061212b85828601611c6e565b925050602061213c85828601611ea9565b9150509250929050565b60006020820190508181036000830152612160818461208e565b905092915050565b6000806040838503121561217f5761217e611c1b565b5b600061218d85828601611ea9565b925050602061219e85828601611c6e565b9150509250929050565b600080604083850312156121bf576121be611c1b565b5b600083013567ffffffffffffffff8111156121dd576121dc611c20565b5b6121e985828601611dfe565b92505060206121fa85828601611c6e565b9150509250929050565b600060208201905061221960008301846120c7565b92915050565b7f4e487b7100000000000000000000000000000000000000000000000000000000600052602260045260246000fd5b6000600282049050600182168061226657607f821691505b6020821081036122795761227861221f565b5b50919050565b7f73747564656e74206164647265737320616c726561647920726567697374657260008201527f6564000000000000000000000000000000000000000000000000000000000000602082015250565b60006122db602283612053565b91506122e68261227f565b604082019050919050565b6000602082019050818103600083015261230a816122ce565b9050919050565b7f41646472657373206973206e6f7420612074656163686572202f2061646d696e600082015250565b6000612347602083612053565b915061235282612311565b602082019050919050565b600060208201905081810360008301526123768161233a565b9050919050565b60008190508160005260206000209050919050565b60006020601f8301049050919050565b600082821b905092915050565b6000600883026123df7fffffffffffffffffffffffffffffffffffffffffffffffffffffffffffffffff826123a2565b6123e986836123a2565b95508019841693508086168417925050509392505050565b6000819050919050565b600061242661242161241c84611e88565b612401565b611e88565b9050919050565b6000819050919050565b6124408361240b565b61245461244c8261242d565b8484546123af565b825550505050565b600090565b61246961245c565b612474818484612437565b505050565b5b818110156124985761248d600082612461565b60018101905061247a565b5050565b601f8211156124dd576124ae8161237d565b6124b784612392565b810160208510156124c6578190505b6124da6124d285612392565b830182612479565b50505b505050565b600082821c905092915050565b6000612500600019846008026124e2565b1980831691505092915050565b600061251983836124ef565b9150826002028217905092915050565b61253282612048565b67ffffffffffffffff81111561254b5761254a611d01565b5b612555825461224e565b61256082828561249c565b600060209050601f8311600181146125935760008415612581578287015190505b61258b858261250d565b8655506125f3565b601f1984166125a18661237d565b60005b828110156125c9578489015182556001820191506020850194506020810190506125a4565b868310156125e657848901516125e2601f8916826124ef565b8355505b6001600288020188555050505b505050505050565b7f4e487b7100000000000000000000000000000000000000000000000000000000600052601160045260246000fd5b600061263582611e88565b91507fffffffffffffffffffffffffffffffffffffffffffffffffffffffffffffffff8203612667576126666125fb565b5b600182019050919050565b600060408201905061268760008301856120c7565b8181036020830152612699818461208e565b90509392505050565b7f41646472657373206973206e6f7420617574686f72697a656400000000000000600082015250565b60006126d8601983612053565b91506126e3826126a2565b602082019050919050565b60006020820190508181036000830152612707816126cb565b9050919050565b6000815461271b8161224e565b6127258186612053565b94506001821660008114612740576001811461275657612789565b60ff198316865281151560200286019350612789565b61275f8561237d565b60005b8381101561278157815481890152600182019150602081019050612762565b808801955050505b50505092915050565b60006060820190506127a760008301866120c7565b81810360208301526127b9818561270e565b90506127c8604083018461201e565b949350505050565b7f6d6174612070656c616a6172616e20646f6573206e6f74206578697374000000600082015250565b6000612806601d83612053565b9150612811826127d0565b602082019050919050565b60006020820190508181036000830152612835816127f9565b9050919050565b600060408201905061285160008301856120c7565b8181036020830152612863818461270e565b90509392505050565b7f74656163686572206164647265737320616c726561647920726567697374657260008201527f6564000000000000000000000000000000000000000000000000000000000000602082015250565b60006128c8602283612053565b91506128d38261286c565b604082019050919050565b600060208201905081810360008301526128f7816128bb565b9050919050565b7f4f6e6c792061646d696e2063616e2063616c6c20746869732066756e6374696f60008201527f6e00000000000000000000000000000000000000000000000000000000000000602082015250565b600061295a602183612053565b9150612965826128fe565b604082019050919050565b600060208201905081810360008301526129898161294d565b9050919050565b600060408201905081810360008301526129aa818561208e565b905081810360208301526129be818461208e565b90509392505050565b7f4e487b7100000000000000000000000000000000000000000000000000000000600052605160045260246000fdfea2646970667358221220085846a18a056a7d20b03d2a6856bddd41e0d0570c85122696f7e3aa4b697f7364736f6c63430008180033",
  "linkReferences": {},
  "deployedLinkReferences": {}
}