{
  "_format": "hh-sol-artifact-1",
  "contractName": "SchoolManagement",
  "sourceName": "contracts/SchoolManagement.sol",
  "abi": [
    {
      "inputs": [],
      "stateMutability": "nonpayable",
      "type": "constructor"
    },
    {
      "anonymous": false,
      "inputs": [
        {
          "indexed": false,
          "internalType": "address",
          "name": "_adminAddress",
          "type": "address"
        },
        {
          "indexed": false,
          "internalType": "string",
          "name": "adminName",
          "type": "string"
        }
      ],
      "name": "adminAdded",
      "type": "event"
    },
    {
      "anonymous": false,
      "inputs": [
        {
          "indexed": false,
          "internalType": "string",
          "name": "namaMataPelajaran",
          "type": "string"
        }
      ],
      "name": "mataPelajaranAdded",
      "type": "event"
    },
    {
      "anonymous": false,
      "inputs": [
        {
          "indexed": false,
          "internalType": "address",
          "name": "_studentAddress",
          "type": "address"
        },
        {
          "indexed": false,
          "internalType": "string",
          "name": "studentName",
          "type": "string"
        }
      ],
      "name": "studentAdded",
      "type": "event"
    },
    {
      "anonymous": false,
      "inputs": [
        {
          "indexed": false,
          "internalType": "address",
          "name": "_teacherAddress",
          "type": "address"
        },
        {
          "indexed": false,
          "internalType": "string",
          "name": "teacherName",
          "type": "string"
        }
      ],
      "name": "teacherAdded",
      "type": "event"
    },
    {
      "inputs": [
        {
          "internalType": "address",
          "name": "addr",
          "type": "address"
        },
        {
          "internalType": "string",
          "name": "_name",
          "type": "string"
        }
      ],
      "name": "addAdmin",
      "outputs": [],
      "stateMutability": "nonpayable",
      "type": "function"
    },
    {
      "inputs": [
        {
          "internalType": "string",
          "name": "_name",
          "type": "string"
        }
      ],
      "name": "addMataPelajaran",
      "outputs": [],
      "stateMutability": "nonpayable",
      "type": "function"
    },
    {
      "inputs": [
        {
          "internalType": "uint256",
          "name": "_matapelajaranID",
          "type": "uint256"
        },
        {
          "internalType": "uint256",
          "name": "_studentID",
          "type": "uint256"
        },
        {
          "internalType": "uint256",
          "name": "_score",
          "type": "uint256"
        }
      ],
      "name": "addScore",
      "outputs": [],
      "stateMutability": "nonpayable",
      "type": "function"
    },
    {
      "inputs": [
        {
          "internalType": "address",
          "name": "addr",
          "type": "address"
        },
        {
          "internalType": "string",
          "name": "_name",
          "type": "string"
        }
      ],
      "name": "addStudent",
      "outputs": [],
      "stateMutability": "nonpayable",
      "type": "function"
    },
    {
      "inputs": [
        {
          "internalType": "uint256",
          "name": "_studentID",
          "type": "uint256"
        },
        {
          "internalType": "uint256",
          "name": "_matapelajaranID",
          "type": "uint256"
        }
      ],
      "name": "addStudentPelajaran",
      "outputs": [],
      "stateMutability": "nonpayable",
      "type": "function"
    },
    {
      "inputs": [
        {
          "internalType": "address",
          "name": "addr",
          "type": "address"
        },
        {
          "internalType": "string",
          "name": "_name",
          "type": "string"
        }
      ],
      "name": "addTeacher",
      "outputs": [],
      "stateMutability": "nonpayable",
      "type": "function"
    },
    {
      "inputs": [
        {
          "internalType": "address",
          "name": "addr",
          "type": "address"
        },
        {
          "internalType": "uint256",
          "name": "_matapelajaranID",
          "type": "uint256"
        }
      ],
      "name": "addTeacherPelajaran",
      "outputs": [],
      "stateMutability": "nonpayable",
      "type": "function"
    },
    {
      "inputs": [],
      "name": "adminCounter",
      "outputs": [
        {
          "internalType": "uint256",
          "name": "",
          "type": "uint256"
        }
      ],
      "stateMutability": "view",
      "type": "function"
    },
    {
      "inputs": [
        {
          "internalType": "address",
          "name": "",
          "type": "address"
        }
      ],
      "name": "admins",
      "outputs": [
        {
          "internalType": "uint256",
          "name": "id",
          "type": "uint256"
        },
        {
          "internalType": "string",
          "name": "name",
          "type": "string"
        },
        {
          "internalType": "bool",
          "name": "exist",
          "type": "bool"
        }
      ],
      "stateMutability": "view",
      "type": "function"
    },
    {
      "inputs": [],
      "name": "assigner",
      "outputs": [
        {
          "internalType": "address",
          "name": "",
          "type": "address"
        }
      ],
      "stateMutability": "view",
      "type": "function"
    },
    {
      "inputs": [
        {
          "internalType": "uint256",
          "name": "_matapelajaranID",
          "type": "uint256"
        }
      ],
      "name": "getMataPelajaranStudents",
      "outputs": [
        {
          "internalType": "uint256[]",
          "name": "",
          "type": "uint256[]"
        }
      ],
      "stateMutability": "view",
      "type": "function"
    },
    {
      "inputs": [
        {
          "internalType": "uint256",
          "name": "_matapelajaranID",
          "type": "uint256"
        },
        {
          "internalType": "uint256",
          "name": "_studentID",
          "type": "uint256"
        }
      ],
      "name": "getStudentScore",
      "outputs": [
        {
          "internalType": "uint256",
          "name": "",
          "type": "uint256"
        }
      ],
      "stateMutability": "view",
      "type": "function"
    },
    {
      "inputs": [],
      "name": "mataPelajaranCounter",
      "outputs": [
        {
          "internalType": "uint256",
          "name": "",
          "type": "uint256"
        }
      ],
      "stateMutability": "view",
      "type": "function"
    },
    {
      "inputs": [
        {
          "internalType": "uint256",
          "name": "",
          "type": "uint256"
        }
      ],
      "name": "matapelajarans",
      "outputs": [
        {
          "internalType": "uint256",
          "name": "id",
          "type": "uint256"
        },
        {
          "internalType": "string",
          "name": "name",
          "type": "string"
        },
        {
          "internalType": "uint256",
          "name": "teacherID",
          "type": "uint256"
        }
      ],
      "stateMutability": "view",
      "type": "function"
    },
    {
      "inputs": [],
      "name": "studentCounter",
      "outputs": [
        {
          "internalType": "uint256",
          "name": "",
          "type": "uint256"
        }
      ],
      "stateMutability": "view",
      "type": "function"
    },
    {
      "inputs": [
        {
          "internalType": "address",
          "name": "",
          "type": "address"
        }
      ],
      "name": "students",
      "outputs": [
        {
          "internalType": "uint256",
          "name": "id",
          "type": "uint256"
        },
        {
          "internalType": "string",
          "name": "name",
          "type": "string"
        },
        {
          "internalType": "bool",
          "name": "exist",
          "type": "bool"
        }
      ],
      "stateMutability": "view",
      "type": "function"
    },
    {
      "inputs": [],
      "name": "teacherCounter",
      "outputs": [
        {
          "internalType": "uint256",
          "name": "",
          "type": "uint256"
        }
      ],
      "stateMutability": "view",
      "type": "function"
    },
    {
      "inputs": [
        {
          "internalType": "address",
          "name": "",
          "type": "address"
        }
      ],
      "name": "teachers",
      "outputs": [
        {
          "internalType": "uint256",
          "name": "id",
          "type": "uint256"
        },
        {
          "internalType": "string",
          "name": "name",
          "type": "string"
        },
        {
          "internalType": "bool",
          "name": "exist",
          "type": "bool"
        }
      ],
      "stateMutability": "view",
      "type": "function"
    }
  ],
  "bytecode": "0x60806040523480156200001157600080fd5b506200007b600b60009054906101000a900473ffffffffffffffffffffffffffffffffffffffff166040518060400160405280600e81526020017f4a6f736570682047616e74656e670000000000000000000000000000000000008152506200008160201b60201c565b620007c6565b81600015156000808373ffffffffffffffffffffffffffffffffffffffff1673ffffffffffffffffffffffffffffffffffffffff16815260200190815260200160002060020160009054906101000a900460ff161515146200011a576040517f08c379a00000000000000000000000000000000000000000000000000000000081526004016200011190620002d0565b60405180910390fd5b60405180606001604052806007548152602001838152602001600115158152506000808573ffffffffffffffffffffffffffffffffffffffff1673ffffffffffffffffffffffffffffffffffffffff1681526020019081526020016000206000820151816000015560208201518160010190816200019991906200056c565b5060408201518160020160006101000a81548160ff0219169083151502179055509050506001600460003373ffffffffffffffffffffffffffffffffffffffff1673ffffffffffffffffffffffffffffffffffffffff16815260200190815260200160002060006101000a81548160ff021916908315150217905550600760008154809291906200022a9062000682565b91905055507f69607fb2eee4d5b37c380d9f8f6ac09a507c47bf8fb28ce8359ec511ec4a941183836040516200026292919062000792565b60405180910390a1505050565b600082825260208201905092915050565b7f61646d696e206164647265737320616c72656164792072656769737465726564600082015250565b6000620002b86020836200026f565b9150620002c58262000280565b602082019050919050565b60006020820190508181036000830152620002eb81620002a9565b9050919050565b600081519050919050565b7f4e487b7100000000000000000000000000000000000000000000000000000000600052604160045260246000fd5b7f4e487b7100000000000000000000000000000000000000000000000000000000600052602260045260246000fd5b600060028204905060018216806200037457607f821691505b6020821081036200038a57620003896200032c565b5b50919050565b60008190508160005260206000209050919050565b60006020601f8301049050919050565b600082821b905092915050565b600060088302620003f47fffffffffffffffffffffffffffffffffffffffffffffffffffffffffffffffff82620003b5565b620004008683620003b5565b95508019841693508086168417925050509392505050565b6000819050919050565b6000819050919050565b60006200044d62000447620004418462000418565b62000422565b62000418565b9050919050565b6000819050919050565b62000469836200042c565b62000481620004788262000454565b848454620003c2565b825550505050565b600090565b6200049862000489565b620004a58184846200045e565b505050565b5b81811015620004cd57620004c16000826200048e565b600181019050620004ab565b5050565b601f8211156200051c57620004e68162000390565b620004f184620003a5565b8101602085101562000501578190505b620005196200051085620003a5565b830182620004aa565b50505b505050565b600082821c905092915050565b6000620005416000198460080262000521565b1980831691505092915050565b60006200055c83836200052e565b9150826002028217905092915050565b6200057782620002f2565b67ffffffffffffffff811115620005935762000592620002fd565b5b6200059f82546200035b565b620005ac828285620004d1565b600060209050601f831160018114620005e45760008415620005cf578287015190505b620005db85826200054e565b8655506200064b565b601f198416620005f48662000390565b60005b828110156200061e57848901518255600182019150602085019450602081019050620005f7565b868310156200063e57848901516200063a601f8916826200052e565b8355505b6001600288020188555050505b505050505050565b7f4e487b7100000000000000000000000000000000000000000000000000000000600052601160045260246000fd5b60006200068f8262000418565b91507fffffffffffffffffffffffffffffffffffffffffffffffffffffffffffffffff8203620006c457620006c362000653565b5b600182019050919050565b600073ffffffffffffffffffffffffffffffffffffffff82169050919050565b6000620006fc82620006cf565b9050919050565b6200070e81620006ef565b82525050565b60005b838110156200073457808201518184015260208101905062000717565b60008484015250505050565b6000601f19601f8301169050919050565b60006200075e82620002f2565b6200076a81856200026f565b93506200077c81856020860162000714565b620007878162000740565b840191505092915050565b6000604082019050620007a9600083018562000703565b8181036020830152620007bd818462000751565b90509392505050565b61243380620007d66000396000f3fe608060405234801561001057600080fd5b50600436106101165760003560e01c8063b24f36ec116100a2578063d5bb305d11610071578063d5bb305d146102e1578063e3596cac146102ff578063f0a47f781461031d578063fea201bc1461034f578063ffda656f1461036d57610116565b8063b24f36ec14610271578063bfc21cb81461028d578063d16856ca146102a9578063d551c5e9146102c557610116565b80635e8b8091116100e95780635e8b8091146101b75780637194c5b3146101d35780637df674e5146101f15780638f5b9b2e14610223578063a6c807a91461023f57610116565b8063199732611461011b5780633dea61ad14610139578063429b62e5146101695780634ae564d51461019b575b600080fd5b61012361039d565b6040516101309190611703565b60405180910390f35b610153600480360381019061014e9190611768565b6103c3565b60405161016091906117b7565b60405180910390f35b610183600480360381019061017e91906117fe565b6105ad565b604051610192939291906118d6565b60405180910390f35b6101b560048036038101906101b09190611914565b61066c565b005b6101d160048036038101906101cc9190611a89565b610759565b005b6101db610a20565b6040516101e891906117b7565b60405180910390f35b61020b60048036038101906102069190611ae5565b610a26565b60405161021a93929190611b12565b60405180910390f35b61023d60048036038101906102389190611a89565b610ad8565b005b610259600480360381019061025491906117fe565b610d4b565b604051610268939291906118d6565b60405180910390f35b61028b60048036038101906102869190611768565b610e0a565b005b6102a760048036038101906102a29190611b50565b611019565b005b6102c360048036038101906102be9190611a89565b611079565b005b6102df60048036038101906102da9190611b99565b61125e565b005b6102e961145d565b6040516102f691906117b7565b60405180910390f35b610307611463565b60405161031491906117b7565b60405180910390f35b610337600480360381019061033291906117fe565b611469565b604051610346939291906118d6565b60405180910390f35b610357611528565b60405161036491906117b7565b60405180910390f35b61038760048036038101906103829190611ae5565b61152e565b6040516103949190611caa565b60405180910390f35b600b60009054906101000a900473ffffffffffffffffffffffffffffffffffffffff1681565b600082600a54811061040a576040517f08c379a000000000000000000000000000000000000000000000000000000000815260040161040190611d18565b60405180910390fd5b82600954811061044f576040517f08c379a000000000000000000000000000000000000000000000000000000000815260040161044690611d84565b60405180910390fd5b83600260003373ffffffffffffffffffffffffffffffffffffffff1673ffffffffffffffffffffffffffffffffffffffff1681526020019081526020016000206000015414806104e85750600460003373ffffffffffffffffffffffffffffffffffffffff1673ffffffffffffffffffffffffffffffffffffffff16815260200190815260200160002060009054906101000a900460ff165b8061053c5750600560003373ffffffffffffffffffffffffffffffffffffffff1673ffffffffffffffffffffffffffffffffffffffff16815260200190815260200160002060009054906101000a900460ff165b61057b576040517f08c379a000000000000000000000000000000000000000000000000000000000815260040161057290611df0565b60405180910390fd5b600360008681526020019081526020016000206004016000858152602001908152602001600020549250505092915050565b60006020528060005260406000206000915090508060000154908060010180546105d690611e3f565b80601f016020809104026020016040519081016040528092919081815260200182805461060290611e3f565b801561064f5780601f106106245761010080835404028352916020019161064f565b820191906000526020600020905b81548152906001019060200180831161063257829003601f168201915b5050505050908060020160009054906101000a900460ff16905083565b600460003373ffffffffffffffffffffffffffffffffffffffff1673ffffffffffffffffffffffffffffffffffffffff16815260200190815260200160002060009054906101000a900460ff166106f8576040517f08c379a00000000000000000000000000000000000000000000000000000000081526004016106ef90611ebc565b60405180910390fd5b600160008373ffffffffffffffffffffffffffffffffffffffff1673ffffffffffffffffffffffffffffffffffffffff1681526020019081526020016000206000015460036000838152602001908152602001600020600201819055505050565b8160001515600260008373ffffffffffffffffffffffffffffffffffffffff1673ffffffffffffffffffffffffffffffffffffffff16815260200190815260200160002060020160009054906101000a900460ff161515146107f0576040517f08c379a00000000000000000000000000000000000000000000000000000000081526004016107e790611f4e565b60405180910390fd5b600560003373ffffffffffffffffffffffffffffffffffffffff1673ffffffffffffffffffffffffffffffffffffffff16815260200190815260200160002060009054906101000a900460ff16806108915750600460003373ffffffffffffffffffffffffffffffffffffffff1673ffffffffffffffffffffffffffffffffffffffff16815260200190815260200160002060009054906101000a900460ff165b6108d0576040517f08c379a00000000000000000000000000000000000000000000000000000000081526004016108c790611fba565b60405180910390fd5b6040518060600160405280600954815260200183815260200160011515815250600260008573ffffffffffffffffffffffffffffffffffffffff1673ffffffffffffffffffffffffffffffffffffffff16815260200190815260200160002060008201518160000155602082015181600101908161094e9190612186565b5060408201518160020160006101000a81548160ff0219169083151502179055509050506001600660003373ffffffffffffffffffffffffffffffffffffffff1673ffffffffffffffffffffffffffffffffffffffff16815260200190815260200160002060006101000a81548160ff021916908315150217905550600960008154809291906109dd90612287565b91905055507f94a56de67dd66b06691e0bd81e5b57fbf02e3ce04576def9d15b6371a0109fd28383604051610a139291906122cf565b60405180910390a1505050565b60085481565b6003602052806000526040600020600091509050806000015490806001018054610a4f90611e3f565b80601f0160208091040260200160405190810160405280929190818152602001828054610a7b90611e3f565b8015610ac85780601f10610a9d57610100808354040283529160200191610ac8565b820191906000526020600020905b815481529060010190602001808311610aab57829003601f168201915b5050505050908060020154905083565b8160001515600160008373ffffffffffffffffffffffffffffffffffffffff1673ffffffffffffffffffffffffffffffffffffffff16815260200190815260200160002060020160009054906101000a900460ff16151514610b6f576040517f08c379a0000000000000000000000000000000000000000000000000000000008152600401610b6690612371565b60405180910390fd5b600460003373ffffffffffffffffffffffffffffffffffffffff1673ffffffffffffffffffffffffffffffffffffffff16815260200190815260200160002060009054906101000a900460ff16610bfb576040517f08c379a0000000000000000000000000000000000000000000000000000000008152600401610bf290611ebc565b60405180910390fd5b6040518060600160405280600854815260200183815260200160011515815250600160008573ffffffffffffffffffffffffffffffffffffffff1673ffffffffffffffffffffffffffffffffffffffff168152602001908152602001600020600082015181600001556020820151816001019081610c799190612186565b5060408201518160020160006101000a81548160ff0219169083151502179055509050506001600560003373ffffffffffffffffffffffffffffffffffffffff1673ffffffffffffffffffffffffffffffffffffffff16815260200190815260200160002060006101000a81548160ff02191690831515021790555060086000815480929190610d0890612287565b91905055507f6996ba1536de57e4c72a268600ac97e3feae59f326494fce7dc56c6c6de959e38383604051610d3e9291906122cf565b60405180910390a1505050565b6002602052806000526040600020600091509050806000015490806001018054610d7490611e3f565b80601f0160208091040260200160405190810160405280929190818152602001828054610da090611e3f565b8015610ded5780601f10610dc257610100808354040283529160200191610ded565b820191906000526020600020905b815481529060010190602001808311610dd057829003601f168201915b5050505050908060020160009054906101000a900460ff16905083565b600560003373ffffffffffffffffffffffffffffffffffffffff1673ffffffffffffffffffffffffffffffffffffffff16815260200190815260200160002060009054906101000a900460ff1680610eab5750600460003373ffffffffffffffffffffffffffffffffffffffff1673ffffffffffffffffffffffffffffffffffffffff16815260200190815260200160002060009054906101000a900460ff165b610eea576040517f08c379a0000000000000000000000000000000000000000000000000000000008152600401610ee190611fba565b60405180910390fd5b6003600082815260200190815260200160002060020154600160003373ffffffffffffffffffffffffffffffffffffffff1673ffffffffffffffffffffffffffffffffffffffff168152602001908152602001600020600001541480610f995750600460003373ffffffffffffffffffffffffffffffffffffffff1673ffffffffffffffffffffffffffffffffffffffff16815260200190815260200160002060009054906101000a900460ff165b610fd8576040517f08c379a0000000000000000000000000000000000000000000000000000000008152600401610fcf90611df0565b60405180910390fd5b600360008281526020019081526020016000206003018290806001815401808255809150506001900390600052602060002001600090919091909150555050565b600a5460036000600a548152602001908152602001600020600001819055508060036000600a548152602001908152602001600020600101908161105d9190612186565b50600a600081548092919061107190612287565b919050555050565b81600015156000808373ffffffffffffffffffffffffffffffffffffffff1673ffffffffffffffffffffffffffffffffffffffff16815260200190815260200160002060020160009054906101000a900460ff1615151461110f576040517f08c379a0000000000000000000000000000000000000000000000000000000008152600401611106906123dd565b60405180910390fd5b60405180606001604052806007548152602001838152602001600115158152506000808573ffffffffffffffffffffffffffffffffffffffff1673ffffffffffffffffffffffffffffffffffffffff16815260200190815260200160002060008201518160000155602082015181600101908161118c9190612186565b5060408201518160020160006101000a81548160ff0219169083151502179055509050506001600460003373ffffffffffffffffffffffffffffffffffffffff1673ffffffffffffffffffffffffffffffffffffffff16815260200190815260200160002060006101000a81548160ff0219169083151502179055506007600081548092919061121b90612287565b91905055507f69607fb2eee4d5b37c380d9f8f6ac09a507c47bf8fb28ce8359ec511ec4a941183836040516112519291906122cf565b60405180910390a1505050565b600560003373ffffffffffffffffffffffffffffffffffffffff1673ffffffffffffffffffffffffffffffffffffffff16815260200190815260200160002060009054906101000a900460ff16806112ff5750600460003373ffffffffffffffffffffffffffffffffffffffff1673ffffffffffffffffffffffffffffffffffffffff16815260200190815260200160002060009054906101000a900460ff165b61133e576040517f08c379a000000000000000000000000000000000000000000000000000000000815260040161133590611fba565b60405180910390fd5b6003600084815260200190815260200160002060020154600160003373ffffffffffffffffffffffffffffffffffffffff1673ffffffffffffffffffffffffffffffffffffffff1681526020019081526020016000206000015414806113ed5750600460003373ffffffffffffffffffffffffffffffffffffffff1673ffffffffffffffffffffffffffffffffffffffff16815260200190815260200160002060009054906101000a900460ff165b61142c576040517f08c379a000000000000000000000000000000000000000000000000000000000815260040161142390611df0565b60405180910390fd5b8060036000858152602001908152602001600020600401600084815260200190815260200160002081905550505050565b600a5481565b60095481565b600160205280600052604060002060009150905080600001549080600101805461149290611e3f565b80601f01602080910402602001604051908101604052809291908181526020018280546114be90611e3f565b801561150b5780601f106114e05761010080835404028352916020019161150b565b820191906000526020600020905b8154815290600101906020018083116114ee57829003601f168201915b5050505050908060020160009054906101000a900460ff16905083565b60075481565b606081600a548110611575576040517f08c379a000000000000000000000000000000000000000000000000000000000815260040161156c90611d18565b60405180910390fd5b600560003373ffffffffffffffffffffffffffffffffffffffff1673ffffffffffffffffffffffffffffffffffffffff16815260200190815260200160002060009054906101000a900460ff16806116165750600460003373ffffffffffffffffffffffffffffffffffffffff1673ffffffffffffffffffffffffffffffffffffffff16815260200190815260200160002060009054906101000a900460ff165b611655576040517f08c379a000000000000000000000000000000000000000000000000000000000815260040161164c90611fba565b60405180910390fd5b600360008481526020019081526020016000206003018054806020026020016040519081016040528092919081815260200182805480156116b557602002820191906000526020600020905b8154815260200190600101908083116116a1575b5050505050915050919050565b600073ffffffffffffffffffffffffffffffffffffffff82169050919050565b60006116ed826116c2565b9050919050565b6116fd816116e2565b82525050565b600060208201905061171860008301846116f4565b92915050565b6000604051905090565b600080fd5b600080fd5b6000819050919050565b61174581611732565b811461175057600080fd5b50565b6000813590506117628161173c565b92915050565b6000806040838503121561177f5761177e611728565b5b600061178d85828601611753565b925050602061179e85828601611753565b9150509250929050565b6117b181611732565b82525050565b60006020820190506117cc60008301846117a8565b92915050565b6117db816116e2565b81146117e657600080fd5b50565b6000813590506117f8816117d2565b92915050565b60006020828403121561181457611813611728565b5b6000611822848285016117e9565b91505092915050565b600081519050919050565b600082825260208201905092915050565b60005b8381101561186557808201518184015260208101905061184a565b60008484015250505050565b6000601f19601f8301169050919050565b600061188d8261182b565b6118978185611836565b93506118a7818560208601611847565b6118b081611871565b840191505092915050565b60008115159050919050565b6118d0816118bb565b82525050565b60006060820190506118eb60008301866117a8565b81810360208301526118fd8185611882565b905061190c60408301846118c7565b949350505050565b6000806040838503121561192b5761192a611728565b5b6000611939858286016117e9565b925050602061194a85828601611753565b9150509250929050565b600080fd5b600080fd5b7f4e487b7100000000000000000000000000000000000000000000000000000000600052604160045260246000fd5b61199682611871565b810181811067ffffffffffffffff821117156119b5576119b461195e565b5b80604052505050565b60006119c861171e565b90506119d4828261198d565b919050565b600067ffffffffffffffff8211156119f4576119f361195e565b5b6119fd82611871565b9050602081019050919050565b82818337600083830152505050565b6000611a2c611a27846119d9565b6119be565b905082815260208101848484011115611a4857611a47611959565b5b611a53848285611a0a565b509392505050565b600082601f830112611a7057611a6f611954565b5b8135611a80848260208601611a19565b91505092915050565b60008060408385031215611aa057611a9f611728565b5b6000611aae858286016117e9565b925050602083013567ffffffffffffffff811115611acf57611ace61172d565b5b611adb85828601611a5b565b9150509250929050565b600060208284031215611afb57611afa611728565b5b6000611b0984828501611753565b91505092915050565b6000606082019050611b2760008301866117a8565b8181036020830152611b398185611882565b9050611b4860408301846117a8565b949350505050565b600060208284031215611b6657611b65611728565b5b600082013567ffffffffffffffff811115611b8457611b8361172d565b5b611b9084828501611a5b565b91505092915050565b600080600060608486031215611bb257611bb1611728565b5b6000611bc086828701611753565b9350506020611bd186828701611753565b9250506040611be286828701611753565b9150509250925092565b600081519050919050565b600082825260208201905092915050565b6000819050602082019050919050565b611c2181611732565b82525050565b6000611c338383611c18565b60208301905092915050565b6000602082019050919050565b6000611c5782611bec565b611c618185611bf7565b9350611c6c83611c08565b8060005b83811015611c9d578151611c848882611c27565b9750611c8f83611c3f565b925050600181019050611c70565b5085935050505092915050565b60006020820190508181036000830152611cc48184611c4c565b905092915050565b7f6d6174612070656c616a6172616e20646f6573206e6f74206578697374000000600082015250565b6000611d02601d83611836565b9150611d0d82611ccc565b602082019050919050565b60006020820190508181036000830152611d3181611cf5565b9050919050565b7f73747564656e7420646f6573206e6f7420657869737400000000000000000000600082015250565b6000611d6e601683611836565b9150611d7982611d38565b602082019050919050565b60006020820190508181036000830152611d9d81611d61565b9050919050565b7f41646472657373206973206e6f7420617574686f72697a656400000000000000600082015250565b6000611dda601983611836565b9150611de582611da4565b602082019050919050565b60006020820190508181036000830152611e0981611dcd565b9050919050565b7f4e487b7100000000000000000000000000000000000000000000000000000000600052602260045260246000fd5b60006002820490506001821680611e5757607f821691505b602082108103611e6a57611e69611e10565b5b50919050565b7f41646472657373206973206e6f7420616e2061646d696e000000000000000000600082015250565b6000611ea6601783611836565b9150611eb182611e70565b602082019050919050565b60006020820190508181036000830152611ed581611e99565b9050919050565b7f73747564656e74206164647265737320616c726561647920726567697374657260008201527f6564000000000000000000000000000000000000000000000000000000000000602082015250565b6000611f38602283611836565b9150611f4382611edc565b604082019050919050565b60006020820190508181036000830152611f6781611f2b565b9050919050565b7f41646472657373206973206e6f7420612074656163686572202f2061646d696e600082015250565b6000611fa4602083611836565b9150611faf82611f6e565b602082019050919050565b60006020820190508181036000830152611fd381611f97565b9050919050565b60008190508160005260206000209050919050565b60006020601f8301049050919050565b600082821b905092915050565b60006008830261203c7fffffffffffffffffffffffffffffffffffffffffffffffffffffffffffffffff82611fff565b6120468683611fff565b95508019841693508086168417925050509392505050565b6000819050919050565b600061208361207e61207984611732565b61205e565b611732565b9050919050565b6000819050919050565b61209d83612068565b6120b16120a98261208a565b84845461200c565b825550505050565b600090565b6120c66120b9565b6120d1818484612094565b505050565b5b818110156120f5576120ea6000826120be565b6001810190506120d7565b5050565b601f82111561213a5761210b81611fda565b61211484611fef565b81016020851015612123578190505b61213761212f85611fef565b8301826120d6565b50505b505050565b600082821c905092915050565b600061215d6000198460080261213f565b1980831691505092915050565b6000612176838361214c565b9150826002028217905092915050565b61218f8261182b565b67ffffffffffffffff8111156121a8576121a761195e565b5b6121b28254611e3f565b6121bd8282856120f9565b600060209050601f8311600181146121f057600084156121de578287015190505b6121e8858261216a565b865550612250565b601f1984166121fe86611fda565b60005b8281101561222657848901518255600182019150602085019450602081019050612201565b86831015612243578489015161223f601f89168261214c565b8355505b6001600288020188555050505b505050505050565b7f4e487b7100000000000000000000000000000000000000000000000000000000600052601160045260246000fd5b600061229282611732565b91507fffffffffffffffffffffffffffffffffffffffffffffffffffffffffffffffff82036122c4576122c3612258565b5b600182019050919050565b60006040820190506122e460008301856116f4565b81810360208301526122f68184611882565b90509392505050565b7f74656163686572206164647265737320616c726561647920726567697374657260008201527f6564000000000000000000000000000000000000000000000000000000000000602082015250565b600061235b602283611836565b9150612366826122ff565b604082019050919050565b6000602082019050818103600083015261238a8161234e565b9050919050565b7f61646d696e206164647265737320616c72656164792072656769737465726564600082015250565b60006123c7602083611836565b91506123d282612391565b602082019050919050565b600060208201905081810360008301526123f6816123ba565b905091905056fea2646970667358221220431c289ae162c9fd7701c3db2fbb1db0dbec4674ca0abc5a41ef4a8653d73e9c64736f6c63430008180033",
  "linkReferences": {},
  "deployedLinkReferences": {}
}