{
  "_format": "hh-sol-artifact-1",
  "contractName": "SchoolManagement",
  "sourceName": "contracts/SchoolManagement.sol",
  "abi": [
    {
      "inputs": [],
      "stateMutability": "nonpayable",
      "type": "constructor"
    },
    {
      "anonymous": false,
      "inputs": [
        {
          "indexed": false,
          "internalType": "string",
          "name": "namaMataPelajaran",
          "type": "string"
        }
      ],
      "name": "mataPelajaranAdded",
      "type": "event"
    },
    {
      "anonymous": false,
      "inputs": [
        {
          "indexed": false,
          "internalType": "address",
          "name": "_studentAddress",
          "type": "address"
        },
        {
          "indexed": false,
          "internalType": "string",
          "name": "namaMataPelajaran",
          "type": "string"
        },
        {
          "indexed": false,
          "internalType": "uint256",
          "name": "score",
          "type": "uint256"
        }
      ],
      "name": "scoreAdded",
      "type": "event"
    },
    {
      "anonymous": false,
      "inputs": [
        {
          "indexed": false,
          "internalType": "address",
          "name": "_studentAddress",
          "type": "address"
        },
        {
          "indexed": false,
          "internalType": "string",
          "name": "studentName",
          "type": "string"
        }
      ],
      "name": "studentAdded",
      "type": "event"
    },
    {
      "anonymous": false,
      "inputs": [
        {
          "indexed": false,
          "internalType": "address",
          "name": "_studentAddress",
          "type": "address"
        },
        {
          "indexed": false,
          "internalType": "string",
          "name": "namaMataPelajaran",
          "type": "string"
        }
      ],
      "name": "studentPelajaranAdded",
      "type": "event"
    },
    {
      "anonymous": false,
      "inputs": [
        {
          "indexed": false,
          "internalType": "address",
          "name": "_teacherAddress",
          "type": "address"
        },
        {
          "indexed": false,
          "internalType": "string",
          "name": "teacherName",
          "type": "string"
        }
      ],
      "name": "teacherAdded",
      "type": "event"
    },
    {
      "anonymous": false,
      "inputs": [
        {
          "indexed": false,
          "internalType": "address",
          "name": "_teacherAddress",
          "type": "address"
        },
        {
          "indexed": false,
          "internalType": "string",
          "name": "namaMataPelajaran",
          "type": "string"
        }
      ],
      "name": "teacherPelajaranAdded",
      "type": "event"
    },
    {
      "inputs": [
        {
          "internalType": "string",
          "name": "_name",
          "type": "string"
        },
        {
          "internalType": "address",
          "name": "addr",
          "type": "address"
        }
      ],
      "name": "addMataPelajaran",
      "outputs": [],
      "stateMutability": "nonpayable",
      "type": "function"
    },
    {
      "inputs": [
        {
          "internalType": "uint256",
          "name": "_matapelajaranID",
          "type": "uint256"
        },
        {
          "internalType": "address",
          "name": "addr",
          "type": "address"
        },
        {
          "internalType": "uint256",
          "name": "_score",
          "type": "uint256"
        }
      ],
      "name": "addScore",
      "outputs": [],
      "stateMutability": "nonpayable",
      "type": "function"
    },
    {
      "inputs": [
        {
          "internalType": "address",
          "name": "addr",
          "type": "address"
        },
        {
          "internalType": "string",
          "name": "_name",
          "type": "string"
        }
      ],
      "name": "addStudent",
      "outputs": [],
      "stateMutability": "nonpayable",
      "type": "function"
    },
    {
      "inputs": [
        {
          "internalType": "address",
          "name": "addr",
          "type": "address"
        },
        {
          "internalType": "uint256",
          "name": "_matapelajaranID",
          "type": "uint256"
        }
      ],
      "name": "addStudentPelajaran",
      "outputs": [],
      "stateMutability": "nonpayable",
      "type": "function"
    },
    {
      "inputs": [
        {
          "internalType": "address",
          "name": "addr",
          "type": "address"
        },
        {
          "internalType": "string",
          "name": "_name",
          "type": "string"
        }
      ],
      "name": "addTeacher",
      "outputs": [],
      "stateMutability": "nonpayable",
      "type": "function"
    },
    {
      "inputs": [],
      "name": "admin",
      "outputs": [
        {
          "internalType": "address",
          "name": "",
          "type": "address"
        }
      ],
      "stateMutability": "view",
      "type": "function"
    },
    {
      "inputs": [
        {
          "internalType": "address",
          "name": "addr",
          "type": "address"
        }
      ],
      "name": "checkTeachers",
      "outputs": [
        {
          "internalType": "bool",
          "name": "",
          "type": "bool"
        }
      ],
      "stateMutability": "view",
      "type": "function"
    },
    {
      "inputs": [
        {
          "internalType": "uint256",
          "name": "_matapelajaranID",
          "type": "uint256"
        }
      ],
      "name": "getMataPelajaranStudents",
      "outputs": [
        {
          "internalType": "address[]",
          "name": "",
          "type": "address[]"
        }
      ],
      "stateMutability": "view",
      "type": "function"
    },
    {
      "inputs": [
        {
          "internalType": "address",
          "name": "addr",
          "type": "address"
        }
      ],
      "name": "getStudent",
      "outputs": [
        {
          "internalType": "bool",
          "name": "",
          "type": "bool"
        }
      ],
      "stateMutability": "view",
      "type": "function"
    },
    {
      "inputs": [
        {
          "internalType": "address",
          "name": "addr",
          "type": "address"
        }
      ],
      "name": "getStudentData",
      "outputs": [
        {
          "components": [
            {
              "internalType": "string",
              "name": "name",
              "type": "string"
            }
          ],
          "internalType": "struct SchoolManagement.Student",
          "name": "student",
          "type": "tuple"
        }
      ],
      "stateMutability": "view",
      "type": "function"
    },
    {
      "inputs": [
        {
          "internalType": "address",
          "name": "addr",
          "type": "address"
        }
      ],
      "name": "getStudentMataPelajarans",
      "outputs": [
        {
          "internalType": "uint256[]",
          "name": "",
          "type": "uint256[]"
        }
      ],
      "stateMutability": "view",
      "type": "function"
    },
    {
      "inputs": [
        {
          "internalType": "uint256",
          "name": "_matapelajaranID",
          "type": "uint256"
        },
        {
          "internalType": "address",
          "name": "addr",
          "type": "address"
        }
      ],
      "name": "getStudentScore",
      "outputs": [
        {
          "internalType": "uint256",
          "name": "",
          "type": "uint256"
        }
      ],
      "stateMutability": "view",
      "type": "function"
    },
    {
      "inputs": [
        {
          "internalType": "address",
          "name": "addr",
          "type": "address"
        }
      ],
      "name": "getTeacher",
      "outputs": [
        {
          "internalType": "bool",
          "name": "",
          "type": "bool"
        }
      ],
      "stateMutability": "view",
      "type": "function"
    },
    {
      "inputs": [
        {
          "internalType": "address",
          "name": "",
          "type": "address"
        }
      ],
      "name": "listAdmin",
      "outputs": [
        {
          "internalType": "bool",
          "name": "",
          "type": "bool"
        }
      ],
      "stateMutability": "view",
      "type": "function"
    },
    {
      "inputs": [
        {
          "internalType": "address",
          "name": "",
          "type": "address"
        }
      ],
      "name": "listStudent",
      "outputs": [
        {
          "internalType": "bool",
          "name": "",
          "type": "bool"
        }
      ],
      "stateMutability": "view",
      "type": "function"
    },
    {
      "inputs": [
        {
          "internalType": "address",
          "name": "",
          "type": "address"
        }
      ],
      "name": "listTeacher",
      "outputs": [
        {
          "internalType": "bool",
          "name": "",
          "type": "bool"
        }
      ],
      "stateMutability": "view",
      "type": "function"
    },
    {
      "inputs": [],
      "name": "mataPelajaranCounter",
      "outputs": [
        {
          "internalType": "uint256",
          "name": "",
          "type": "uint256"
        }
      ],
      "stateMutability": "view",
      "type": "function"
    },
    {
      "inputs": [
        {
          "internalType": "uint256",
          "name": "",
          "type": "uint256"
        }
      ],
      "name": "matapelajarans",
      "outputs": [
        {
          "internalType": "string",
          "name": "name",
          "type": "string"
        },
        {
          "internalType": "address",
          "name": "teacherAddress",
          "type": "address"
        }
      ],
      "stateMutability": "view",
      "type": "function"
    },
    {
      "inputs": [],
      "name": "studentCounter",
      "outputs": [
        {
          "internalType": "uint256",
          "name": "",
          "type": "uint256"
        }
      ],
      "stateMutability": "view",
      "type": "function"
    },
    {
      "inputs": [
        {
          "internalType": "address",
          "name": "",
          "type": "address"
        }
      ],
      "name": "students",
      "outputs": [
        {
          "internalType": "string",
          "name": "name",
          "type": "string"
        }
      ],
      "stateMutability": "view",
      "type": "function"
    },
    {
      "inputs": [],
      "name": "teacherCounter",
      "outputs": [
        {
          "internalType": "uint256",
          "name": "",
          "type": "uint256"
        }
      ],
      "stateMutability": "view",
      "type": "function"
    },
    {
      "inputs": [
        {
          "internalType": "address",
          "name": "",
          "type": "address"
        }
      ],
      "name": "teachers",
      "outputs": [
        {
          "internalType": "string",
          "name": "name",
          "type": "string"
        }
      ],
      "stateMutability": "view",
      "type": "function"
    }
  ],
  "bytecode": "0x608060405234801561001057600080fd5b50336000806101000a81548173ffffffffffffffffffffffffffffffffffffffff021916908373ffffffffffffffffffffffffffffffffffffffff1602179055506001600460003373ffffffffffffffffffffffffffffffffffffffff1673ffffffffffffffffffffffffffffffffffffffff16815260200190815260200160002060006101000a81548160ff021916908315150217905550612b37806100b86000396000f3fe608060405234801561001057600080fd5b50600436106101375760003560e01c80639cf08cad116100b8578063d5bb305d1161007c578063d5bb305d14610397578063e3596cac146103b5578063f0a47f78146103d3578063f851a44014610403578063fb4326fa14610421578063ffda656f1461045157610137565b80639cf08cad146102bb578063a6c807a9146102eb578063a9dafbe91461031b578063aa128c491461034b578063cfb333951461036757610137565b80637194c5b3116100ff5780637194c5b314610204578063797201e5146102225780637df674e5146102525780637fcd6369146102835780638f5b9b2e1461029f57610137565b80631d769b321461013c5780634bc4fe8a1461016c5780635e8b80911461019c57806367c5ea85146101b85780636b7b44d7146101d4575b600080fd5b61015660048036038101906101519190611c7f565b610481565b6040516101639190611d74565b60405180910390f35b61018660048036038101906101819190611c7f565b610683565b6040516101939190611db1565b60405180910390f35b6101b660048036038101906101b19190611f12565b6107e2565b005b6101d260048036038101906101cd9190611f9a565b610a79565b005b6101ee60048036038101906101e99190611c7f565b610d0c565b6040516101fb9190611db1565b60405180910390f35b61020c610d62565b6040516102199190611ffc565b60405180910390f35b61023c60048036038101906102379190611c7f565b610d68565b6040516102499190611db1565b60405180910390f35b61026c60048036038101906102679190612017565b610d88565b60405161027a9291906120d2565b60405180910390f35b61029d60048036038101906102989190612102565b610e54565b005b6102b960048036038101906102b49190611f12565b611103565b005b6102d560048036038101906102d09190611c7f565b61133a565b6040516102e29190611db1565b60405180910390f35b61030560048036038101906103009190611c7f565b61135a565b6040516103129190612142565b60405180910390f35b61033560048036038101906103309190612164565b611400565b6040516103429190611ffc565b60405180910390f35b610365600480360381019061036091906121a4565b61164f565b005b610381600480360381019061037c9190611c7f565b6117fd565b60405161038e9190611db1565b60405180910390f35b61039f61181d565b6040516103ac9190611ffc565b60405180910390f35b6103bd611823565b6040516103ca9190611ffc565b60405180910390f35b6103ed60048036038101906103e89190611c7f565b611829565b6040516103fa9190612142565b60405180910390f35b61040b6118cf565b6040516104189190612200565b60405180910390f35b61043b60048036038101906104369190611c7f565b6118f3565b6040516104489190611db1565b60405180910390f35b61046b60048036038101906104669190612017565b611949565b60405161047891906122d9565b60405180910390f35b6060600060095467ffffffffffffffff8111156104a1576104a0611de7565b5b6040519080825280602002602001820160405280156104cf5781602001602082028036833780820191505090505b5090506000805b6009548110156105d75760005b60036000838152602001908152602001600020600201805490508110156105c9578573ffffffffffffffffffffffffffffffffffffffff16600360008481526020019081526020016000206002018281548110610543576105426122fb565b5b9060005260206000200160009054906101000a900473ffffffffffffffffffffffffffffffffffffffff1673ffffffffffffffffffffffffffffffffffffffff16036105bc578184848151811061059d5761059c6122fb565b5b60200260200101818152505082806105b490612359565b9350506105c9565b80806001019150506104e3565b5080806001019150506104d6565b5060008167ffffffffffffffff8111156105f4576105f3611de7565b5b6040519080825280602002602001820160405280156106225781602001602082028036833780820191505090505b50905060005b8281101561067757838181518110610643576106426122fb565b5b602002602001015182828151811061065e5761065d6122fb565b5b6020026020010181815250508080600101915050610628565b50809350505050919050565b600061078e6040518060400160405280600e81526020017f54656163686572204e616d653a20000000000000000000000000000000000000815250600160008573ffffffffffffffffffffffffffffffffffffffff1673ffffffffffffffffffffffffffffffffffffffff168152602001908152602001600020600001805461070b906123d0565b80601f0160208091040260200160405190810160405280929190818152602001828054610737906123d0565b80156107845780601f1061075957610100808354040283529160200191610784565b820191906000526020600020905b81548152906001019060200180831161076757829003601f168201915b5050505050611b21565b600560008373ffffffffffffffffffffffffffffffffffffffff1673ffffffffffffffffffffffffffffffffffffffff16815260200190815260200160002060009054906101000a900460ff169050919050565b8160001515600660008373ffffffffffffffffffffffffffffffffffffffff1673ffffffffffffffffffffffffffffffffffffffff16815260200190815260200160002060009054906101000a900460ff16151514610876576040517f08c379a000000000000000000000000000000000000000000000000000000000815260040161086d90612473565b60405180910390fd5b60011515600560003373ffffffffffffffffffffffffffffffffffffffff1673ffffffffffffffffffffffffffffffffffffffff16815260200190815260200160002060009054906101000a900460ff1615151480610925575060011515600460003373ffffffffffffffffffffffffffffffffffffffff1673ffffffffffffffffffffffffffffffffffffffff16815260200190815260200160002060009054906101000a900460ff161515145b610964576040517f08c379a000000000000000000000000000000000000000000000000000000000815260040161095b906124df565b60405180910390fd5b604051806020016040528083815250600260008573ffffffffffffffffffffffffffffffffffffffff1673ffffffffffffffffffffffffffffffffffffffff16815260200190815260200160002060008201518160000190816109c791906126ab565b509050506001600660008573ffffffffffffffffffffffffffffffffffffffff1673ffffffffffffffffffffffffffffffffffffffff16815260200190815260200160002060006101000a81548160ff02191690831515021790555060086000815480929190610a3690612359565b91905055507f94a56de67dd66b06691e0bd81e5b57fbf02e3ce04576def9d15b6371a0109fd28383604051610a6c92919061277d565b60405180910390a1505050565b60011515600560003373ffffffffffffffffffffffffffffffffffffffff1673ffffffffffffffffffffffffffffffffffffffff16815260200190815260200160002060009054906101000a900460ff1615151480610b28575060011515600460003373ffffffffffffffffffffffffffffffffffffffff1673ffffffffffffffffffffffffffffffffffffffff16815260200190815260200160002060009054906101000a900460ff161515145b610b67576040517f08c379a0000000000000000000000000000000000000000000000000000000008152600401610b5e906124df565b60405180910390fd5b6003600084815260200190815260200160002060010160009054906101000a900473ffffffffffffffffffffffffffffffffffffffff1673ffffffffffffffffffffffffffffffffffffffff163373ffffffffffffffffffffffffffffffffffffffff161480610c205750600460003373ffffffffffffffffffffffffffffffffffffffff1673ffffffffffffffffffffffffffffffffffffffff16815260200190815260200160002060009054906101000a900460ff165b610c5f576040517f08c379a0000000000000000000000000000000000000000000000000000000008152600401610c56906127f9565b60405180910390fd5b806003600085815260200190815260200160002060030160008473ffffffffffffffffffffffffffffffffffffffff1673ffffffffffffffffffffffffffffffffffffffff168152602001908152602001600020819055507f6dca3a3f0ad0084aa45ac903a74dad8451bc742f036de0182ef554a6a636fdf0826003600086815260200190815260200160002060000183604051610cff9392919061289d565b60405180910390a1505050565b6000600660008373ffffffffffffffffffffffffffffffffffffffff1673ffffffffffffffffffffffffffffffffffffffff16815260200190815260200160002060009054906101000a900460ff169050919050565b60075481565b60056020528060005260406000206000915054906101000a900460ff1681565b6003602052806000526040600020600091509050806000018054610dab906123d0565b80601f0160208091040260200160405190810160405280929190818152602001828054610dd7906123d0565b8015610e245780601f10610df957610100808354040283529160200191610e24565b820191906000526020600020905b815481529060010190602001808311610e0757829003601f168201915b5050505050908060010160009054906101000a900473ffffffffffffffffffffffffffffffffffffffff16905082565b60011515600560003373ffffffffffffffffffffffffffffffffffffffff1673ffffffffffffffffffffffffffffffffffffffff16815260200190815260200160002060009054906101000a900460ff1615151480610f03575060011515600460003373ffffffffffffffffffffffffffffffffffffffff1673ffffffffffffffffffffffffffffffffffffffff16815260200190815260200160002060009054906101000a900460ff161515145b610f42576040517f08c379a0000000000000000000000000000000000000000000000000000000008152600401610f39906124df565b60405180910390fd5b6003600082815260200190815260200160002060010160009054906101000a900473ffffffffffffffffffffffffffffffffffffffff1673ffffffffffffffffffffffffffffffffffffffff163373ffffffffffffffffffffffffffffffffffffffff161480610ffb5750600460003373ffffffffffffffffffffffffffffffffffffffff1673ffffffffffffffffffffffffffffffffffffffff16815260200190815260200160002060009054906101000a900460ff165b61103a576040517f08c379a0000000000000000000000000000000000000000000000000000000008152600401611031906127f9565b60405180910390fd5b60036000828152602001908152602001600020600201829080600181540180825580915050600190039060005260206000200160009091909190916101000a81548173ffffffffffffffffffffffffffffffffffffffff021916908373ffffffffffffffffffffffffffffffffffffffff1602179055507fe113aa050b8da447370c66aff62902eaadacd312e63b1ea81fdfc08fb089784882600360008481526020019081526020016000206000016040516110f79291906128db565b60405180910390a15050565b8160001515600560008373ffffffffffffffffffffffffffffffffffffffff1673ffffffffffffffffffffffffffffffffffffffff16815260200190815260200160002060009054906101000a900460ff16151514611197576040517f08c379a000000000000000000000000000000000000000000000000000000000815260040161118e9061297d565b60405180910390fd5b60008054906101000a900473ffffffffffffffffffffffffffffffffffffffff1673ffffffffffffffffffffffffffffffffffffffff163373ffffffffffffffffffffffffffffffffffffffff1614611225576040517f08c379a000000000000000000000000000000000000000000000000000000000815260040161121c90612a0f565b60405180910390fd5b604051806020016040528083815250600160008573ffffffffffffffffffffffffffffffffffffffff1673ffffffffffffffffffffffffffffffffffffffff168152602001908152602001600020600082015181600001908161128891906126ab565b509050506001600560008573ffffffffffffffffffffffffffffffffffffffff1673ffffffffffffffffffffffffffffffffffffffff16815260200190815260200160002060006101000a81548160ff021916908315150217905550600760008154809291906112f790612359565b91905055507f6996ba1536de57e4c72a268600ac97e3feae59f326494fce7dc56c6c6de959e3838360405161132d92919061277d565b60405180910390a1505050565b60046020528060005260406000206000915054906101000a900460ff1681565b600260205280600052604060002060009150905080600001805461137d906123d0565b80601f01602080910402602001604051908101604052809291908181526020018280546113a9906123d0565b80156113f65780601f106113cb576101008083540402835291602001916113f6565b820191906000526020600020905b8154815290600101906020018083116113d957829003601f168201915b5050505050905081565b6000826009548110611447576040517f08c379a000000000000000000000000000000000000000000000000000000000815260040161143e90612a7b565b60405180910390fd5b8260001515600660008373ffffffffffffffffffffffffffffffffffffffff1673ffffffffffffffffffffffffffffffffffffffff16815260200190815260200160002060009054906101000a900460ff161515146114db576040517f08c379a00000000000000000000000000000000000000000000000000000000081526004016114d290612473565b60405180910390fd5b8373ffffffffffffffffffffffffffffffffffffffff163373ffffffffffffffffffffffffffffffffffffffff16148061155e5750600460003373ffffffffffffffffffffffffffffffffffffffff1673ffffffffffffffffffffffffffffffffffffffff16815260200190815260200160002060009054906101000a900460ff165b806115b25750600560003373ffffffffffffffffffffffffffffffffffffffff1673ffffffffffffffffffffffffffffffffffffffff16815260200190815260200160002060009054906101000a900460ff165b6115f1576040517f08c379a00000000000000000000000000000000000000000000000000000000081526004016115e8906127f9565b60405180910390fd5b6003600086815260200190815260200160002060030160008573ffffffffffffffffffffffffffffffffffffffff1673ffffffffffffffffffffffffffffffffffffffff168152602001908152602001600020549250505092915050565b60008054906101000a900473ffffffffffffffffffffffffffffffffffffffff1673ffffffffffffffffffffffffffffffffffffffff163373ffffffffffffffffffffffffffffffffffffffff16146116dd576040517f08c379a00000000000000000000000000000000000000000000000000000000081526004016116d490612a0f565b60405180910390fd5b81600360006009548152602001908152602001600020600001908161170291906126ab565b508060036000600954815260200190815260200160002060010160006101000a81548173ffffffffffffffffffffffffffffffffffffffff021916908373ffffffffffffffffffffffffffffffffffffffff1602179055506009600081548092919061176d90612359565b91905055507f7646b8ac4e7fd0edb8c8c7f98d7a8e6b40c5c3ee848aebf0628fa72e08e61efa826040516117a19190612142565b60405180910390a17f666e55c8ba70beeafdf0c10f6d389a4fec2ce0f62e4e15f6b29ce3c114c12d1e816003600060095481526020019081526020016000206000016040516117f19291906128db565b60405180910390a15050565b60066020528060005260406000206000915054906101000a900460ff1681565b60095481565b60085481565b600160205280600052604060002060009150905080600001805461184c906123d0565b80601f0160208091040260200160405190810160405280929190818152602001828054611878906123d0565b80156118c55780601f1061189a576101008083540402835291602001916118c5565b820191906000526020600020905b8154815290600101906020018083116118a857829003601f168201915b5050505050905081565b60008054906101000a900473ffffffffffffffffffffffffffffffffffffffff1681565b6000600560008373ffffffffffffffffffffffffffffffffffffffff1673ffffffffffffffffffffffffffffffffffffffff16815260200190815260200160002060009054906101000a900460ff169050919050565b6060816009548110611990576040517f08c379a000000000000000000000000000000000000000000000000000000000815260040161198790612a7b565b60405180910390fd5b60011515600560003373ffffffffffffffffffffffffffffffffffffffff1673ffffffffffffffffffffffffffffffffffffffff16815260200190815260200160002060009054906101000a900460ff1615151480611a3f575060011515600460003373ffffffffffffffffffffffffffffffffffffffff1673ffffffffffffffffffffffffffffffffffffffff16815260200190815260200160002060009054906101000a900460ff161515145b611a7e576040517f08c379a0000000000000000000000000000000000000000000000000000000008152600401611a75906124df565b60405180910390fd5b60036000848152602001908152602001600020600201805480602002602001604051908101604052809291908181526020018280548015611b1457602002820191906000526020600020905b8160009054906101000a900473ffffffffffffffffffffffffffffffffffffffff1673ffffffffffffffffffffffffffffffffffffffff1681526020019060010190808311611aca575b5050505050915050919050565b611bb98282604051602401611b37929190612a9b565b6040516020818303038152906040527f4b5c4277000000000000000000000000000000000000000000000000000000007bffffffffffffffffffffffffffffffffffffffffffffffffffffffff19166020820180517bffffffffffffffffffffffffffffffffffffffffffffffffffffffff8381831617835250505050611bbd565b5050565b611bd481611bcc611bd7611bf8565b63ffffffff16565b50565b60006a636f6e736f6c652e6c6f679050600080835160208501845afa505050565b611c03819050919050565b611c0b612ad2565b565b6000604051905090565b600080fd5b600080fd5b600073ffffffffffffffffffffffffffffffffffffffff82169050919050565b6000611c4c82611c21565b9050919050565b611c5c81611c41565b8114611c6757600080fd5b50565b600081359050611c7981611c53565b92915050565b600060208284031215611c9557611c94611c17565b5b6000611ca384828501611c6a565b91505092915050565b600081519050919050565b600082825260208201905092915050565b6000819050602082019050919050565b6000819050919050565b611ceb81611cd8565b82525050565b6000611cfd8383611ce2565b60208301905092915050565b6000602082019050919050565b6000611d2182611cac565b611d2b8185611cb7565b9350611d3683611cc8565b8060005b83811015611d67578151611d4e8882611cf1565b9750611d5983611d09565b925050600181019050611d3a565b5085935050505092915050565b60006020820190508181036000830152611d8e8184611d16565b905092915050565b60008115159050919050565b611dab81611d96565b82525050565b6000602082019050611dc66000830184611da2565b92915050565b600080fd5b600080fd5b6000601f19601f8301169050919050565b7f4e487b7100000000000000000000000000000000000000000000000000000000600052604160045260246000fd5b611e1f82611dd6565b810181811067ffffffffffffffff82111715611e3e57611e3d611de7565b5b80604052505050565b6000611e51611c0d565b9050611e5d8282611e16565b919050565b600067ffffffffffffffff821115611e7d57611e7c611de7565b5b611e8682611dd6565b9050602081019050919050565b82818337600083830152505050565b6000611eb5611eb084611e62565b611e47565b905082815260208101848484011115611ed157611ed0611dd1565b5b611edc848285611e93565b509392505050565b600082601f830112611ef957611ef8611dcc565b5b8135611f09848260208601611ea2565b91505092915050565b60008060408385031215611f2957611f28611c17565b5b6000611f3785828601611c6a565b925050602083013567ffffffffffffffff811115611f5857611f57611c1c565b5b611f6485828601611ee4565b9150509250929050565b611f7781611cd8565b8114611f8257600080fd5b50565b600081359050611f9481611f6e565b92915050565b600080600060608486031215611fb357611fb2611c17565b5b6000611fc186828701611f85565b9350506020611fd286828701611c6a565b9250506040611fe386828701611f85565b9150509250925092565b611ff681611cd8565b82525050565b60006020820190506120116000830184611fed565b92915050565b60006020828403121561202d5761202c611c17565b5b600061203b84828501611f85565b91505092915050565b600081519050919050565b600082825260208201905092915050565b60005b8381101561207e578082015181840152602081019050612063565b60008484015250505050565b600061209582612044565b61209f818561204f565b93506120af818560208601612060565b6120b881611dd6565b840191505092915050565b6120cc81611c41565b82525050565b600060408201905081810360008301526120ec818561208a565b90506120fb60208301846120c3565b9392505050565b6000806040838503121561211957612118611c17565b5b600061212785828601611c6a565b925050602061213885828601611f85565b9150509250929050565b6000602082019050818103600083015261215c818461208a565b905092915050565b6000806040838503121561217b5761217a611c17565b5b600061218985828601611f85565b925050602061219a85828601611c6a565b9150509250929050565b600080604083850312156121bb576121ba611c17565b5b600083013567ffffffffffffffff8111156121d9576121d8611c1c565b5b6121e585828601611ee4565b92505060206121f685828601611c6a565b9150509250929050565b600060208201905061221560008301846120c3565b92915050565b600081519050919050565b600082825260208201905092915050565b6000819050602082019050919050565b61225081611c41565b82525050565b60006122628383612247565b60208301905092915050565b6000602082019050919050565b60006122868261221b565b6122908185612226565b935061229b83612237565b8060005b838110156122cc5781516122b38882612256565b97506122be8361226e565b92505060018101905061229f565b5085935050505092915050565b600060208201905081810360008301526122f3818461227b565b905092915050565b7f4e487b7100000000000000000000000000000000000000000000000000000000600052603260045260246000fd5b7f4e487b7100000000000000000000000000000000000000000000000000000000600052601160045260246000fd5b600061236482611cd8565b91507fffffffffffffffffffffffffffffffffffffffffffffffffffffffffffffffff82036123965761239561232a565b5b600182019050919050565b7f4e487b7100000000000000000000000000000000000000000000000000000000600052602260045260246000fd5b600060028204905060018216806123e857607f821691505b6020821081036123fb576123fa6123a1565b5b50919050565b7f73747564656e74206164647265737320616c726561647920726567697374657260008201527f6564000000000000000000000000000000000000000000000000000000000000602082015250565b600061245d60228361204f565b915061246882612401565b604082019050919050565b6000602082019050818103600083015261248c81612450565b9050919050565b7f41646472657373206973206e6f7420612074656163686572202f2061646d696e600082015250565b60006124c960208361204f565b91506124d482612493565b602082019050919050565b600060208201905081810360008301526124f8816124bc565b9050919050565b60008190508160005260206000209050919050565b60006020601f8301049050919050565b600082821b905092915050565b6000600883026125617fffffffffffffffffffffffffffffffffffffffffffffffffffffffffffffffff82612524565b61256b8683612524565b95508019841693508086168417925050509392505050565b6000819050919050565b60006125a86125a361259e84611cd8565b612583565b611cd8565b9050919050565b6000819050919050565b6125c28361258d565b6125d66125ce826125af565b848454612531565b825550505050565b600090565b6125eb6125de565b6125f68184846125b9565b505050565b5b8181101561261a5761260f6000826125e3565b6001810190506125fc565b5050565b601f82111561265f57612630816124ff565b61263984612514565b81016020851015612648578190505b61265c61265485612514565b8301826125fb565b50505b505050565b600082821c905092915050565b600061268260001984600802612664565b1980831691505092915050565b600061269b8383612671565b9150826002028217905092915050565b6126b482612044565b67ffffffffffffffff8111156126cd576126cc611de7565b5b6126d782546123d0565b6126e282828561261e565b600060209050601f8311600181146127155760008415612703578287015190505b61270d858261268f565b865550612775565b601f198416612723866124ff565b60005b8281101561274b57848901518255600182019150602085019450602081019050612726565b868310156127685784890151612764601f891682612671565b8355505b6001600288020188555050505b505050505050565b600060408201905061279260008301856120c3565b81810360208301526127a4818461208a565b90509392505050565b7f41646472657373206973206e6f7420617574686f72697a656400000000000000600082015250565b60006127e360198361204f565b91506127ee826127ad565b602082019050919050565b60006020820190508181036000830152612812816127d6565b9050919050565b60008154612826816123d0565b612830818661204f565b9450600182166000811461284b576001811461286157612894565b60ff198316865281151560200286019350612894565b61286a856124ff565b60005b8381101561288c5781548189015260018201915060208101905061286d565b808801955050505b50505092915050565b60006060820190506128b260008301866120c3565b81810360208301526128c48185612819565b90506128d36040830184611fed565b949350505050565b60006040820190506128f060008301856120c3565b81810360208301526129028184612819565b90509392505050565b7f74656163686572206164647265737320616c726561647920726567697374657260008201527f6564000000000000000000000000000000000000000000000000000000000000602082015250565b600061296760228361204f565b91506129728261290b565b604082019050919050565b600060208201905081810360008301526129968161295a565b9050919050565b7f4f6e6c792061646d696e2063616e2063616c6c20746869732066756e6374696f60008201527f6e00000000000000000000000000000000000000000000000000000000000000602082015250565b60006129f960218361204f565b9150612a048261299d565b604082019050919050565b60006020820190508181036000830152612a28816129ec565b9050919050565b7f6d6174612070656c616a6172616e20646f6573206e6f74206578697374000000600082015250565b6000612a65601d8361204f565b9150612a7082612a2f565b602082019050919050565b60006020820190508181036000830152612a9481612a58565b9050919050565b60006040820190508181036000830152612ab5818561208a565b90508181036020830152612ac9818461208a565b90509392505050565b7f4e487b7100000000000000000000000000000000000000000000000000000000600052605160045260246000fdfea264697066735822122086d8ada31cbecae98d3b25d8c38272634809d4b0442ecb109b8652d61023e9c864736f6c63430008180033",
  "linkReferences": {},
  "deployedLinkReferences": {}
}