{
  "_format": "hh-sol-artifact-1",
  "contractName": "SchoolManagement",
  "sourceName": "contracts/SchoolManagement.sol",
  "abi": [
    {
      "inputs": [],
      "stateMutability": "nonpayable",
      "type": "constructor"
    },
    {
      "anonymous": false,
      "inputs": [
        {
          "indexed": false,
          "internalType": "string",
          "name": "namaMataPelajaran",
          "type": "string"
        }
      ],
      "name": "mataPelajaranAdded",
      "type": "event"
    },
    {
      "anonymous": false,
      "inputs": [
        {
          "indexed": false,
          "internalType": "address",
          "name": "_studentAddress",
          "type": "address"
        },
        {
          "indexed": false,
          "internalType": "string",
          "name": "namaMataPelajaran",
          "type": "string"
        },
        {
          "indexed": false,
          "internalType": "uint256",
          "name": "score",
          "type": "uint256"
        }
      ],
      "name": "scoreAdded",
      "type": "event"
    },
    {
      "anonymous": false,
      "inputs": [
        {
          "indexed": false,
          "internalType": "address",
          "name": "_studentAddress",
          "type": "address"
        },
        {
          "indexed": false,
          "internalType": "string",
          "name": "studentName",
          "type": "string"
        }
      ],
      "name": "studentAdded",
      "type": "event"
    },
    {
      "anonymous": false,
      "inputs": [
        {
          "indexed": false,
          "internalType": "address",
          "name": "_studentAddress",
          "type": "address"
        },
        {
          "indexed": false,
          "internalType": "string",
          "name": "namaMataPelajaran",
          "type": "string"
        }
      ],
      "name": "studentPelajaranAdded",
      "type": "event"
    },
    {
      "anonymous": false,
      "inputs": [
        {
          "indexed": false,
          "internalType": "address",
          "name": "_teacherAddress",
          "type": "address"
        },
        {
          "indexed": false,
          "internalType": "string",
          "name": "teacherName",
          "type": "string"
        }
      ],
      "name": "teacherAdded",
      "type": "event"
    },
    {
      "anonymous": false,
      "inputs": [
        {
          "indexed": false,
          "internalType": "address",
          "name": "_teacherAddress",
          "type": "address"
        },
        {
          "indexed": false,
          "internalType": "string",
          "name": "namaMataPelajaran",
          "type": "string"
        }
      ],
      "name": "teacherPelajaranAdded",
      "type": "event"
    },
    {
      "inputs": [
        {
          "internalType": "string",
          "name": "_name",
          "type": "string"
        },
        {
          "internalType": "address",
          "name": "addr",
          "type": "address"
        }
      ],
      "name": "addMataPelajaran",
      "outputs": [],
      "stateMutability": "nonpayable",
      "type": "function"
    },
    {
      "inputs": [
        {
          "internalType": "uint256",
          "name": "_matapelajaranID",
          "type": "uint256"
        },
        {
          "internalType": "address",
          "name": "addr",
          "type": "address"
        },
        {
          "internalType": "uint256",
          "name": "_score",
          "type": "uint256"
        }
      ],
      "name": "addScore",
      "outputs": [],
      "stateMutability": "nonpayable",
      "type": "function"
    },
    {
      "inputs": [
        {
          "internalType": "address",
          "name": "addr",
          "type": "address"
        },
        {
          "internalType": "string",
          "name": "_name",
          "type": "string"
        }
      ],
      "name": "addStudent",
      "outputs": [],
      "stateMutability": "nonpayable",
      "type": "function"
    },
    {
      "inputs": [
        {
          "internalType": "address",
          "name": "addr",
          "type": "address"
        },
        {
          "internalType": "uint256",
          "name": "_matapelajaranID",
          "type": "uint256"
        }
      ],
      "name": "addStudentPelajaran",
      "outputs": [],
      "stateMutability": "nonpayable",
      "type": "function"
    },
    {
      "inputs": [
        {
          "internalType": "address",
          "name": "addr",
          "type": "address"
        },
        {
          "internalType": "string",
          "name": "_name",
          "type": "string"
        }
      ],
      "name": "addTeacher",
      "outputs": [],
      "stateMutability": "nonpayable",
      "type": "function"
    },
    {
      "inputs": [],
      "name": "admin",
      "outputs": [
        {
          "internalType": "address",
          "name": "",
          "type": "address"
        }
      ],
      "stateMutability": "view",
      "type": "function"
    },
    {
      "inputs": [
        {
          "internalType": "address",
          "name": "addr",
          "type": "address"
        }
      ],
      "name": "checkTeachers",
      "outputs": [
        {
          "internalType": "bool",
          "name": "",
          "type": "bool"
        }
      ],
      "stateMutability": "view",
      "type": "function"
    },
    {
      "inputs": [
        {
          "internalType": "uint256",
          "name": "_matapelajaranID",
          "type": "uint256"
        }
      ],
      "name": "getMataPelajaranStudents",
      "outputs": [
        {
          "internalType": "address[]",
          "name": "",
          "type": "address[]"
        }
      ],
      "stateMutability": "view",
      "type": "function"
    },
    {
      "inputs": [
        {
          "internalType": "address",
          "name": "addr",
          "type": "address"
        }
      ],
      "name": "getStudent",
      "outputs": [
        {
          "internalType": "bool",
          "name": "",
          "type": "bool"
        }
      ],
      "stateMutability": "view",
      "type": "function"
    },
    {
      "inputs": [
        {
          "internalType": "address",
          "name": "addr",
          "type": "address"
        }
      ],
      "name": "getStudentMataPelajarans",
      "outputs": [
        {
          "internalType": "uint256[]",
          "name": "",
          "type": "uint256[]"
        }
      ],
      "stateMutability": "view",
      "type": "function"
    },
    {
      "inputs": [
        {
          "internalType": "uint256",
          "name": "_matapelajaranID",
          "type": "uint256"
        },
        {
          "internalType": "address",
          "name": "addr",
          "type": "address"
        }
      ],
      "name": "getStudentScore",
      "outputs": [
        {
          "internalType": "uint256",
          "name": "",
          "type": "uint256"
        }
      ],
      "stateMutability": "view",
      "type": "function"
    },
    {
      "inputs": [
        {
          "internalType": "address",
          "name": "addr",
          "type": "address"
        }
      ],
      "name": "getTeacher",
      "outputs": [
        {
          "internalType": "bool",
          "name": "",
          "type": "bool"
        }
      ],
      "stateMutability": "view",
      "type": "function"
    },
    {
      "inputs": [
        {
          "internalType": "address",
          "name": "",
          "type": "address"
        }
      ],
      "name": "listAdmin",
      "outputs": [
        {
          "internalType": "bool",
          "name": "",
          "type": "bool"
        }
      ],
      "stateMutability": "view",
      "type": "function"
    },
    {
      "inputs": [
        {
          "internalType": "address",
          "name": "",
          "type": "address"
        }
      ],
      "name": "listStudent",
      "outputs": [
        {
          "internalType": "bool",
          "name": "",
          "type": "bool"
        }
      ],
      "stateMutability": "view",
      "type": "function"
    },
    {
      "inputs": [
        {
          "internalType": "address",
          "name": "",
          "type": "address"
        }
      ],
      "name": "listTeacher",
      "outputs": [
        {
          "internalType": "bool",
          "name": "",
          "type": "bool"
        }
      ],
      "stateMutability": "view",
      "type": "function"
    },
    {
      "inputs": [],
      "name": "mataPelajaranCounter",
      "outputs": [
        {
          "internalType": "uint256",
          "name": "",
          "type": "uint256"
        }
      ],
      "stateMutability": "view",
      "type": "function"
    },
    {
      "inputs": [
        {
          "internalType": "uint256",
          "name": "",
          "type": "uint256"
        }
      ],
      "name": "matapelajarans",
      "outputs": [
        {
          "internalType": "string",
          "name": "name",
          "type": "string"
        },
        {
          "internalType": "address",
          "name": "teacherAddress",
          "type": "address"
        }
      ],
      "stateMutability": "view",
      "type": "function"
    },
    {
      "inputs": [],
      "name": "studentCounter",
      "outputs": [
        {
          "internalType": "uint256",
          "name": "",
          "type": "uint256"
        }
      ],
      "stateMutability": "view",
      "type": "function"
    },
    {
      "inputs": [
        {
          "internalType": "address",
          "name": "",
          "type": "address"
        }
      ],
      "name": "students",
      "outputs": [
        {
          "internalType": "string",
          "name": "name",
          "type": "string"
        }
      ],
      "stateMutability": "view",
      "type": "function"
    },
    {
      "inputs": [],
      "name": "teacherCounter",
      "outputs": [
        {
          "internalType": "uint256",
          "name": "",
          "type": "uint256"
        }
      ],
      "stateMutability": "view",
      "type": "function"
    },
    {
      "inputs": [
        {
          "internalType": "address",
          "name": "",
          "type": "address"
        }
      ],
      "name": "teachers",
      "outputs": [
        {
          "internalType": "string",
          "name": "name",
          "type": "string"
        }
      ],
      "stateMutability": "view",
      "type": "function"
    }
  ],
  "bytecode": "0x608060405234801561001057600080fd5b50336000806101000a81548173ffffffffffffffffffffffffffffffffffffffff021916908373ffffffffffffffffffffffffffffffffffffffff1602179055506001600460003373ffffffffffffffffffffffffffffffffffffffff1673ffffffffffffffffffffffffffffffffffffffff16815260200190815260200160002060006101000a81548160ff021916908315150217905550612b65806100b86000396000f3fe608060405234801561001057600080fd5b50600436106101375760003560e01c80639cf08cad116100b8578063d5bb305d1161007c578063d5bb305d14610397578063e3596cac146103b5578063f0a47f78146103d3578063f851a44014610403578063fb4326fa14610421578063ffda656f1461045157610137565b80639cf08cad146102bb578063a6c807a9146102eb578063a9dafbe91461031b578063aa128c491461034b578063cfb333951461036757610137565b80637194c5b3116100ff5780637194c5b314610204578063797201e5146102225780637df674e5146102525780637fcd6369146102835780638f5b9b2e1461029f57610137565b80631d769b321461013c5780634bc4fe8a1461016c5780635e8b80911461019c57806367c5ea85146101b85780636b7b44d7146101d4575b600080fd5b61015660048036038101906101519190611cad565b610481565b6040516101639190611da2565b60405180910390f35b61018660048036038101906101819190611cad565b610683565b6040516101939190611ddf565b60405180910390f35b6101b660048036038101906101b19190611f40565b6107e2565b005b6101d260048036038101906101cd9190611fc8565b610a79565b005b6101ee60048036038101906101e99190611cad565b610d0c565b6040516101fb9190611ddf565b60405180910390f35b61020c610d79565b604051610219919061202a565b60405180910390f35b61023c60048036038101906102379190611cad565b610d7f565b6040516102499190611ddf565b60405180910390f35b61026c60048036038101906102679190612045565b610d9f565b60405161027a929190612100565b60405180910390f35b61029d60048036038101906102989190612130565b610e6b565b005b6102b960048036038101906102b49190611f40565b61111a565b005b6102d560048036038101906102d09190611cad565b611351565b6040516102e29190611ddf565b60405180910390f35b61030560048036038101906103009190611cad565b611371565b6040516103129190612170565b60405180910390f35b61033560048036038101906103309190612192565b611417565b604051610342919061202a565b60405180910390f35b610365600480360381019061036091906121d2565b611666565b005b610381600480360381019061037c9190611cad565b611814565b60405161038e9190611ddf565b60405180910390f35b61039f611834565b6040516103ac919061202a565b60405180910390f35b6103bd61183a565b6040516103ca919061202a565b60405180910390f35b6103ed60048036038101906103e89190611cad565b611840565b6040516103fa9190612170565b60405180910390f35b61040b6118e6565b604051610418919061222e565b60405180910390f35b61043b60048036038101906104369190611cad565b61190a565b6040516104489190611ddf565b60405180910390f35b61046b60048036038101906104669190612045565b611977565b6040516104789190612307565b60405180910390f35b6060600060095467ffffffffffffffff8111156104a1576104a0611e15565b5b6040519080825280602002602001820160405280156104cf5781602001602082028036833780820191505090505b5090506000805b6009548110156105d75760005b60036000838152602001908152602001600020600201805490508110156105c9578573ffffffffffffffffffffffffffffffffffffffff1660036000848152602001908152602001600020600201828154811061054357610542612329565b5b9060005260206000200160009054906101000a900473ffffffffffffffffffffffffffffffffffffffff1673ffffffffffffffffffffffffffffffffffffffff16036105bc578184848151811061059d5761059c612329565b5b60200260200101818152505082806105b490612387565b9350506105c9565b80806001019150506104e3565b5080806001019150506104d6565b5060008167ffffffffffffffff8111156105f4576105f3611e15565b5b6040519080825280602002602001820160405280156106225781602001602082028036833780820191505090505b50905060005b828110156106775783818151811061064357610642612329565b5b602002602001015182828151811061065e5761065d612329565b5b6020026020010181815250508080600101915050610628565b50809350505050919050565b600061078e6040518060400160405280600e81526020017f54656163686572204e616d653a20000000000000000000000000000000000000815250600160008573ffffffffffffffffffffffffffffffffffffffff1673ffffffffffffffffffffffffffffffffffffffff168152602001908152602001600020600001805461070b906123fe565b80601f0160208091040260200160405190810160405280929190818152602001828054610737906123fe565b80156107845780601f1061075957610100808354040283529160200191610784565b820191906000526020600020905b81548152906001019060200180831161076757829003601f168201915b5050505050611b4f565b600560008373ffffffffffffffffffffffffffffffffffffffff1673ffffffffffffffffffffffffffffffffffffffff16815260200190815260200160002060009054906101000a900460ff169050919050565b8160001515600660008373ffffffffffffffffffffffffffffffffffffffff1673ffffffffffffffffffffffffffffffffffffffff16815260200190815260200160002060009054906101000a900460ff16151514610876576040517f08c379a000000000000000000000000000000000000000000000000000000000815260040161086d906124a1565b60405180910390fd5b60011515600560003373ffffffffffffffffffffffffffffffffffffffff1673ffffffffffffffffffffffffffffffffffffffff16815260200190815260200160002060009054906101000a900460ff1615151480610925575060011515600460003373ffffffffffffffffffffffffffffffffffffffff1673ffffffffffffffffffffffffffffffffffffffff16815260200190815260200160002060009054906101000a900460ff161515145b610964576040517f08c379a000000000000000000000000000000000000000000000000000000000815260040161095b9061250d565b60405180910390fd5b604051806020016040528083815250600260008573ffffffffffffffffffffffffffffffffffffffff1673ffffffffffffffffffffffffffffffffffffffff16815260200190815260200160002060008201518160000190816109c791906126d9565b509050506001600660008573ffffffffffffffffffffffffffffffffffffffff1673ffffffffffffffffffffffffffffffffffffffff16815260200190815260200160002060006101000a81548160ff02191690831515021790555060086000815480929190610a3690612387565b91905055507f94a56de67dd66b06691e0bd81e5b57fbf02e3ce04576def9d15b6371a0109fd28383604051610a6c9291906127ab565b60405180910390a1505050565b60011515600560003373ffffffffffffffffffffffffffffffffffffffff1673ffffffffffffffffffffffffffffffffffffffff16815260200190815260200160002060009054906101000a900460ff1615151480610b28575060011515600460003373ffffffffffffffffffffffffffffffffffffffff1673ffffffffffffffffffffffffffffffffffffffff16815260200190815260200160002060009054906101000a900460ff161515145b610b67576040517f08c379a0000000000000000000000000000000000000000000000000000000008152600401610b5e9061250d565b60405180910390fd5b6003600084815260200190815260200160002060010160009054906101000a900473ffffffffffffffffffffffffffffffffffffffff1673ffffffffffffffffffffffffffffffffffffffff163373ffffffffffffffffffffffffffffffffffffffff161480610c205750600460003373ffffffffffffffffffffffffffffffffffffffff1673ffffffffffffffffffffffffffffffffffffffff16815260200190815260200160002060009054906101000a900460ff165b610c5f576040517f08c379a0000000000000000000000000000000000000000000000000000000008152600401610c5690612827565b60405180910390fd5b806003600085815260200190815260200160002060030160008473ffffffffffffffffffffffffffffffffffffffff1673ffffffffffffffffffffffffffffffffffffffff168152602001908152602001600020819055507f6dca3a3f0ad0084aa45ac903a74dad8451bc742f036de0182ef554a6a636fdf0826003600086815260200190815260200160002060000183604051610cff939291906128cb565b60405180910390a1505050565b600060011515600660008473ffffffffffffffffffffffffffffffffffffffff1673ffffffffffffffffffffffffffffffffffffffff16815260200190815260200160002060009054906101000a900460ff16151503610d6f5760019050610d74565b600090505b919050565b60075481565b60056020528060005260406000206000915054906101000a900460ff1681565b6003602052806000526040600020600091509050806000018054610dc2906123fe565b80601f0160208091040260200160405190810160405280929190818152602001828054610dee906123fe565b8015610e3b5780601f10610e1057610100808354040283529160200191610e3b565b820191906000526020600020905b815481529060010190602001808311610e1e57829003601f168201915b5050505050908060010160009054906101000a900473ffffffffffffffffffffffffffffffffffffffff16905082565b60011515600560003373ffffffffffffffffffffffffffffffffffffffff1673ffffffffffffffffffffffffffffffffffffffff16815260200190815260200160002060009054906101000a900460ff1615151480610f1a575060011515600460003373ffffffffffffffffffffffffffffffffffffffff1673ffffffffffffffffffffffffffffffffffffffff16815260200190815260200160002060009054906101000a900460ff161515145b610f59576040517f08c379a0000000000000000000000000000000000000000000000000000000008152600401610f509061250d565b60405180910390fd5b6003600082815260200190815260200160002060010160009054906101000a900473ffffffffffffffffffffffffffffffffffffffff1673ffffffffffffffffffffffffffffffffffffffff163373ffffffffffffffffffffffffffffffffffffffff1614806110125750600460003373ffffffffffffffffffffffffffffffffffffffff1673ffffffffffffffffffffffffffffffffffffffff16815260200190815260200160002060009054906101000a900460ff165b611051576040517f08c379a000000000000000000000000000000000000000000000000000000000815260040161104890612827565b60405180910390fd5b60036000828152602001908152602001600020600201829080600181540180825580915050600190039060005260206000200160009091909190916101000a81548173ffffffffffffffffffffffffffffffffffffffff021916908373ffffffffffffffffffffffffffffffffffffffff1602179055507fe113aa050b8da447370c66aff62902eaadacd312e63b1ea81fdfc08fb0897848826003600084815260200190815260200160002060000160405161110e929190612909565b60405180910390a15050565b8160001515600560008373ffffffffffffffffffffffffffffffffffffffff1673ffffffffffffffffffffffffffffffffffffffff16815260200190815260200160002060009054906101000a900460ff161515146111ae576040517f08c379a00000000000000000000000000000000000000000000000000000000081526004016111a5906129ab565b60405180910390fd5b60008054906101000a900473ffffffffffffffffffffffffffffffffffffffff1673ffffffffffffffffffffffffffffffffffffffff163373ffffffffffffffffffffffffffffffffffffffff161461123c576040517f08c379a000000000000000000000000000000000000000000000000000000000815260040161123390612a3d565b60405180910390fd5b604051806020016040528083815250600160008573ffffffffffffffffffffffffffffffffffffffff1673ffffffffffffffffffffffffffffffffffffffff168152602001908152602001600020600082015181600001908161129f91906126d9565b509050506001600560008573ffffffffffffffffffffffffffffffffffffffff1673ffffffffffffffffffffffffffffffffffffffff16815260200190815260200160002060006101000a81548160ff0219169083151502179055506007600081548092919061130e90612387565b91905055507f6996ba1536de57e4c72a268600ac97e3feae59f326494fce7dc56c6c6de959e383836040516113449291906127ab565b60405180910390a1505050565b60046020528060005260406000206000915054906101000a900460ff1681565b6002602052806000526040600020600091509050806000018054611394906123fe565b80601f01602080910402602001604051908101604052809291908181526020018280546113c0906123fe565b801561140d5780601f106113e25761010080835404028352916020019161140d565b820191906000526020600020905b8154815290600101906020018083116113f057829003601f168201915b5050505050905081565b600082600954811061145e576040517f08c379a000000000000000000000000000000000000000000000000000000000815260040161145590612aa9565b60405180910390fd5b8260001515600660008373ffffffffffffffffffffffffffffffffffffffff1673ffffffffffffffffffffffffffffffffffffffff16815260200190815260200160002060009054906101000a900460ff161515146114f2576040517f08c379a00000000000000000000000000000000000000000000000000000000081526004016114e9906124a1565b60405180910390fd5b8373ffffffffffffffffffffffffffffffffffffffff163373ffffffffffffffffffffffffffffffffffffffff1614806115755750600460003373ffffffffffffffffffffffffffffffffffffffff1673ffffffffffffffffffffffffffffffffffffffff16815260200190815260200160002060009054906101000a900460ff165b806115c95750600560003373ffffffffffffffffffffffffffffffffffffffff1673ffffffffffffffffffffffffffffffffffffffff16815260200190815260200160002060009054906101000a900460ff165b611608576040517f08c379a00000000000000000000000000000000000000000000000000000000081526004016115ff90612827565b60405180910390fd5b6003600086815260200190815260200160002060030160008573ffffffffffffffffffffffffffffffffffffffff1673ffffffffffffffffffffffffffffffffffffffff168152602001908152602001600020549250505092915050565b60008054906101000a900473ffffffffffffffffffffffffffffffffffffffff1673ffffffffffffffffffffffffffffffffffffffff163373ffffffffffffffffffffffffffffffffffffffff16146116f4576040517f08c379a00000000000000000000000000000000000000000000000000000000081526004016116eb90612a3d565b60405180910390fd5b81600360006009548152602001908152602001600020600001908161171991906126d9565b508060036000600954815260200190815260200160002060010160006101000a81548173ffffffffffffffffffffffffffffffffffffffff021916908373ffffffffffffffffffffffffffffffffffffffff1602179055506009600081548092919061178490612387565b91905055507f7646b8ac4e7fd0edb8c8c7f98d7a8e6b40c5c3ee848aebf0628fa72e08e61efa826040516117b89190612170565b60405180910390a17f666e55c8ba70beeafdf0c10f6d389a4fec2ce0f62e4e15f6b29ce3c114c12d1e81600360006009548152602001908152602001600020600001604051611808929190612909565b60405180910390a15050565b60066020528060005260406000206000915054906101000a900460ff1681565b60095481565b60085481565b6001602052806000526040600020600091509050806000018054611863906123fe565b80601f016020809104026020016040519081016040528092919081815260200182805461188f906123fe565b80156118dc5780601f106118b1576101008083540402835291602001916118dc565b820191906000526020600020905b8154815290600101906020018083116118bf57829003601f168201915b5050505050905081565b60008054906101000a900473ffffffffffffffffffffffffffffffffffffffff1681565b600060011515600560008473ffffffffffffffffffffffffffffffffffffffff1673ffffffffffffffffffffffffffffffffffffffff16815260200190815260200160002060009054906101000a900460ff1615150361196d5760019050611972565b600090505b919050565b60608160095481106119be576040517f08c379a00000000000000000000000000000000000000000000000000000000081526004016119b590612aa9565b60405180910390fd5b60011515600560003373ffffffffffffffffffffffffffffffffffffffff1673ffffffffffffffffffffffffffffffffffffffff16815260200190815260200160002060009054906101000a900460ff1615151480611a6d575060011515600460003373ffffffffffffffffffffffffffffffffffffffff1673ffffffffffffffffffffffffffffffffffffffff16815260200190815260200160002060009054906101000a900460ff161515145b611aac576040517f08c379a0000000000000000000000000000000000000000000000000000000008152600401611aa39061250d565b60405180910390fd5b60036000848152602001908152602001600020600201805480602002602001604051908101604052809291908181526020018280548015611b4257602002820191906000526020600020905b8160009054906101000a900473ffffffffffffffffffffffffffffffffffffffff1673ffffffffffffffffffffffffffffffffffffffff1681526020019060010190808311611af8575b5050505050915050919050565b611be78282604051602401611b65929190612ac9565b6040516020818303038152906040527f4b5c4277000000000000000000000000000000000000000000000000000000007bffffffffffffffffffffffffffffffffffffffffffffffffffffffff19166020820180517bffffffffffffffffffffffffffffffffffffffffffffffffffffffff8381831617835250505050611beb565b5050565b611c0281611bfa611c05611c26565b63ffffffff16565b50565b60006a636f6e736f6c652e6c6f679050600080835160208501845afa505050565b611c31819050919050565b611c39612b00565b565b6000604051905090565b600080fd5b600080fd5b600073ffffffffffffffffffffffffffffffffffffffff82169050919050565b6000611c7a82611c4f565b9050919050565b611c8a81611c6f565b8114611c9557600080fd5b50565b600081359050611ca781611c81565b92915050565b600060208284031215611cc357611cc2611c45565b5b6000611cd184828501611c98565b91505092915050565b600081519050919050565b600082825260208201905092915050565b6000819050602082019050919050565b6000819050919050565b611d1981611d06565b82525050565b6000611d2b8383611d10565b60208301905092915050565b6000602082019050919050565b6000611d4f82611cda565b611d598185611ce5565b9350611d6483611cf6565b8060005b83811015611d95578151611d7c8882611d1f565b9750611d8783611d37565b925050600181019050611d68565b5085935050505092915050565b60006020820190508181036000830152611dbc8184611d44565b905092915050565b60008115159050919050565b611dd981611dc4565b82525050565b6000602082019050611df46000830184611dd0565b92915050565b600080fd5b600080fd5b6000601f19601f8301169050919050565b7f4e487b7100000000000000000000000000000000000000000000000000000000600052604160045260246000fd5b611e4d82611e04565b810181811067ffffffffffffffff82111715611e6c57611e6b611e15565b5b80604052505050565b6000611e7f611c3b565b9050611e8b8282611e44565b919050565b600067ffffffffffffffff821115611eab57611eaa611e15565b5b611eb482611e04565b9050602081019050919050565b82818337600083830152505050565b6000611ee3611ede84611e90565b611e75565b905082815260208101848484011115611eff57611efe611dff565b5b611f0a848285611ec1565b509392505050565b600082601f830112611f2757611f26611dfa565b5b8135611f37848260208601611ed0565b91505092915050565b60008060408385031215611f5757611f56611c45565b5b6000611f6585828601611c98565b925050602083013567ffffffffffffffff811115611f8657611f85611c4a565b5b611f9285828601611f12565b9150509250929050565b611fa581611d06565b8114611fb057600080fd5b50565b600081359050611fc281611f9c565b92915050565b600080600060608486031215611fe157611fe0611c45565b5b6000611fef86828701611fb3565b935050602061200086828701611c98565b925050604061201186828701611fb3565b9150509250925092565b61202481611d06565b82525050565b600060208201905061203f600083018461201b565b92915050565b60006020828403121561205b5761205a611c45565b5b600061206984828501611fb3565b91505092915050565b600081519050919050565b600082825260208201905092915050565b60005b838110156120ac578082015181840152602081019050612091565b60008484015250505050565b60006120c382612072565b6120cd818561207d565b93506120dd81856020860161208e565b6120e681611e04565b840191505092915050565b6120fa81611c6f565b82525050565b6000604082019050818103600083015261211a81856120b8565b905061212960208301846120f1565b9392505050565b6000806040838503121561214757612146611c45565b5b600061215585828601611c98565b925050602061216685828601611fb3565b9150509250929050565b6000602082019050818103600083015261218a81846120b8565b905092915050565b600080604083850312156121a9576121a8611c45565b5b60006121b785828601611fb3565b92505060206121c885828601611c98565b9150509250929050565b600080604083850312156121e9576121e8611c45565b5b600083013567ffffffffffffffff81111561220757612206611c4a565b5b61221385828601611f12565b925050602061222485828601611c98565b9150509250929050565b600060208201905061224360008301846120f1565b92915050565b600081519050919050565b600082825260208201905092915050565b6000819050602082019050919050565b61227e81611c6f565b82525050565b60006122908383612275565b60208301905092915050565b6000602082019050919050565b60006122b482612249565b6122be8185612254565b93506122c983612265565b8060005b838110156122fa5781516122e18882612284565b97506122ec8361229c565b9250506001810190506122cd565b5085935050505092915050565b6000602082019050818103600083015261232181846122a9565b905092915050565b7f4e487b7100000000000000000000000000000000000000000000000000000000600052603260045260246000fd5b7f4e487b7100000000000000000000000000000000000000000000000000000000600052601160045260246000fd5b600061239282611d06565b91507fffffffffffffffffffffffffffffffffffffffffffffffffffffffffffffffff82036123c4576123c3612358565b5b600182019050919050565b7f4e487b7100000000000000000000000000000000000000000000000000000000600052602260045260246000fd5b6000600282049050600182168061241657607f821691505b602082108103612429576124286123cf565b5b50919050565b7f73747564656e74206164647265737320616c726561647920726567697374657260008201527f6564000000000000000000000000000000000000000000000000000000000000602082015250565b600061248b60228361207d565b91506124968261242f565b604082019050919050565b600060208201905081810360008301526124ba8161247e565b9050919050565b7f41646472657373206973206e6f7420612074656163686572202f2061646d696e600082015250565b60006124f760208361207d565b9150612502826124c1565b602082019050919050565b60006020820190508181036000830152612526816124ea565b9050919050565b60008190508160005260206000209050919050565b60006020601f8301049050919050565b600082821b905092915050565b60006008830261258f7fffffffffffffffffffffffffffffffffffffffffffffffffffffffffffffffff82612552565b6125998683612552565b95508019841693508086168417925050509392505050565b6000819050919050565b60006125d66125d16125cc84611d06565b6125b1565b611d06565b9050919050565b6000819050919050565b6125f0836125bb565b6126046125fc826125dd565b84845461255f565b825550505050565b600090565b61261961260c565b6126248184846125e7565b505050565b5b818110156126485761263d600082612611565b60018101905061262a565b5050565b601f82111561268d5761265e8161252d565b61266784612542565b81016020851015612676578190505b61268a61268285612542565b830182612629565b50505b505050565b600082821c905092915050565b60006126b060001984600802612692565b1980831691505092915050565b60006126c9838361269f565b9150826002028217905092915050565b6126e282612072565b67ffffffffffffffff8111156126fb576126fa611e15565b5b61270582546123fe565b61271082828561264c565b600060209050601f8311600181146127435760008415612731578287015190505b61273b85826126bd565b8655506127a3565b601f1984166127518661252d565b60005b8281101561277957848901518255600182019150602085019450602081019050612754565b868310156127965784890151612792601f89168261269f565b8355505b6001600288020188555050505b505050505050565b60006040820190506127c060008301856120f1565b81810360208301526127d281846120b8565b90509392505050565b7f41646472657373206973206e6f7420617574686f72697a656400000000000000600082015250565b600061281160198361207d565b915061281c826127db565b602082019050919050565b6000602082019050818103600083015261284081612804565b9050919050565b60008154612854816123fe565b61285e818661207d565b94506001821660008114612879576001811461288f576128c2565b60ff1983168652811515602002860193506128c2565b6128988561252d565b60005b838110156128ba5781548189015260018201915060208101905061289b565b808801955050505b50505092915050565b60006060820190506128e060008301866120f1565b81810360208301526128f28185612847565b9050612901604083018461201b565b949350505050565b600060408201905061291e60008301856120f1565b81810360208301526129308184612847565b90509392505050565b7f74656163686572206164647265737320616c726561647920726567697374657260008201527f6564000000000000000000000000000000000000000000000000000000000000602082015250565b600061299560228361207d565b91506129a082612939565b604082019050919050565b600060208201905081810360008301526129c481612988565b9050919050565b7f4f6e6c792061646d696e2063616e2063616c6c20746869732066756e6374696f60008201527f6e00000000000000000000000000000000000000000000000000000000000000602082015250565b6000612a2760218361207d565b9150612a32826129cb565b604082019050919050565b60006020820190508181036000830152612a5681612a1a565b9050919050565b7f6d6174612070656c616a6172616e20646f6573206e6f74206578697374000000600082015250565b6000612a93601d8361207d565b9150612a9e82612a5d565b602082019050919050565b60006020820190508181036000830152612ac281612a86565b9050919050565b60006040820190508181036000830152612ae381856120b8565b90508181036020830152612af781846120b8565b90509392505050565b7f4e487b7100000000000000000000000000000000000000000000000000000000600052605160045260246000fdfea26469706673582212207e9b9df025fb57012c7612246cf8bf3f015559a4b0e8c44aea29ae7ac6bb242764736f6c63430008180033",
  "linkReferences": {},
  "deployedLinkReferences": {}
}