{
  "_format": "hh-sol-artifact-1",
  "contractName": "SchoolManagement",
  "sourceName": "contracts/SchoolManagement.sol",
  "abi": [
    {
      "inputs": [],
      "stateMutability": "nonpayable",
      "type": "constructor"
    },
    {
      "anonymous": false,
      "inputs": [
        {
          "indexed": false,
          "internalType": "string",
          "name": "namaMataPelajaran",
          "type": "string"
        }
      ],
      "name": "mataPelajaranAdded",
      "type": "event"
    },
    {
      "anonymous": false,
      "inputs": [
        {
          "indexed": false,
          "internalType": "address",
          "name": "_studentAddress",
          "type": "address"
        },
        {
          "indexed": false,
          "internalType": "string",
          "name": "namaMataPelajaran",
          "type": "string"
        },
        {
          "indexed": false,
          "internalType": "uint256",
          "name": "score",
          "type": "uint256"
        }
      ],
      "name": "scoreAdded",
      "type": "event"
    },
    {
      "anonymous": false,
      "inputs": [
        {
          "indexed": false,
          "internalType": "address",
          "name": "_studentAddress",
          "type": "address"
        },
        {
          "indexed": false,
          "internalType": "string",
          "name": "studentName",
          "type": "string"
        }
      ],
      "name": "studentAdded",
      "type": "event"
    },
    {
      "anonymous": false,
      "inputs": [
        {
          "indexed": false,
          "internalType": "address",
          "name": "_studentAddress",
          "type": "address"
        },
        {
          "indexed": false,
          "internalType": "string",
          "name": "namaMataPelajaran",
          "type": "string"
        }
      ],
      "name": "studentPelajaranAdded",
      "type": "event"
    },
    {
      "anonymous": false,
      "inputs": [
        {
          "indexed": false,
          "internalType": "address",
          "name": "_teacherAddress",
          "type": "address"
        },
        {
          "indexed": false,
          "internalType": "string",
          "name": "teacherName",
          "type": "string"
        }
      ],
      "name": "teacherAdded",
      "type": "event"
    },
    {
      "anonymous": false,
      "inputs": [
        {
          "indexed": false,
          "internalType": "address",
          "name": "_teacherAddress",
          "type": "address"
        },
        {
          "indexed": false,
          "internalType": "string",
          "name": "namaMataPelajaran",
          "type": "string"
        }
      ],
      "name": "teacherPelajaranAdded",
      "type": "event"
    },
    {
      "inputs": [
        {
          "internalType": "string",
          "name": "_name",
          "type": "string"
        },
        {
          "internalType": "address",
          "name": "addr",
          "type": "address"
        }
      ],
      "name": "addMataPelajaran",
      "outputs": [],
      "stateMutability": "nonpayable",
      "type": "function"
    },
    {
      "inputs": [
        {
          "internalType": "uint256",
          "name": "_matapelajaranID",
          "type": "uint256"
        },
        {
          "internalType": "address",
          "name": "addr",
          "type": "address"
        },
        {
          "internalType": "uint256",
          "name": "_score",
          "type": "uint256"
        }
      ],
      "name": "addScore",
      "outputs": [],
      "stateMutability": "nonpayable",
      "type": "function"
    },
    {
      "inputs": [
        {
          "internalType": "address",
          "name": "addr",
          "type": "address"
        },
        {
          "internalType": "string",
          "name": "_name",
          "type": "string"
        }
      ],
      "name": "addStudent",
      "outputs": [],
      "stateMutability": "nonpayable",
      "type": "function"
    },
    {
      "inputs": [
        {
          "internalType": "address",
          "name": "addr",
          "type": "address"
        },
        {
          "internalType": "uint256",
          "name": "_matapelajaranID",
          "type": "uint256"
        }
      ],
      "name": "addStudentPelajaran",
      "outputs": [],
      "stateMutability": "nonpayable",
      "type": "function"
    },
    {
      "inputs": [
        {
          "internalType": "address",
          "name": "addr",
          "type": "address"
        },
        {
          "internalType": "string",
          "name": "_name",
          "type": "string"
        }
      ],
      "name": "addTeacher",
      "outputs": [],
      "stateMutability": "nonpayable",
      "type": "function"
    },
    {
      "inputs": [],
      "name": "admin",
      "outputs": [
        {
          "internalType": "address",
          "name": "",
          "type": "address"
        }
      ],
      "stateMutability": "view",
      "type": "function"
    },
    {
      "inputs": [
        {
          "internalType": "address",
          "name": "addr",
          "type": "address"
        }
      ],
      "name": "checkTeachers",
      "outputs": [
        {
          "internalType": "bool",
          "name": "",
          "type": "bool"
        }
      ],
      "stateMutability": "view",
      "type": "function"
    },
    {
      "inputs": [
        {
          "internalType": "uint256",
          "name": "_matapelajaranID",
          "type": "uint256"
        }
      ],
      "name": "getMataPelajaranStudents",
      "outputs": [
        {
          "internalType": "address[]",
          "name": "",
          "type": "address[]"
        }
      ],
      "stateMutability": "view",
      "type": "function"
    },
    {
      "inputs": [
        {
          "internalType": "uint256",
          "name": "_matapelajaranID",
          "type": "uint256"
        },
        {
          "internalType": "address",
          "name": "addr",
          "type": "address"
        }
      ],
      "name": "getStudentScore",
      "outputs": [
        {
          "internalType": "uint256",
          "name": "",
          "type": "uint256"
        }
      ],
      "stateMutability": "view",
      "type": "function"
    },
    {
      "inputs": [
        {
          "internalType": "address",
          "name": "addr",
          "type": "address"
        }
      ],
      "name": "getTeacher",
      "outputs": [
        {
          "internalType": "bool",
          "name": "",
          "type": "bool"
        }
      ],
      "stateMutability": "view",
      "type": "function"
    },
    {
      "inputs": [
        {
          "internalType": "address",
          "name": "",
          "type": "address"
        }
      ],
      "name": "listAdmin",
      "outputs": [
        {
          "internalType": "bool",
          "name": "",
          "type": "bool"
        }
      ],
      "stateMutability": "view",
      "type": "function"
    },
    {
      "inputs": [
        {
          "internalType": "address",
          "name": "",
          "type": "address"
        }
      ],
      "name": "listStudent",
      "outputs": [
        {
          "internalType": "bool",
          "name": "",
          "type": "bool"
        }
      ],
      "stateMutability": "view",
      "type": "function"
    },
    {
      "inputs": [
        {
          "internalType": "address",
          "name": "",
          "type": "address"
        }
      ],
      "name": "listTeacher",
      "outputs": [
        {
          "internalType": "bool",
          "name": "",
          "type": "bool"
        }
      ],
      "stateMutability": "view",
      "type": "function"
    },
    {
      "inputs": [],
      "name": "mataPelajaranCounter",
      "outputs": [
        {
          "internalType": "uint256",
          "name": "",
          "type": "uint256"
        }
      ],
      "stateMutability": "view",
      "type": "function"
    },
    {
      "inputs": [
        {
          "internalType": "uint256",
          "name": "",
          "type": "uint256"
        }
      ],
      "name": "matapelajarans",
      "outputs": [
        {
          "internalType": "string",
          "name": "name",
          "type": "string"
        },
        {
          "internalType": "address",
          "name": "teacherAddress",
          "type": "address"
        }
      ],
      "stateMutability": "view",
      "type": "function"
    },
    {
      "inputs": [],
      "name": "studentCounter",
      "outputs": [
        {
          "internalType": "uint256",
          "name": "",
          "type": "uint256"
        }
      ],
      "stateMutability": "view",
      "type": "function"
    },
    {
      "inputs": [
        {
          "internalType": "address",
          "name": "",
          "type": "address"
        }
      ],
      "name": "students",
      "outputs": [
        {
          "internalType": "string",
          "name": "name",
          "type": "string"
        }
      ],
      "stateMutability": "view",
      "type": "function"
    },
    {
      "inputs": [],
      "name": "teacherCounter",
      "outputs": [
        {
          "internalType": "uint256",
          "name": "",
          "type": "uint256"
        }
      ],
      "stateMutability": "view",
      "type": "function"
    },
    {
      "inputs": [
        {
          "internalType": "address",
          "name": "",
          "type": "address"
        }
      ],
      "name": "teachers",
      "outputs": [
        {
          "internalType": "string",
          "name": "name",
          "type": "string"
        }
      ],
      "stateMutability": "view",
      "type": "function"
    }
  ],
  "bytecode": "0x608060405234801561001057600080fd5b50336000806101000a81548173ffffffffffffffffffffffffffffffffffffffff021916908373ffffffffffffffffffffffffffffffffffffffff1602179055506001600460003373ffffffffffffffffffffffffffffffffffffffff1673ffffffffffffffffffffffffffffffffffffffff16815260200190815260200160002060006101000a81548160ff021916908315150217905550612771806100b86000396000f3fe608060405234801561001057600080fd5b50600436106101215760003560e01c8063a6c807a9116100ad578063e3596cac11610071578063e3596cac1461033f578063f0a47f781461035d578063f851a4401461038d578063fb4326fa146103ab578063ffda656f146103db57610121565b8063a6c807a914610275578063a9dafbe9146102a5578063aa128c49146102d5578063cfb33395146102f1578063d5bb305d1461032157610121565b8063797201e5116100f4578063797201e5146101ac5780637df674e5146101dc5780637fcd63691461020d5780638f5b9b2e146102295780639cf08cad1461024557610121565b80634bc4fe8a146101265780635e8b80911461015657806367c5ea85146101725780637194c5b31461018e575b600080fd5b610140600480360381019061013b91906119c8565b61040b565b60405161014d9190611a10565b60405180910390f35b610170600480360381019061016b9190611b71565b61056a565b005b61018c60048036038101906101879190611c03565b610801565b005b610196610a94565b6040516101a39190611c65565b60405180910390f35b6101c660048036038101906101c191906119c8565b610a9a565b6040516101d39190611a10565b60405180910390f35b6101f660048036038101906101f19190611c80565b610aba565b604051610204929190611d3b565b60405180910390f35b61022760048036038101906102229190611d6b565b610b86565b005b610243600480360381019061023e9190611b71565b610e35565b005b61025f600480360381019061025a91906119c8565b61106c565b60405161026c9190611a10565b60405180910390f35b61028f600480360381019061028a91906119c8565b61108c565b60405161029c9190611dab565b60405180910390f35b6102bf60048036038101906102ba9190611dcd565b611132565b6040516102cc9190611c65565b60405180910390f35b6102ef60048036038101906102ea9190611e0d565b611381565b005b61030b600480360381019061030691906119c8565b61152f565b6040516103189190611a10565b60405180910390f35b61032961154f565b6040516103369190611c65565b60405180910390f35b610347611555565b6040516103549190611c65565b60405180910390f35b610377600480360381019061037291906119c8565b61155b565b6040516103849190611dab565b60405180910390f35b610395611601565b6040516103a29190611e69565b60405180910390f35b6103c560048036038101906103c091906119c8565b611625565b6040516103d29190611a10565b60405180910390f35b6103f560048036038101906103f09190611c80565b611692565b6040516104029190611f42565b60405180910390f35b60006105166040518060400160405280600e81526020017f54656163686572204e616d653a20000000000000000000000000000000000000815250600160008573ffffffffffffffffffffffffffffffffffffffff1673ffffffffffffffffffffffffffffffffffffffff168152602001908152602001600020600001805461049390611f93565b80601f01602080910402602001604051908101604052809291908181526020018280546104bf90611f93565b801561050c5780601f106104e15761010080835404028352916020019161050c565b820191906000526020600020905b8154815290600101906020018083116104ef57829003601f168201915b505050505061186a565b600560008373ffffffffffffffffffffffffffffffffffffffff1673ffffffffffffffffffffffffffffffffffffffff16815260200190815260200160002060009054906101000a900460ff169050919050565b8160001515600660008373ffffffffffffffffffffffffffffffffffffffff1673ffffffffffffffffffffffffffffffffffffffff16815260200190815260200160002060009054906101000a900460ff161515146105fe576040517f08c379a00000000000000000000000000000000000000000000000000000000081526004016105f590612036565b60405180910390fd5b60011515600560003373ffffffffffffffffffffffffffffffffffffffff1673ffffffffffffffffffffffffffffffffffffffff16815260200190815260200160002060009054906101000a900460ff16151514806106ad575060011515600460003373ffffffffffffffffffffffffffffffffffffffff1673ffffffffffffffffffffffffffffffffffffffff16815260200190815260200160002060009054906101000a900460ff161515145b6106ec576040517f08c379a00000000000000000000000000000000000000000000000000000000081526004016106e3906120a2565b60405180910390fd5b604051806020016040528083815250600260008573ffffffffffffffffffffffffffffffffffffffff1673ffffffffffffffffffffffffffffffffffffffff168152602001908152602001600020600082015181600001908161074f919061226e565b509050506001600660008573ffffffffffffffffffffffffffffffffffffffff1673ffffffffffffffffffffffffffffffffffffffff16815260200190815260200160002060006101000a81548160ff021916908315150217905550600860008154809291906107be9061236f565b91905055507f94a56de67dd66b06691e0bd81e5b57fbf02e3ce04576def9d15b6371a0109fd283836040516107f49291906123b7565b60405180910390a1505050565b60011515600560003373ffffffffffffffffffffffffffffffffffffffff1673ffffffffffffffffffffffffffffffffffffffff16815260200190815260200160002060009054906101000a900460ff16151514806108b0575060011515600460003373ffffffffffffffffffffffffffffffffffffffff1673ffffffffffffffffffffffffffffffffffffffff16815260200190815260200160002060009054906101000a900460ff161515145b6108ef576040517f08c379a00000000000000000000000000000000000000000000000000000000081526004016108e6906120a2565b60405180910390fd5b6003600084815260200190815260200160002060010160009054906101000a900473ffffffffffffffffffffffffffffffffffffffff1673ffffffffffffffffffffffffffffffffffffffff163373ffffffffffffffffffffffffffffffffffffffff1614806109a85750600460003373ffffffffffffffffffffffffffffffffffffffff1673ffffffffffffffffffffffffffffffffffffffff16815260200190815260200160002060009054906101000a900460ff165b6109e7576040517f08c379a00000000000000000000000000000000000000000000000000000000081526004016109de90612433565b60405180910390fd5b806003600085815260200190815260200160002060030160008473ffffffffffffffffffffffffffffffffffffffff1673ffffffffffffffffffffffffffffffffffffffff168152602001908152602001600020819055507f6dca3a3f0ad0084aa45ac903a74dad8451bc742f036de0182ef554a6a636fdf0826003600086815260200190815260200160002060000183604051610a87939291906124d7565b60405180910390a1505050565b60075481565b60056020528060005260406000206000915054906101000a900460ff1681565b6003602052806000526040600020600091509050806000018054610add90611f93565b80601f0160208091040260200160405190810160405280929190818152602001828054610b0990611f93565b8015610b565780601f10610b2b57610100808354040283529160200191610b56565b820191906000526020600020905b815481529060010190602001808311610b3957829003601f168201915b5050505050908060010160009054906101000a900473ffffffffffffffffffffffffffffffffffffffff16905082565b60011515600560003373ffffffffffffffffffffffffffffffffffffffff1673ffffffffffffffffffffffffffffffffffffffff16815260200190815260200160002060009054906101000a900460ff1615151480610c35575060011515600460003373ffffffffffffffffffffffffffffffffffffffff1673ffffffffffffffffffffffffffffffffffffffff16815260200190815260200160002060009054906101000a900460ff161515145b610c74576040517f08c379a0000000000000000000000000000000000000000000000000000000008152600401610c6b906120a2565b60405180910390fd5b6003600082815260200190815260200160002060010160009054906101000a900473ffffffffffffffffffffffffffffffffffffffff1673ffffffffffffffffffffffffffffffffffffffff163373ffffffffffffffffffffffffffffffffffffffff161480610d2d5750600460003373ffffffffffffffffffffffffffffffffffffffff1673ffffffffffffffffffffffffffffffffffffffff16815260200190815260200160002060009054906101000a900460ff165b610d6c576040517f08c379a0000000000000000000000000000000000000000000000000000000008152600401610d6390612433565b60405180910390fd5b60036000828152602001908152602001600020600201829080600181540180825580915050600190039060005260206000200160009091909190916101000a81548173ffffffffffffffffffffffffffffffffffffffff021916908373ffffffffffffffffffffffffffffffffffffffff1602179055507fe113aa050b8da447370c66aff62902eaadacd312e63b1ea81fdfc08fb08978488260036000848152602001908152602001600020600001604051610e29929190612515565b60405180910390a15050565b8160001515600560008373ffffffffffffffffffffffffffffffffffffffff1673ffffffffffffffffffffffffffffffffffffffff16815260200190815260200160002060009054906101000a900460ff16151514610ec9576040517f08c379a0000000000000000000000000000000000000000000000000000000008152600401610ec0906125b7565b60405180910390fd5b60008054906101000a900473ffffffffffffffffffffffffffffffffffffffff1673ffffffffffffffffffffffffffffffffffffffff163373ffffffffffffffffffffffffffffffffffffffff1614610f57576040517f08c379a0000000000000000000000000000000000000000000000000000000008152600401610f4e90612649565b60405180910390fd5b604051806020016040528083815250600160008573ffffffffffffffffffffffffffffffffffffffff1673ffffffffffffffffffffffffffffffffffffffff1681526020019081526020016000206000820151816000019081610fba919061226e565b509050506001600560008573ffffffffffffffffffffffffffffffffffffffff1673ffffffffffffffffffffffffffffffffffffffff16815260200190815260200160002060006101000a81548160ff021916908315150217905550600760008154809291906110299061236f565b91905055507f6996ba1536de57e4c72a268600ac97e3feae59f326494fce7dc56c6c6de959e3838360405161105f9291906123b7565b60405180910390a1505050565b60046020528060005260406000206000915054906101000a900460ff1681565b60026020528060005260406000206000915090508060000180546110af90611f93565b80601f01602080910402602001604051908101604052809291908181526020018280546110db90611f93565b80156111285780601f106110fd57610100808354040283529160200191611128565b820191906000526020600020905b81548152906001019060200180831161110b57829003601f168201915b5050505050905081565b6000826009548110611179576040517f08c379a0000000000000000000000000000000000000000000000000000000008152600401611170906126b5565b60405180910390fd5b8260001515600660008373ffffffffffffffffffffffffffffffffffffffff1673ffffffffffffffffffffffffffffffffffffffff16815260200190815260200160002060009054906101000a900460ff1615151461120d576040517f08c379a000000000000000000000000000000000000000000000000000000000815260040161120490612036565b60405180910390fd5b8373ffffffffffffffffffffffffffffffffffffffff163373ffffffffffffffffffffffffffffffffffffffff1614806112905750600460003373ffffffffffffffffffffffffffffffffffffffff1673ffffffffffffffffffffffffffffffffffffffff16815260200190815260200160002060009054906101000a900460ff165b806112e45750600560003373ffffffffffffffffffffffffffffffffffffffff1673ffffffffffffffffffffffffffffffffffffffff16815260200190815260200160002060009054906101000a900460ff165b611323576040517f08c379a000000000000000000000000000000000000000000000000000000000815260040161131a90612433565b60405180910390fd5b6003600086815260200190815260200160002060030160008573ffffffffffffffffffffffffffffffffffffffff1673ffffffffffffffffffffffffffffffffffffffff168152602001908152602001600020549250505092915050565b60008054906101000a900473ffffffffffffffffffffffffffffffffffffffff1673ffffffffffffffffffffffffffffffffffffffff163373ffffffffffffffffffffffffffffffffffffffff161461140f576040517f08c379a000000000000000000000000000000000000000000000000000000000815260040161140690612649565b60405180910390fd5b816003600060095481526020019081526020016000206000019081611434919061226e565b508060036000600954815260200190815260200160002060010160006101000a81548173ffffffffffffffffffffffffffffffffffffffff021916908373ffffffffffffffffffffffffffffffffffffffff1602179055506009600081548092919061149f9061236f565b91905055507f7646b8ac4e7fd0edb8c8c7f98d7a8e6b40c5c3ee848aebf0628fa72e08e61efa826040516114d39190611dab565b60405180910390a17f666e55c8ba70beeafdf0c10f6d389a4fec2ce0f62e4e15f6b29ce3c114c12d1e81600360006009548152602001908152602001600020600001604051611523929190612515565b60405180910390a15050565b60066020528060005260406000206000915054906101000a900460ff1681565b60095481565b60085481565b600160205280600052604060002060009150905080600001805461157e90611f93565b80601f01602080910402602001604051908101604052809291908181526020018280546115aa90611f93565b80156115f75780601f106115cc576101008083540402835291602001916115f7565b820191906000526020600020905b8154815290600101906020018083116115da57829003601f168201915b5050505050905081565b60008054906101000a900473ffffffffffffffffffffffffffffffffffffffff1681565b600060011515600560008473ffffffffffffffffffffffffffffffffffffffff1673ffffffffffffffffffffffffffffffffffffffff16815260200190815260200160002060009054906101000a900460ff16151503611688576001905061168d565b600090505b919050565b60608160095481106116d9576040517f08c379a00000000000000000000000000000000000000000000000000000000081526004016116d0906126b5565b60405180910390fd5b60011515600560003373ffffffffffffffffffffffffffffffffffffffff1673ffffffffffffffffffffffffffffffffffffffff16815260200190815260200160002060009054906101000a900460ff1615151480611788575060011515600460003373ffffffffffffffffffffffffffffffffffffffff1673ffffffffffffffffffffffffffffffffffffffff16815260200190815260200160002060009054906101000a900460ff161515145b6117c7576040517f08c379a00000000000000000000000000000000000000000000000000000000081526004016117be906120a2565b60405180910390fd5b6003600084815260200190815260200160002060020180548060200260200160405190810160405280929190818152602001828054801561185d57602002820191906000526020600020905b8160009054906101000a900473ffffffffffffffffffffffffffffffffffffffff1673ffffffffffffffffffffffffffffffffffffffff1681526020019060010190808311611813575b5050505050915050919050565b61190282826040516024016118809291906126d5565b6040516020818303038152906040527f4b5c4277000000000000000000000000000000000000000000000000000000007bffffffffffffffffffffffffffffffffffffffffffffffffffffffff19166020820180517bffffffffffffffffffffffffffffffffffffffffffffffffffffffff8381831617835250505050611906565b5050565b61191d81611915611920611941565b63ffffffff16565b50565b60006a636f6e736f6c652e6c6f679050600080835160208501845afa505050565b61194c819050919050565b61195461270c565b565b6000604051905090565b600080fd5b600080fd5b600073ffffffffffffffffffffffffffffffffffffffff82169050919050565b60006119958261196a565b9050919050565b6119a58161198a565b81146119b057600080fd5b50565b6000813590506119c28161199c565b92915050565b6000602082840312156119de576119dd611960565b5b60006119ec848285016119b3565b91505092915050565b60008115159050919050565b611a0a816119f5565b82525050565b6000602082019050611a256000830184611a01565b92915050565b600080fd5b600080fd5b6000601f19601f8301169050919050565b7f4e487b7100000000000000000000000000000000000000000000000000000000600052604160045260246000fd5b611a7e82611a35565b810181811067ffffffffffffffff82111715611a9d57611a9c611a46565b5b80604052505050565b6000611ab0611956565b9050611abc8282611a75565b919050565b600067ffffffffffffffff821115611adc57611adb611a46565b5b611ae582611a35565b9050602081019050919050565b82818337600083830152505050565b6000611b14611b0f84611ac1565b611aa6565b905082815260208101848484011115611b3057611b2f611a30565b5b611b3b848285611af2565b509392505050565b600082601f830112611b5857611b57611a2b565b5b8135611b68848260208601611b01565b91505092915050565b60008060408385031215611b8857611b87611960565b5b6000611b96858286016119b3565b925050602083013567ffffffffffffffff811115611bb757611bb6611965565b5b611bc385828601611b43565b9150509250929050565b6000819050919050565b611be081611bcd565b8114611beb57600080fd5b50565b600081359050611bfd81611bd7565b92915050565b600080600060608486031215611c1c57611c1b611960565b5b6000611c2a86828701611bee565b9350506020611c3b868287016119b3565b9250506040611c4c86828701611bee565b9150509250925092565b611c5f81611bcd565b82525050565b6000602082019050611c7a6000830184611c56565b92915050565b600060208284031215611c9657611c95611960565b5b6000611ca484828501611bee565b91505092915050565b600081519050919050565b600082825260208201905092915050565b60005b83811015611ce7578082015181840152602081019050611ccc565b60008484015250505050565b6000611cfe82611cad565b611d088185611cb8565b9350611d18818560208601611cc9565b611d2181611a35565b840191505092915050565b611d358161198a565b82525050565b60006040820190508181036000830152611d558185611cf3565b9050611d646020830184611d2c565b9392505050565b60008060408385031215611d8257611d81611960565b5b6000611d90858286016119b3565b9250506020611da185828601611bee565b9150509250929050565b60006020820190508181036000830152611dc58184611cf3565b905092915050565b60008060408385031215611de457611de3611960565b5b6000611df285828601611bee565b9250506020611e03858286016119b3565b9150509250929050565b60008060408385031215611e2457611e23611960565b5b600083013567ffffffffffffffff811115611e4257611e41611965565b5b611e4e85828601611b43565b9250506020611e5f858286016119b3565b9150509250929050565b6000602082019050611e7e6000830184611d2c565b92915050565b600081519050919050565b600082825260208201905092915050565b6000819050602082019050919050565b611eb98161198a565b82525050565b6000611ecb8383611eb0565b60208301905092915050565b6000602082019050919050565b6000611eef82611e84565b611ef98185611e8f565b9350611f0483611ea0565b8060005b83811015611f35578151611f1c8882611ebf565b9750611f2783611ed7565b925050600181019050611f08565b5085935050505092915050565b60006020820190508181036000830152611f5c8184611ee4565b905092915050565b7f4e487b7100000000000000000000000000000000000000000000000000000000600052602260045260246000fd5b60006002820490506001821680611fab57607f821691505b602082108103611fbe57611fbd611f64565b5b50919050565b7f73747564656e74206164647265737320616c726561647920726567697374657260008201527f6564000000000000000000000000000000000000000000000000000000000000602082015250565b6000612020602283611cb8565b915061202b82611fc4565b604082019050919050565b6000602082019050818103600083015261204f81612013565b9050919050565b7f41646472657373206973206e6f7420612074656163686572202f2061646d696e600082015250565b600061208c602083611cb8565b915061209782612056565b602082019050919050565b600060208201905081810360008301526120bb8161207f565b9050919050565b60008190508160005260206000209050919050565b60006020601f8301049050919050565b600082821b905092915050565b6000600883026121247fffffffffffffffffffffffffffffffffffffffffffffffffffffffffffffffff826120e7565b61212e86836120e7565b95508019841693508086168417925050509392505050565b6000819050919050565b600061216b61216661216184611bcd565b612146565b611bcd565b9050919050565b6000819050919050565b61218583612150565b61219961219182612172565b8484546120f4565b825550505050565b600090565b6121ae6121a1565b6121b981848461217c565b505050565b5b818110156121dd576121d26000826121a6565b6001810190506121bf565b5050565b601f821115612222576121f3816120c2565b6121fc846120d7565b8101602085101561220b578190505b61221f612217856120d7565b8301826121be565b50505b505050565b600082821c905092915050565b600061224560001984600802612227565b1980831691505092915050565b600061225e8383612234565b9150826002028217905092915050565b61227782611cad565b67ffffffffffffffff8111156122905761228f611a46565b5b61229a8254611f93565b6122a58282856121e1565b600060209050601f8311600181146122d857600084156122c6578287015190505b6122d08582612252565b865550612338565b601f1984166122e6866120c2565b60005b8281101561230e578489015182556001820191506020850194506020810190506122e9565b8683101561232b5784890151612327601f891682612234565b8355505b6001600288020188555050505b505050505050565b7f4e487b7100000000000000000000000000000000000000000000000000000000600052601160045260246000fd5b600061237a82611bcd565b91507fffffffffffffffffffffffffffffffffffffffffffffffffffffffffffffffff82036123ac576123ab612340565b5b600182019050919050565b60006040820190506123cc6000830185611d2c565b81810360208301526123de8184611cf3565b90509392505050565b7f41646472657373206973206e6f7420617574686f72697a656400000000000000600082015250565b600061241d601983611cb8565b9150612428826123e7565b602082019050919050565b6000602082019050818103600083015261244c81612410565b9050919050565b6000815461246081611f93565b61246a8186611cb8565b94506001821660008114612485576001811461249b576124ce565b60ff1983168652811515602002860193506124ce565b6124a4856120c2565b60005b838110156124c6578154818901526001820191506020810190506124a7565b808801955050505b50505092915050565b60006060820190506124ec6000830186611d2c565b81810360208301526124fe8185612453565b905061250d6040830184611c56565b949350505050565b600060408201905061252a6000830185611d2c565b818103602083015261253c8184612453565b90509392505050565b7f74656163686572206164647265737320616c726561647920726567697374657260008201527f6564000000000000000000000000000000000000000000000000000000000000602082015250565b60006125a1602283611cb8565b91506125ac82612545565b604082019050919050565b600060208201905081810360008301526125d081612594565b9050919050565b7f4f6e6c792061646d696e2063616e2063616c6c20746869732066756e6374696f60008201527f6e00000000000000000000000000000000000000000000000000000000000000602082015250565b6000612633602183611cb8565b915061263e826125d7565b604082019050919050565b6000602082019050818103600083015261266281612626565b9050919050565b7f6d6174612070656c616a6172616e20646f6573206e6f74206578697374000000600082015250565b600061269f601d83611cb8565b91506126aa82612669565b602082019050919050565b600060208201905081810360008301526126ce81612692565b9050919050565b600060408201905081810360008301526126ef8185611cf3565b905081810360208301526127038184611cf3565b90509392505050565b7f4e487b7100000000000000000000000000000000000000000000000000000000600052605160045260246000fdfea26469706673582212207f2c8ff185d8f187b8e56666ad6e280d6d26da64c4dab16b47161dc58651835564736f6c63430008180033",
  "linkReferences": {},
  "deployedLinkReferences": {}
}