{
  "_format": "hh-sol-artifact-1",
  "contractName": "SchoolManagement",
  "sourceName": "contracts/SchoolManagement.sol",
  "abi": [
    {
      "inputs": [],
      "stateMutability": "nonpayable",
      "type": "constructor"
    },
    {
      "anonymous": false,
      "inputs": [
        {
          "indexed": false,
          "internalType": "string",
          "name": "namaMataPelajaran",
          "type": "string"
        }
      ],
      "name": "mataPelajaranAdded",
      "type": "event"
    },
    {
      "anonymous": false,
      "inputs": [
        {
          "indexed": false,
          "internalType": "address",
          "name": "_studentAddress",
          "type": "address"
        },
        {
          "indexed": false,
          "internalType": "string",
          "name": "namaMataPelajaran",
          "type": "string"
        },
        {
          "indexed": false,
          "internalType": "uint256",
          "name": "score",
          "type": "uint256"
        }
      ],
      "name": "scoreAdded",
      "type": "event"
    },
    {
      "anonymous": false,
      "inputs": [
        {
          "indexed": false,
          "internalType": "address",
          "name": "_studentAddress",
          "type": "address"
        },
        {
          "indexed": false,
          "internalType": "string",
          "name": "studentName",
          "type": "string"
        }
      ],
      "name": "studentAdded",
      "type": "event"
    },
    {
      "anonymous": false,
      "inputs": [
        {
          "indexed": false,
          "internalType": "address",
          "name": "_studentAddress",
          "type": "address"
        },
        {
          "indexed": false,
          "internalType": "string",
          "name": "namaMataPelajaran",
          "type": "string"
        }
      ],
      "name": "studentPelajaranAdded",
      "type": "event"
    },
    {
      "anonymous": false,
      "inputs": [
        {
          "indexed": false,
          "internalType": "address",
          "name": "_teacherAddress",
          "type": "address"
        },
        {
          "indexed": false,
          "internalType": "string",
          "name": "teacherName",
          "type": "string"
        }
      ],
      "name": "teacherAdded",
      "type": "event"
    },
    {
      "anonymous": false,
      "inputs": [
        {
          "indexed": false,
          "internalType": "address",
          "name": "_teacherAddress",
          "type": "address"
        },
        {
          "indexed": false,
          "internalType": "string",
          "name": "namaMataPelajaran",
          "type": "string"
        }
      ],
      "name": "teacherPelajaranAdded",
      "type": "event"
    },
    {
      "inputs": [
        {
          "internalType": "string",
          "name": "_name",
          "type": "string"
        },
        {
          "internalType": "address",
          "name": "addr",
          "type": "address"
        }
      ],
      "name": "addMataPelajaran",
      "outputs": [],
      "stateMutability": "nonpayable",
      "type": "function"
    },
    {
      "inputs": [
        {
          "internalType": "uint256",
          "name": "_matapelajaranID",
          "type": "uint256"
        },
        {
          "internalType": "address",
          "name": "addr",
          "type": "address"
        },
        {
          "internalType": "uint256",
          "name": "_score",
          "type": "uint256"
        }
      ],
      "name": "addScore",
      "outputs": [],
      "stateMutability": "nonpayable",
      "type": "function"
    },
    {
      "inputs": [
        {
          "internalType": "address",
          "name": "addr",
          "type": "address"
        },
        {
          "internalType": "string",
          "name": "_name",
          "type": "string"
        }
      ],
      "name": "addStudent",
      "outputs": [],
      "stateMutability": "nonpayable",
      "type": "function"
    },
    {
      "inputs": [
        {
          "internalType": "address",
          "name": "addr",
          "type": "address"
        },
        {
          "internalType": "uint256",
          "name": "_matapelajaranID",
          "type": "uint256"
        }
      ],
      "name": "addStudentPelajaran",
      "outputs": [],
      "stateMutability": "nonpayable",
      "type": "function"
    },
    {
      "inputs": [
        {
          "internalType": "address",
          "name": "addr",
          "type": "address"
        },
        {
          "internalType": "string",
          "name": "_name",
          "type": "string"
        }
      ],
      "name": "addTeacher",
      "outputs": [],
      "stateMutability": "nonpayable",
      "type": "function"
    },
    {
      "inputs": [],
      "name": "admin",
      "outputs": [
        {
          "internalType": "address",
          "name": "",
          "type": "address"
        }
      ],
      "stateMutability": "view",
      "type": "function"
    },
    {
      "inputs": [
        {
          "internalType": "address",
          "name": "addr",
          "type": "address"
        }
      ],
      "name": "checkTeachers",
      "outputs": [
        {
          "internalType": "bool",
          "name": "",
          "type": "bool"
        }
      ],
      "stateMutability": "view",
      "type": "function"
    },
    {
      "inputs": [
        {
          "internalType": "uint256",
          "name": "_matapelajaranID",
          "type": "uint256"
        }
      ],
      "name": "getMataPelajaranStudents",
      "outputs": [
        {
          "internalType": "address[]",
          "name": "",
          "type": "address[]"
        }
      ],
      "stateMutability": "view",
      "type": "function"
    },
    {
      "inputs": [
        {
          "internalType": "address",
          "name": "addr",
          "type": "address"
        }
      ],
      "name": "getStudent",
      "outputs": [
        {
          "internalType": "bool",
          "name": "",
          "type": "bool"
        }
      ],
      "stateMutability": "view",
      "type": "function"
    },
    {
      "inputs": [
        {
          "internalType": "address",
          "name": "addr",
          "type": "address"
        }
      ],
      "name": "getStudentData",
      "outputs": [
        {
          "components": [
            {
              "internalType": "string",
              "name": "name",
              "type": "string"
            }
          ],
          "internalType": "struct SchoolManagement.Student",
          "name": "student",
          "type": "tuple"
        }
      ],
      "stateMutability": "view",
      "type": "function"
    },
    {
      "inputs": [
        {
          "internalType": "address",
          "name": "addr",
          "type": "address"
        }
      ],
      "name": "getStudentMataPelajarans",
      "outputs": [
        {
          "internalType": "uint256[]",
          "name": "",
          "type": "uint256[]"
        }
      ],
      "stateMutability": "view",
      "type": "function"
    },
    {
      "inputs": [
        {
          "internalType": "uint256",
          "name": "_matapelajaranID",
          "type": "uint256"
        },
        {
          "internalType": "address",
          "name": "addr",
          "type": "address"
        }
      ],
      "name": "getStudentScore",
      "outputs": [
        {
          "internalType": "uint256",
          "name": "",
          "type": "uint256"
        }
      ],
      "stateMutability": "view",
      "type": "function"
    },
    {
      "inputs": [
        {
          "internalType": "address",
          "name": "addr",
          "type": "address"
        }
      ],
      "name": "getTeacher",
      "outputs": [
        {
          "internalType": "bool",
          "name": "",
          "type": "bool"
        }
      ],
      "stateMutability": "view",
      "type": "function"
    },
    {
      "inputs": [
        {
          "internalType": "address",
          "name": "",
          "type": "address"
        }
      ],
      "name": "listAdmin",
      "outputs": [
        {
          "internalType": "bool",
          "name": "",
          "type": "bool"
        }
      ],
      "stateMutability": "view",
      "type": "function"
    },
    {
      "inputs": [
        {
          "internalType": "address",
          "name": "",
          "type": "address"
        }
      ],
      "name": "listStudent",
      "outputs": [
        {
          "internalType": "bool",
          "name": "",
          "type": "bool"
        }
      ],
      "stateMutability": "view",
      "type": "function"
    },
    {
      "inputs": [
        {
          "internalType": "address",
          "name": "",
          "type": "address"
        }
      ],
      "name": "listTeacher",
      "outputs": [
        {
          "internalType": "bool",
          "name": "",
          "type": "bool"
        }
      ],
      "stateMutability": "view",
      "type": "function"
    },
    {
      "inputs": [],
      "name": "mataPelajaranCounter",
      "outputs": [
        {
          "internalType": "uint256",
          "name": "",
          "type": "uint256"
        }
      ],
      "stateMutability": "view",
      "type": "function"
    },
    {
      "inputs": [
        {
          "internalType": "uint256",
          "name": "",
          "type": "uint256"
        }
      ],
      "name": "matapelajarans",
      "outputs": [
        {
          "internalType": "string",
          "name": "name",
          "type": "string"
        },
        {
          "internalType": "address",
          "name": "teacherAddress",
          "type": "address"
        }
      ],
      "stateMutability": "view",
      "type": "function"
    },
    {
      "inputs": [],
      "name": "studentCounter",
      "outputs": [
        {
          "internalType": "uint256",
          "name": "",
          "type": "uint256"
        }
      ],
      "stateMutability": "view",
      "type": "function"
    },
    {
      "inputs": [
        {
          "internalType": "address",
          "name": "",
          "type": "address"
        }
      ],
      "name": "students",
      "outputs": [
        {
          "internalType": "string",
          "name": "name",
          "type": "string"
        }
      ],
      "stateMutability": "view",
      "type": "function"
    },
    {
      "inputs": [],
      "name": "teacherCounter",
      "outputs": [
        {
          "internalType": "uint256",
          "name": "",
          "type": "uint256"
        }
      ],
      "stateMutability": "view",
      "type": "function"
    },
    {
      "inputs": [
        {
          "internalType": "address",
          "name": "",
          "type": "address"
        }
      ],
      "name": "teachers",
      "outputs": [
        {
          "internalType": "string",
          "name": "name",
          "type": "string"
        }
      ],
      "stateMutability": "view",
      "type": "function"
    }
  ],
  "bytecode": "0x608060405234801561001057600080fd5b50336000806101000a81548173ffffffffffffffffffffffffffffffffffffffff021916908373ffffffffffffffffffffffffffffffffffffffff1602179055506001600460003373ffffffffffffffffffffffffffffffffffffffff1673ffffffffffffffffffffffffffffffffffffffff16815260200190815260200160002060006101000a81548160ff021916908315150217905550612d5e806100b86000396000f3fe608060405234801561001057600080fd5b50600436106101425760003560e01c80639cf08cad116100b8578063d5bb305d1161007c578063d5bb305d146103d2578063e3596cac146103f0578063f0a47f781461040e578063f851a4401461043e578063fb4326fa1461045c578063ffda656f1461048c57610142565b80639cf08cad146102f6578063a6c807a914610326578063a9dafbe914610356578063aa128c4914610386578063cfb33395146103a257610142565b80636b7b44d71161010a5780636b7b44d71461020f5780637194c5b31461023f578063797201e51461025d5780637df674e51461028d5780637fcd6369146102be5780638f5b9b2e146102da57610142565b80631d769b32146101475780633f898323146101775780634bc4fe8a146101a75780635e8b8091146101d757806367c5ea85146101f3575b600080fd5b610161600480360381019061015c9190611e10565b6104bc565b60405161016e9190611f05565b60405180910390f35b610191600480360381019061018c9190611e10565b6106be565b60405161019e9190611fe1565b60405180910390f35b6101c160048036038101906101bc9190611e10565b610801565b6040516101ce919061201e565b60405180910390f35b6101f160048036038101906101ec919061216e565b610960565b005b61020d600480360381019061020891906121f6565b610bf7565b005b61022960048036038101906102249190611e10565b610e8a565b604051610236919061201e565b60405180910390f35b610247610ee0565b6040516102549190612258565b60405180910390f35b61027760048036038101906102729190611e10565b610ee6565b604051610284919061201e565b60405180910390f35b6102a760048036038101906102a29190612273565b610f06565b6040516102b59291906122f9565b60405180910390f35b6102d860048036038101906102d39190612329565b610fd2565b005b6102f460048036038101906102ef919061216e565b611281565b005b610310600480360381019061030b9190611e10565b6114b8565b60405161031d919061201e565b60405180910390f35b610340600480360381019061033b9190611e10565b6114d8565b60405161034d9190612369565b60405180910390f35b610370600480360381019061036b919061238b565b61157e565b60405161037d9190612258565b60405180910390f35b6103a0600480360381019061039b91906123cb565b6117cd565b005b6103bc60048036038101906103b79190611e10565b61197b565b6040516103c9919061201e565b60405180910390f35b6103da61199b565b6040516103e79190612258565b60405180910390f35b6103f86119a1565b6040516104059190612258565b60405180910390f35b61042860048036038101906104239190611e10565b6119a7565b6040516104359190612369565b60405180910390f35b610446611a4d565b6040516104539190612427565b60405180910390f35b61047660048036038101906104719190611e10565b611a71565b604051610483919061201e565b60405180910390f35b6104a660048036038101906104a19190612273565b611ac7565b6040516104b39190612500565b60405180910390f35b6060600060095467ffffffffffffffff8111156104dc576104db612043565b5b60405190808252806020026020018201604052801561050a5781602001602082028036833780820191505090505b5090506000805b6009548110156106125760005b6003600083815260200190815260200160002060020180549050811015610604578573ffffffffffffffffffffffffffffffffffffffff1660036000848152602001908152602001600020600201828154811061057e5761057d612522565b5b9060005260206000200160009054906101000a900473ffffffffffffffffffffffffffffffffffffffff1673ffffffffffffffffffffffffffffffffffffffff16036105f757818484815181106105d8576105d7612522565b5b60200260200101818152505082806105ef90612580565b935050610604565b808060010191505061051e565b508080600101915050610511565b5060008167ffffffffffffffff81111561062f5761062e612043565b5b60405190808252806020026020018201604052801561065d5781602001602082028036833780820191505090505b50905060005b828110156106b25783818151811061067e5761067d612522565b5b602002602001015182828151811061069957610698612522565b5b6020026020010181815250508080600101915050610663565b50809350505050919050565b6106c6611d81565b600660008373ffffffffffffffffffffffffffffffffffffffff1673ffffffffffffffffffffffffffffffffffffffff16815260200190815260200160002060009054906101000a900460ff16156107fb57600260008373ffffffffffffffffffffffffffffffffffffffff1673ffffffffffffffffffffffffffffffffffffffff168152602001908152602001600020604051806020016040529081600082018054610772906125f7565b80601f016020809104026020016040519081016040528092919081815260200182805461079e906125f7565b80156107eb5780601f106107c0576101008083540402835291602001916107eb565b820191906000526020600020905b8154815290600101906020018083116107ce57829003601f168201915b50505050508152505090506107fc565b5b919050565b600061090c6040518060400160405280600e81526020017f54656163686572204e616d653a20000000000000000000000000000000000000815250600160008573ffffffffffffffffffffffffffffffffffffffff1673ffffffffffffffffffffffffffffffffffffffff1681526020019081526020016000206000018054610889906125f7565b80601f01602080910402602001604051908101604052809291908181526020018280546108b5906125f7565b80156109025780601f106108d757610100808354040283529160200191610902565b820191906000526020600020905b8154815290600101906020018083116108e557829003601f168201915b5050505050611c9f565b600560008373ffffffffffffffffffffffffffffffffffffffff1673ffffffffffffffffffffffffffffffffffffffff16815260200190815260200160002060009054906101000a900460ff169050919050565b8160001515600660008373ffffffffffffffffffffffffffffffffffffffff1673ffffffffffffffffffffffffffffffffffffffff16815260200190815260200160002060009054906101000a900460ff161515146109f4576040517f08c379a00000000000000000000000000000000000000000000000000000000081526004016109eb9061269a565b60405180910390fd5b60011515600560003373ffffffffffffffffffffffffffffffffffffffff1673ffffffffffffffffffffffffffffffffffffffff16815260200190815260200160002060009054906101000a900460ff1615151480610aa3575060011515600460003373ffffffffffffffffffffffffffffffffffffffff1673ffffffffffffffffffffffffffffffffffffffff16815260200190815260200160002060009054906101000a900460ff161515145b610ae2576040517f08c379a0000000000000000000000000000000000000000000000000000000008152600401610ad990612706565b60405180910390fd5b604051806020016040528083815250600260008573ffffffffffffffffffffffffffffffffffffffff1673ffffffffffffffffffffffffffffffffffffffff1681526020019081526020016000206000820151816000019081610b4591906128d2565b509050506001600660008573ffffffffffffffffffffffffffffffffffffffff1673ffffffffffffffffffffffffffffffffffffffff16815260200190815260200160002060006101000a81548160ff02191690831515021790555060086000815480929190610bb490612580565b91905055507f94a56de67dd66b06691e0bd81e5b57fbf02e3ce04576def9d15b6371a0109fd28383604051610bea9291906129a4565b60405180910390a1505050565b60011515600560003373ffffffffffffffffffffffffffffffffffffffff1673ffffffffffffffffffffffffffffffffffffffff16815260200190815260200160002060009054906101000a900460ff1615151480610ca6575060011515600460003373ffffffffffffffffffffffffffffffffffffffff1673ffffffffffffffffffffffffffffffffffffffff16815260200190815260200160002060009054906101000a900460ff161515145b610ce5576040517f08c379a0000000000000000000000000000000000000000000000000000000008152600401610cdc90612706565b60405180910390fd5b6003600084815260200190815260200160002060010160009054906101000a900473ffffffffffffffffffffffffffffffffffffffff1673ffffffffffffffffffffffffffffffffffffffff163373ffffffffffffffffffffffffffffffffffffffff161480610d9e5750600460003373ffffffffffffffffffffffffffffffffffffffff1673ffffffffffffffffffffffffffffffffffffffff16815260200190815260200160002060009054906101000a900460ff165b610ddd576040517f08c379a0000000000000000000000000000000000000000000000000000000008152600401610dd490612a20565b60405180910390fd5b806003600085815260200190815260200160002060030160008473ffffffffffffffffffffffffffffffffffffffff1673ffffffffffffffffffffffffffffffffffffffff168152602001908152602001600020819055507f6dca3a3f0ad0084aa45ac903a74dad8451bc742f036de0182ef554a6a636fdf0826003600086815260200190815260200160002060000183604051610e7d93929190612ac4565b60405180910390a1505050565b6000600660008373ffffffffffffffffffffffffffffffffffffffff1673ffffffffffffffffffffffffffffffffffffffff16815260200190815260200160002060009054906101000a900460ff169050919050565b60075481565b60056020528060005260406000206000915054906101000a900460ff1681565b6003602052806000526040600020600091509050806000018054610f29906125f7565b80601f0160208091040260200160405190810160405280929190818152602001828054610f55906125f7565b8015610fa25780601f10610f7757610100808354040283529160200191610fa2565b820191906000526020600020905b815481529060010190602001808311610f8557829003601f168201915b5050505050908060010160009054906101000a900473ffffffffffffffffffffffffffffffffffffffff16905082565b60011515600560003373ffffffffffffffffffffffffffffffffffffffff1673ffffffffffffffffffffffffffffffffffffffff16815260200190815260200160002060009054906101000a900460ff1615151480611081575060011515600460003373ffffffffffffffffffffffffffffffffffffffff1673ffffffffffffffffffffffffffffffffffffffff16815260200190815260200160002060009054906101000a900460ff161515145b6110c0576040517f08c379a00000000000000000000000000000000000000000000000000000000081526004016110b790612706565b60405180910390fd5b6003600082815260200190815260200160002060010160009054906101000a900473ffffffffffffffffffffffffffffffffffffffff1673ffffffffffffffffffffffffffffffffffffffff163373ffffffffffffffffffffffffffffffffffffffff1614806111795750600460003373ffffffffffffffffffffffffffffffffffffffff1673ffffffffffffffffffffffffffffffffffffffff16815260200190815260200160002060009054906101000a900460ff165b6111b8576040517f08c379a00000000000000000000000000000000000000000000000000000000081526004016111af90612a20565b60405180910390fd5b60036000828152602001908152602001600020600201829080600181540180825580915050600190039060005260206000200160009091909190916101000a81548173ffffffffffffffffffffffffffffffffffffffff021916908373ffffffffffffffffffffffffffffffffffffffff1602179055507fe113aa050b8da447370c66aff62902eaadacd312e63b1ea81fdfc08fb08978488260036000848152602001908152602001600020600001604051611275929190612b02565b60405180910390a15050565b8160001515600560008373ffffffffffffffffffffffffffffffffffffffff1673ffffffffffffffffffffffffffffffffffffffff16815260200190815260200160002060009054906101000a900460ff16151514611315576040517f08c379a000000000000000000000000000000000000000000000000000000000815260040161130c90612ba4565b60405180910390fd5b60008054906101000a900473ffffffffffffffffffffffffffffffffffffffff1673ffffffffffffffffffffffffffffffffffffffff163373ffffffffffffffffffffffffffffffffffffffff16146113a3576040517f08c379a000000000000000000000000000000000000000000000000000000000815260040161139a90612c36565b60405180910390fd5b604051806020016040528083815250600160008573ffffffffffffffffffffffffffffffffffffffff1673ffffffffffffffffffffffffffffffffffffffff168152602001908152602001600020600082015181600001908161140691906128d2565b509050506001600560008573ffffffffffffffffffffffffffffffffffffffff1673ffffffffffffffffffffffffffffffffffffffff16815260200190815260200160002060006101000a81548160ff0219169083151502179055506007600081548092919061147590612580565b91905055507f6996ba1536de57e4c72a268600ac97e3feae59f326494fce7dc56c6c6de959e383836040516114ab9291906129a4565b60405180910390a1505050565b60046020528060005260406000206000915054906101000a900460ff1681565b60026020528060005260406000206000915090508060000180546114fb906125f7565b80601f0160208091040260200160405190810160405280929190818152602001828054611527906125f7565b80156115745780601f1061154957610100808354040283529160200191611574565b820191906000526020600020905b81548152906001019060200180831161155757829003601f168201915b5050505050905081565b60008260095481106115c5576040517f08c379a00000000000000000000000000000000000000000000000000000000081526004016115bc90612ca2565b60405180910390fd5b8260001515600660008373ffffffffffffffffffffffffffffffffffffffff1673ffffffffffffffffffffffffffffffffffffffff16815260200190815260200160002060009054906101000a900460ff16151514611659576040517f08c379a00000000000000000000000000000000000000000000000000000000081526004016116509061269a565b60405180910390fd5b8373ffffffffffffffffffffffffffffffffffffffff163373ffffffffffffffffffffffffffffffffffffffff1614806116dc5750600460003373ffffffffffffffffffffffffffffffffffffffff1673ffffffffffffffffffffffffffffffffffffffff16815260200190815260200160002060009054906101000a900460ff165b806117305750600560003373ffffffffffffffffffffffffffffffffffffffff1673ffffffffffffffffffffffffffffffffffffffff16815260200190815260200160002060009054906101000a900460ff165b61176f576040517f08c379a000000000000000000000000000000000000000000000000000000000815260040161176690612a20565b60405180910390fd5b6003600086815260200190815260200160002060030160008573ffffffffffffffffffffffffffffffffffffffff1673ffffffffffffffffffffffffffffffffffffffff168152602001908152602001600020549250505092915050565b60008054906101000a900473ffffffffffffffffffffffffffffffffffffffff1673ffffffffffffffffffffffffffffffffffffffff163373ffffffffffffffffffffffffffffffffffffffff161461185b576040517f08c379a000000000000000000000000000000000000000000000000000000000815260040161185290612c36565b60405180910390fd5b81600360006009548152602001908152602001600020600001908161188091906128d2565b508060036000600954815260200190815260200160002060010160006101000a81548173ffffffffffffffffffffffffffffffffffffffff021916908373ffffffffffffffffffffffffffffffffffffffff160217905550600960008154809291906118eb90612580565b91905055507f7646b8ac4e7fd0edb8c8c7f98d7a8e6b40c5c3ee848aebf0628fa72e08e61efa8260405161191f9190612369565b60405180910390a17f666e55c8ba70beeafdf0c10f6d389a4fec2ce0f62e4e15f6b29ce3c114c12d1e8160036000600954815260200190815260200160002060000160405161196f929190612b02565b60405180910390a15050565b60066020528060005260406000206000915054906101000a900460ff1681565b60095481565b60085481565b60016020528060005260406000206000915090508060000180546119ca906125f7565b80601f01602080910402602001604051908101604052809291908181526020018280546119f6906125f7565b8015611a435780601f10611a1857610100808354040283529160200191611a43565b820191906000526020600020905b815481529060010190602001808311611a2657829003601f168201915b5050505050905081565b60008054906101000a900473ffffffffffffffffffffffffffffffffffffffff1681565b6000600560008373ffffffffffffffffffffffffffffffffffffffff1673ffffffffffffffffffffffffffffffffffffffff16815260200190815260200160002060009054906101000a900460ff169050919050565b6060816009548110611b0e576040517f08c379a0000000000000000000000000000000000000000000000000000000008152600401611b0590612ca2565b60405180910390fd5b60011515600560003373ffffffffffffffffffffffffffffffffffffffff1673ffffffffffffffffffffffffffffffffffffffff16815260200190815260200160002060009054906101000a900460ff1615151480611bbd575060011515600460003373ffffffffffffffffffffffffffffffffffffffff1673ffffffffffffffffffffffffffffffffffffffff16815260200190815260200160002060009054906101000a900460ff161515145b611bfc576040517f08c379a0000000000000000000000000000000000000000000000000000000008152600401611bf390612706565b60405180910390fd5b60036000848152602001908152602001600020600201805480602002602001604051908101604052809291908181526020018280548015611c9257602002820191906000526020600020905b8160009054906101000a900473ffffffffffffffffffffffffffffffffffffffff1673ffffffffffffffffffffffffffffffffffffffff1681526020019060010190808311611c48575b5050505050915050919050565b611d378282604051602401611cb5929190612cc2565b6040516020818303038152906040527f4b5c4277000000000000000000000000000000000000000000000000000000007bffffffffffffffffffffffffffffffffffffffffffffffffffffffff19166020820180517bffffffffffffffffffffffffffffffffffffffffffffffffffffffff8381831617835250505050611d3b565b5050565b611d5281611d4a611d55611d76565b63ffffffff16565b50565b60006a636f6e736f6c652e6c6f679050600080835160208501845afa505050565b611d94819050919050565b6040518060200160405280606081525090565b611d9c612cf9565b565b6000604051905090565b600080fd5b600080fd5b600073ffffffffffffffffffffffffffffffffffffffff82169050919050565b6000611ddd82611db2565b9050919050565b611ded81611dd2565b8114611df857600080fd5b50565b600081359050611e0a81611de4565b92915050565b600060208284031215611e2657611e25611da8565b5b6000611e3484828501611dfb565b91505092915050565b600081519050919050565b600082825260208201905092915050565b6000819050602082019050919050565b6000819050919050565b611e7c81611e69565b82525050565b6000611e8e8383611e73565b60208301905092915050565b6000602082019050919050565b6000611eb282611e3d565b611ebc8185611e48565b9350611ec783611e59565b8060005b83811015611ef8578151611edf8882611e82565b9750611eea83611e9a565b925050600181019050611ecb565b5085935050505092915050565b60006020820190508181036000830152611f1f8184611ea7565b905092915050565b600081519050919050565b600082825260208201905092915050565b60005b83811015611f61578082015181840152602081019050611f46565b60008484015250505050565b6000601f19601f8301169050919050565b6000611f8982611f27565b611f938185611f32565b9350611fa3818560208601611f43565b611fac81611f6d565b840191505092915050565b60006020830160008301518482036000860152611fd48282611f7e565b9150508091505092915050565b60006020820190508181036000830152611ffb8184611fb7565b905092915050565b60008115159050919050565b61201881612003565b82525050565b6000602082019050612033600083018461200f565b92915050565b600080fd5b600080fd5b7f4e487b7100000000000000000000000000000000000000000000000000000000600052604160045260246000fd5b61207b82611f6d565b810181811067ffffffffffffffff8211171561209a57612099612043565b5b80604052505050565b60006120ad611d9e565b90506120b98282612072565b919050565b600067ffffffffffffffff8211156120d9576120d8612043565b5b6120e282611f6d565b9050602081019050919050565b82818337600083830152505050565b600061211161210c846120be565b6120a3565b90508281526020810184848401111561212d5761212c61203e565b5b6121388482856120ef565b509392505050565b600082601f83011261215557612154612039565b5b81356121658482602086016120fe565b91505092915050565b6000806040838503121561218557612184611da8565b5b600061219385828601611dfb565b925050602083013567ffffffffffffffff8111156121b4576121b3611dad565b5b6121c085828601612140565b9150509250929050565b6121d381611e69565b81146121de57600080fd5b50565b6000813590506121f0816121ca565b92915050565b60008060006060848603121561220f5761220e611da8565b5b600061221d868287016121e1565b935050602061222e86828701611dfb565b925050604061223f868287016121e1565b9150509250925092565b61225281611e69565b82525050565b600060208201905061226d6000830184612249565b92915050565b60006020828403121561228957612288611da8565b5b6000612297848285016121e1565b91505092915050565b600082825260208201905092915050565b60006122bc82611f27565b6122c681856122a0565b93506122d6818560208601611f43565b6122df81611f6d565b840191505092915050565b6122f381611dd2565b82525050565b6000604082019050818103600083015261231381856122b1565b905061232260208301846122ea565b9392505050565b600080604083850312156123405761233f611da8565b5b600061234e85828601611dfb565b925050602061235f858286016121e1565b9150509250929050565b6000602082019050818103600083015261238381846122b1565b905092915050565b600080604083850312156123a2576123a1611da8565b5b60006123b0858286016121e1565b92505060206123c185828601611dfb565b9150509250929050565b600080604083850312156123e2576123e1611da8565b5b600083013567ffffffffffffffff811115612400576123ff611dad565b5b61240c85828601612140565b925050602061241d85828601611dfb565b9150509250929050565b600060208201905061243c60008301846122ea565b92915050565b600081519050919050565b600082825260208201905092915050565b6000819050602082019050919050565b61247781611dd2565b82525050565b6000612489838361246e565b60208301905092915050565b6000602082019050919050565b60006124ad82612442565b6124b7818561244d565b93506124c28361245e565b8060005b838110156124f35781516124da888261247d565b97506124e583612495565b9250506001810190506124c6565b5085935050505092915050565b6000602082019050818103600083015261251a81846124a2565b905092915050565b7f4e487b7100000000000000000000000000000000000000000000000000000000600052603260045260246000fd5b7f4e487b7100000000000000000000000000000000000000000000000000000000600052601160045260246000fd5b600061258b82611e69565b91507fffffffffffffffffffffffffffffffffffffffffffffffffffffffffffffffff82036125bd576125bc612551565b5b600182019050919050565b7f4e487b7100000000000000000000000000000000000000000000000000000000600052602260045260246000fd5b6000600282049050600182168061260f57607f821691505b602082108103612622576126216125c8565b5b50919050565b7f73747564656e74206164647265737320616c726561647920726567697374657260008201527f6564000000000000000000000000000000000000000000000000000000000000602082015250565b60006126846022836122a0565b915061268f82612628565b604082019050919050565b600060208201905081810360008301526126b381612677565b9050919050565b7f41646472657373206973206e6f7420612074656163686572202f2061646d696e600082015250565b60006126f06020836122a0565b91506126fb826126ba565b602082019050919050565b6000602082019050818103600083015261271f816126e3565b9050919050565b60008190508160005260206000209050919050565b60006020601f8301049050919050565b600082821b905092915050565b6000600883026127887fffffffffffffffffffffffffffffffffffffffffffffffffffffffffffffffff8261274b565b612792868361274b565b95508019841693508086168417925050509392505050565b6000819050919050565b60006127cf6127ca6127c584611e69565b6127aa565b611e69565b9050919050565b6000819050919050565b6127e9836127b4565b6127fd6127f5826127d6565b848454612758565b825550505050565b600090565b612812612805565b61281d8184846127e0565b505050565b5b818110156128415761283660008261280a565b600181019050612823565b5050565b601f8211156128865761285781612726565b6128608461273b565b8101602085101561286f578190505b61288361287b8561273b565b830182612822565b50505b505050565b600082821c905092915050565b60006128a96000198460080261288b565b1980831691505092915050565b60006128c28383612898565b9150826002028217905092915050565b6128db82611f27565b67ffffffffffffffff8111156128f4576128f3612043565b5b6128fe82546125f7565b612909828285612845565b600060209050601f83116001811461293c576000841561292a578287015190505b61293485826128b6565b86555061299c565b601f19841661294a86612726565b60005b828110156129725784890151825560018201915060208501945060208101905061294d565b8683101561298f578489015161298b601f891682612898565b8355505b6001600288020188555050505b505050505050565b60006040820190506129b960008301856122ea565b81810360208301526129cb81846122b1565b90509392505050565b7f41646472657373206973206e6f7420617574686f72697a656400000000000000600082015250565b6000612a0a6019836122a0565b9150612a15826129d4565b602082019050919050565b60006020820190508181036000830152612a39816129fd565b9050919050565b60008154612a4d816125f7565b612a5781866122a0565b94506001821660008114612a725760018114612a8857612abb565b60ff198316865281151560200286019350612abb565b612a9185612726565b60005b83811015612ab357815481890152600182019150602081019050612a94565b808801955050505b50505092915050565b6000606082019050612ad960008301866122ea565b8181036020830152612aeb8185612a40565b9050612afa6040830184612249565b949350505050565b6000604082019050612b1760008301856122ea565b8181036020830152612b298184612a40565b90509392505050565b7f74656163686572206164647265737320616c726561647920726567697374657260008201527f6564000000000000000000000000000000000000000000000000000000000000602082015250565b6000612b8e6022836122a0565b9150612b9982612b32565b604082019050919050565b60006020820190508181036000830152612bbd81612b81565b9050919050565b7f4f6e6c792061646d696e2063616e2063616c6c20746869732066756e6374696f60008201527f6e00000000000000000000000000000000000000000000000000000000000000602082015250565b6000612c206021836122a0565b9150612c2b82612bc4565b604082019050919050565b60006020820190508181036000830152612c4f81612c13565b9050919050565b7f6d6174612070656c616a6172616e20646f6573206e6f74206578697374000000600082015250565b6000612c8c601d836122a0565b9150612c9782612c56565b602082019050919050565b60006020820190508181036000830152612cbb81612c7f565b9050919050565b60006040820190508181036000830152612cdc81856122b1565b90508181036020830152612cf081846122b1565b90509392505050565b7f4e487b7100000000000000000000000000000000000000000000000000000000600052605160045260246000fdfea264697066735822122035e9d523a951b558d421f5e4d99a38430e454502887cedbaf56d4c8d7d0bccd464736f6c63430008180033",
  "linkReferences": {},
  "deployedLinkReferences": {}
}